{
  "address": "0xFB63A1B4cA6E688F93bB6a67deC8DE46eDacA583",
  "abi": [
    {
      "inputs": [
        {
          "internalType": "address",
          "name": "_owner",
          "type": "address"
        },
        {
          "internalType": "address[]",
          "name": "_admins",
          "type": "address[]"
        },
        {
          "internalType": "address",
          "name": "_tokenContractAccount",
          "type": "address"
        },
        {
          "internalType": "address",
          "name": "_treasuryAccount",
          "type": "address"
        },
        {
          "internalType": "uint256",
          "name": "_randomSeed",
          "type": "uint256"
        }
      ],
      "stateMutability": "nonpayable",
      "type": "constructor"
    },
    {
      "anonymous": false,
      "inputs": [
        {
          "indexed": true,
          "internalType": "bytes32",
          "name": "role",
          "type": "bytes32"
        },
        {
          "indexed": true,
          "internalType": "bytes32",
          "name": "previousAdminRole",
          "type": "bytes32"
        },
        {
          "indexed": true,
          "internalType": "bytes32",
          "name": "newAdminRole",
          "type": "bytes32"
        }
      ],
      "name": "RoleAdminChanged",
      "type": "event"
    },
    {
      "anonymous": false,
      "inputs": [
        {
          "indexed": true,
          "internalType": "bytes32",
          "name": "role",
          "type": "bytes32"
        },
        {
          "indexed": true,
          "internalType": "address",
          "name": "account",
          "type": "address"
        },
        {
          "indexed": true,
          "internalType": "address",
          "name": "sender",
          "type": "address"
        }
      ],
      "name": "RoleGranted",
      "type": "event"
    },
    {
      "anonymous": false,
      "inputs": [
        {
          "indexed": true,
          "internalType": "bytes32",
          "name": "role",
          "type": "bytes32"
        },
        {
          "indexed": true,
          "internalType": "address",
          "name": "account",
          "type": "address"
        },
        {
          "indexed": true,
          "internalType": "address",
          "name": "sender",
          "type": "address"
        }
      ],
      "name": "RoleRevoked",
      "type": "event"
    },
    {
      "inputs": [],
      "name": "ADMIN_ROLE",
      "outputs": [
        {
          "internalType": "bytes32",
          "name": "",
          "type": "bytes32"
        }
      ],
      "stateMutability": "view",
      "type": "function"
    },
    {
      "inputs": [],
      "name": "DEFAULT_ADMIN_ROLE",
      "outputs": [
        {
          "internalType": "bytes32",
          "name": "",
          "type": "bytes32"
        }
      ],
      "stateMutability": "view",
      "type": "function"
    },
    {
      "inputs": [
        {
          "internalType": "uint256",
          "name": "_id",
          "type": "uint256"
        },
        {
          "internalType": "uint256",
          "name": "_number",
          "type": "uint256"
        }
      ],
      "name": "_calculateRewardOfLotteryNumber",
      "outputs": [
        {
          "internalType": "uint256",
          "name": "",
          "type": "uint256"
        }
      ],
      "stateMutability": "view",
      "type": "function"
    },
    {
      "inputs": [
        {
          "internalType": "uint256",
          "name": "_id",
          "type": "uint256"
        },
        {
          "internalType": "uint256",
          "name": "_number",
          "type": "uint256"
        }
      ],
      "name": "buyLottery",
      "outputs": [],
      "stateMutability": "nonpayable",
      "type": "function"
    },
    {
      "inputs": [
        {
          "internalType": "uint256",
          "name": "_id",
          "type": "uint256"
        },
        {
          "internalType": "uint256",
          "name": "_number",
          "type": "uint256"
        }
      ],
      "name": "claimLottery",
      "outputs": [],
      "stateMutability": "nonpayable",
      "type": "function"
    },
    {
      "inputs": [
        {
          "internalType": "uint256",
          "name": "_id",
          "type": "uint256"
        }
      ],
      "name": "declareLottery",
      "outputs": [],
      "stateMutability": "nonpayable",
      "type": "function"
    },
    {
      "inputs": [
        {
          "internalType": "uint256",
          "name": "_id",
          "type": "uint256"
        }
      ],
      "name": "drawRandomNumber",
      "outputs": [],
      "stateMutability": "nonpayable",
      "type": "function"
    },
    {
      "inputs": [
        {
          "internalType": "uint256",
          "name": "_id",
          "type": "uint256"
        },
        {
          "internalType": "uint256",
          "name": "_number",
          "type": "uint256"
        }
      ],
      "name": "getRewardOfLottery",
      "outputs": [
        {
          "internalType": "uint256",
          "name": "",
          "type": "uint256"
        }
      ],
      "stateMutability": "view",
      "type": "function"
    },
    {
      "inputs": [
        {
          "internalType": "bytes32",
          "name": "role",
          "type": "bytes32"
        }
      ],
      "name": "getRoleAdmin",
      "outputs": [
        {
          "internalType": "bytes32",
          "name": "",
          "type": "bytes32"
        }
      ],
      "stateMutability": "view",
      "type": "function"
    },
    {
      "inputs": [
        {
          "internalType": "bytes32",
          "name": "role",
          "type": "bytes32"
        },
        {
          "internalType": "address",
          "name": "account",
          "type": "address"
        }
      ],
      "name": "grantRole",
      "outputs": [],
      "stateMutability": "nonpayable",
      "type": "function"
    },
    {
      "inputs": [
        {
          "internalType": "bytes32",
          "name": "role",
          "type": "bytes32"
        },
        {
          "internalType": "address",
          "name": "account",
          "type": "address"
        }
      ],
      "name": "hasRole",
      "outputs": [
        {
          "internalType": "bool",
          "name": "",
          "type": "bool"
        }
      ],
      "stateMutability": "view",
      "type": "function"
    },
    {
      "inputs": [
        {
          "internalType": "uint256",
          "name": "_number",
          "type": "uint256"
        }
      ],
      "name": "isValidNumber",
      "outputs": [
        {
          "internalType": "bool",
          "name": "",
          "type": "bool"
        }
      ],
      "stateMutability": "view",
      "type": "function"
    },
    {
      "inputs": [],
      "name": "lastestLotteryId",
      "outputs": [
        {
          "internalType": "uint256",
          "name": "",
          "type": "uint256"
        }
      ],
      "stateMutability": "view",
      "type": "function"
    },
    {
      "inputs": [
        {
          "internalType": "uint256",
          "name": "",
          "type": "uint256"
        },
        {
          "internalType": "uint256",
          "name": "",
          "type": "uint256"
        }
      ],
      "name": "lotteryBuyData",
      "outputs": [
        {
          "internalType": "bool",
          "name": "owned",
          "type": "bool"
        },
        {
          "internalType": "address",
          "name": "buyer",
          "type": "address"
        },
        {
          "internalType": "uint256",
          "name": "buyTime",
          "type": "uint256"
        },
        {
          "internalType": "bool",
          "name": "claimed",
          "type": "bool"
        }
      ],
      "stateMutability": "view",
      "type": "function"
    },
    {
      "inputs": [
        {
          "internalType": "uint256",
          "name": "",
          "type": "uint256"
        },
        {
          "internalType": "address",
          "name": "",
          "type": "address"
        }
      ],
      "name": "lotteryBuyerCount",
      "outputs": [
        {
          "internalType": "uint256",
          "name": "",
          "type": "uint256"
        }
      ],
      "stateMutability": "view",
      "type": "function"
    },
    {
      "inputs": [
        {
          "internalType": "uint256",
          "name": "",
          "type": "uint256"
        },
        {
          "internalType": "address",
          "name": "",
          "type": "address"
        },
        {
          "internalType": "uint256",
          "name": "",
          "type": "uint256"
        }
      ],
      "name": "lotteryBuyerData",
      "outputs": [
        {
          "internalType": "uint256",
          "name": "",
          "type": "uint256"
        }
      ],
      "stateMutability": "view",
      "type": "function"
    },
    {
      "inputs": [],
      "name": "lotteryCost",
      "outputs": [
        {
          "internalType": "uint256",
          "name": "",
          "type": "uint256"
        }
      ],
      "stateMutability": "view",
      "type": "function"
    },
    {
      "inputs": [
        {
          "internalType": "uint256",
          "name": "",
          "type": "uint256"
        }
      ],
      "name": "lotteryData",
      "outputs": [
        {
          "internalType": "enum ItimLotteryBase.ItimLotteryState",
          "name": "state",
          "type": "uint8"
        },
        {
          "internalType": "uint256",
          "name": "expiredTime",
          "type": "uint256"
        },
        {
          "internalType": "uint256",
          "name": "drawTime",
          "type": "uint256"
        },
        {
          "internalType": "uint256",
          "name": "drawNumber",
          "type": "uint256"
        }
      ],
      "stateMutability": "view",
      "type": "function"
    },
    {
      "inputs": [],
      "name": "lotteryMaxNumber",
      "outputs": [
        {
          "internalType": "uint256",
          "name": "",
          "type": "uint256"
        }
      ],
      "stateMutability": "view",
      "type": "function"
    },
    {
      "inputs": [],
      "name": "lotteryMinNumber",
      "outputs": [
        {
          "internalType": "uint256",
          "name": "",
          "type": "uint256"
        }
      ],
      "stateMutability": "view",
      "type": "function"
    },
    {
      "inputs": [],
      "name": "lotteryReward",
      "outputs": [
        {
          "internalType": "uint256",
          "name": "",
          "type": "uint256"
        }
      ],
      "stateMutability": "view",
      "type": "function"
    },
    {
      "inputs": [],
      "name": "lotteryReward2nd",
      "outputs": [
        {
          "internalType": "uint256",
          "name": "",
          "type": "uint256"
        }
      ],
      "stateMutability": "view",
      "type": "function"
    },
    {
      "inputs": [],
      "name": "owner",
      "outputs": [
        {
          "internalType": "address",
          "name": "",
          "type": "address"
        }
      ],
      "stateMutability": "view",
      "type": "function"
    },
    {
      "inputs": [
        {
          "internalType": "bytes32",
          "name": "role",
          "type": "bytes32"
        },
        {
          "internalType": "address",
          "name": "account",
          "type": "address"
        }
      ],
      "name": "renounceRole",
      "outputs": [],
      "stateMutability": "nonpayable",
      "type": "function"
    },
    {
      "inputs": [
        {
          "internalType": "bytes32",
          "name": "role",
          "type": "bytes32"
        },
        {
          "internalType": "address",
          "name": "account",
          "type": "address"
        }
      ],
      "name": "revokeRole",
      "outputs": [],
      "stateMutability": "nonpayable",
      "type": "function"
    },
    {
      "inputs": [
        {
          "internalType": "address",
          "name": "_tokenContract",
          "type": "address"
        },
        {
          "internalType": "address",
          "name": "_treasuryAccount",
          "type": "address"
        }
      ],
      "name": "setAccounts",
      "outputs": [],
      "stateMutability": "nonpayable",
      "type": "function"
    },
    {
      "inputs": [
        {
          "internalType": "uint256",
          "name": "_reward2nd",
          "type": "uint256"
        }
      ],
      "name": "setLottery2ndReward",
      "outputs": [],
      "stateMutability": "nonpayable",
      "type": "function"
    },
    {
      "inputs": [
        {
          "internalType": "uint256",
          "name": "_cost",
          "type": "uint256"
        }
      ],
      "name": "setLotteryCost",
      "outputs": [],
      "stateMutability": "nonpayable",
      "type": "function"
    },
    {
      "inputs": [
        {
          "internalType": "uint256",
          "name": "_min",
          "type": "uint256"
        },
        {
          "internalType": "uint256",
          "name": "_max",
          "type": "uint256"
        }
      ],
      "name": "setLotteryNumberRange",
      "outputs": [],
      "stateMutability": "nonpayable",
      "type": "function"
    },
    {
      "inputs": [
        {
          "internalType": "uint256",
          "name": "_reward",
          "type": "uint256"
        }
      ],
      "name": "setLotteryReward",
      "outputs": [],
      "stateMutability": "nonpayable",
      "type": "function"
    },
    {
      "inputs": [
        {
          "internalType": "uint256",
          "name": "_id",
          "type": "uint256"
        },
        {
          "internalType": "uint256",
          "name": "_expiredTime",
          "type": "uint256"
        }
      ],
      "name": "startBuyingLottery",
      "outputs": [],
      "stateMutability": "nonpayable",
      "type": "function"
    },
    {
      "inputs": [
        {
          "internalType": "uint256",
          "name": "_id",
          "type": "uint256"
        }
      ],
      "name": "stopBuyingLottery",
      "outputs": [],
      "stateMutability": "nonpayable",
      "type": "function"
    },
    {
      "inputs": [
        {
          "internalType": "bytes4",
          "name": "interfaceId",
          "type": "bytes4"
        }
      ],
      "name": "supportsInterface",
      "outputs": [
        {
          "internalType": "bool",
          "name": "",
          "type": "bool"
        }
      ],
      "stateMutability": "view",
      "type": "function"
    },
    {
      "inputs": [],
      "name": "tokenContractAccount",
      "outputs": [
        {
          "internalType": "address",
          "name": "",
          "type": "address"
        }
      ],
      "stateMutability": "view",
      "type": "function"
    },
    {
      "inputs": [],
      "name": "treasuryAccount",
      "outputs": [
        {
          "internalType": "address",
          "name": "",
          "type": "address"
        }
      ],
      "stateMutability": "view",
      "type": "function"
    }
  ],
  "transactionHash": "0x5e737c4081d3172fa8179a7c3ee583cc7d86cb09435d1985acddf3fcfb43619d",
  "args": [
    "0xC70Edf3aB36E0D57eFD8f412A3460D225931A110",
    [
      "0xC70Edf3aB36E0D57eFD8f412A3460D225931A110",
      "0x5572eAA48D9CF8Ae04C7813B5638349d641a7B91"
    ],
    "0xD0552DD8058adDE1D705962b92571c6065F1B147",
    "0xC70Edf3aB36E0D57eFD8f412A3460D225931A110",
    "100029297261791556108947745397363605239605429222660829146559472124582570206191"
  ],
  "numDeployments": 1,
  "solcInputHash": "73be4feeee90257d707760dd4b8e6abd",
  "bytecode": "0x60a0604052670de0b6b3a76400006003819055600060045561270f6005556200002a90600a620004c6565b6007556003546200003d906002620004c6565b600d553480156200004d57600080fd5b50604051620024dd380380620024dd833981016040819052620000709162000513565b6001600160a01b0385166080526006819055848484848462000093838362000135565b620000ae600080516020620024bd8339815191528662000293565b835160005b818110156200010e57620000f9600080516020620024bd833981519152878381518110620000e557620000e56200062b565b60200260200101516200029360201b60201c565b80620001058162000641565b915050620000b3565b505050505050506200012a60006103e76200031b60201b60201c565b5050505050620006bf565b6080516001600160a01b0316336001600160a01b031614806200016e57506200016e600080516020620024bd83398151915233620003fe565b620001c05760405162461bcd60e51b815260206004820152601f60248201527f43616c6c6572206973206e6f7420616e2061646d696e206f72206f776e65720060448201526064015b60405180910390fd5b600180546001600160a01b038085166001600160a01b03199283168117909355600280549185169190921617905560408051808201909152601681527f546f6b656e20436f6e7472616374204163636f756e74000000000000000000006020808301919091526200023b92906200123262000429821b17901c565b6200028f6040518060400160405280601081526020016f151c99585cdd5c9e481058d8dbdd5b9d60821b815250600260009054906101000a90046001600160a01b03166200042960201b620012321760201c565b5050565b6200029f8282620003fe565b6200028f576000828152602081815260408083206001600160a01b03851684529091529020805460ff19166001179055620002d73390565b6001600160a01b0316816001600160a01b0316837f2f8788117e7eff1d82e926ec794901d17c78024a50270940304540a733656f0d60405160405180910390a45050565b6080516001600160a01b0316336001600160a01b0316148062000354575062000354600080516020620024bd83398151915233620003fe565b620003a25760405162461bcd60e51b815260206004820152601f60248201527f43616c6c6572206973206e6f7420616e2061646d696e206f72206f776e6572006044820152606401620001b7565b808210620003f35760405162461bcd60e51b815260206004820152601460248201527f496e76616c6964204e756d6265722052616e67650000000000000000000000006044820152606401620001b7565b600491909155600555565b6000828152602081815260408083206001600160a01b038516845290915290205460ff165b92915050565b6200028f8282604051602401620004429291906200065d565b60408051601f198184030181529190526020810180516001600160e01b0390811663319af33360e01b179091526200047616565b6200048c816200048f60201b620012771760201c565b50565b60006a636f6e736f6c652e6c6f679050600080835160208501845afa505050565b634e487b7160e01b600052601160045260246000fd5b8082028115828204841417620004235762000423620004b0565b80516001600160a01b0381168114620004f857600080fd5b919050565b634e487b7160e01b600052604160045260246000fd5b600080600080600060a086880312156200052c57600080fd5b6200053786620004e0565b602087810151919650906001600160401b03808211156200055757600080fd5b818901915089601f8301126200056c57600080fd5b815181811115620005815762000581620004fd565b8060051b604051601f19603f83011681018181108582111715620005a957620005a9620004fd565b60405291825284820192508381018501918c831115620005c857600080fd5b938501935b82851015620005f157620005e185620004e0565b84529385019392850192620005cd565b8099505050505050506200060860408701620004e0565b92506200061860608701620004e0565b9150608086015190509295509295909350565b634e487b7160e01b600052603260045260246000fd5b600060018201620006565762000656620004b0565b5060010190565b604081526000835180604084015260005b818110156200068d57602081870181015160608684010152016200066e565b50600060608285018101919091526001600160a01b03949094166020840152601f01601f191690910190910192915050565b608051611da36200071a600039600081816104ac015281816105c20152818161068e0152818161078a01528181610841015281816109a401528181610cf501528181610ff9015281816110c101526111510152611da36000f3fe608060405234801561001057600080fd5b50600436106102105760003560e01c80637fdd98f211610125578063b1c45b16116100ad578063e75ff74f1161007c578063e75ff74f1461052b578063e8228d0a1461053e578063efca233614610551578063fccb8eb914610564578063ff19cf1d1461057757600080fd5b8063b1c45b16146104e9578063b613cb3d146104fc578063d11260d214610505578063d547741f1461051857600080fd5b806388578d44116100f457806388578d441461048b578063893428091461049e5780638da5cb5b146104a757806391d14854146104ce578063a217fddf146104e157600080fd5b80637fdd98f214610449578063801700871461045c57806382e7a9761461046557806384f518691461047857600080fd5b8063313c5882116101a85780633812915311610177578063381291531461034a57806343e02605146103935780634867b991146103a65780636581f729146103b957806375b238fc1461043457600080fd5b8063313c5882146102e6578063339a6403146102f9578063339b2cff1461030c57806336568abe1461033757600080fd5b806323b62aa3116101e457806323b62aa314610294578063248a9ca3146102a75780632f2ff15d146102ca57806330d0bd55146102dd57600080fd5b806235f3b81461021557806301ffc9a71461025357806319f4a421146102765780631f7a35081461027f575b600080fd5b61024061022336600461192c565b600b60209081526000928352604080842090915290825290205481565b6040519081526020015b60405180910390f35b610266610261366004611958565b610580565b604051901515815260200161024a565b61024060085481565b61029261028d366004611982565b6105b7565b005b6102926102a2366004611982565b610683565b6102406102b5366004611982565b60009081526020819052604090206001015490565b6102926102d836600461192c565b610755565b61024060035481565b6102926102f436600461199b565b61077f565b610292610307366004611982565b610836565b60025461031f906001600160a01b031681565b6040516001600160a01b03909116815260200161024a565b61029261034536600461192c565b61091b565b610383610358366004611982565b600960205260009081526040902080546001820154600283015460039093015460ff90921692909184565b60405161024a94939291906119d3565b6102926103a1366004611a11565b610999565b6102926103b436600461199b565b610aa0565b6104086103c736600461199b565b600a60209081526000928352604080842090915290825290208054600182015460029092015460ff808316936101009093046001600160a01b031692911684565b6040805194151585526001600160a01b039093166020850152918301521515606082015260800161024a565b610240600080516020611d4e83398151915281565b610292610457366004611982565b610cea565b61024060075481565b610266610473366004611982565b610d55565b61029261048636600461199b565b610d6d565b61024061049936600461199b565b610f4b565b61024060045481565b61031f7f000000000000000000000000000000000000000000000000000000000000000081565b6102666104dc36600461192c565b610fc5565b610240600081565b6102926104f736600461199b565b610fee565b610240600d5481565b610292610513366004611982565b6110b6565b61029261052636600461192c565b611121565b610292610539366004611982565b611146565b61024061054c36600461199b565b6111b1565b60015461031f906001600160a01b031681565b610240610572366004611a3b565b6111f4565b61024060055481565b60006001600160e01b03198216637965db0b60e01b14806105b157506301ffc9a760e01b6001600160e01b03198316145b92915050565b336001600160a01b037f00000000000000000000000000000000000000000000000000000000000000001614806106015750610601600080516020611d4e83398151915233610fc5565b6106265760405162461bcd60e51b815260040161061d90611a70565b60405180910390fd5b600260008281526009602052604090205460ff16600481111561064b5761064b6119bd565b146106685760405162461bcd60e51b815260040161061d90611aa7565b6000908152600960205260409020805460ff19166003179055565b336001600160a01b037f00000000000000000000000000000000000000000000000000000000000000001614806106cd57506106cd600080516020611d4e83398151915233610fc5565b6106e95760405162461bcd60e51b815260040161061d90611a70565b60008181526009602052604081205460ff16600481111561070c5761070c6119bd565b146107295760405162461bcd60e51b815260040161061d90611aa7565b6000818152600960205260409020805460ff191660011790556008548111156107525760088190555b50565b60008281526020819052604090206001015461077081611298565b61077a83836112a2565b505050565b336001600160a01b037f00000000000000000000000000000000000000000000000000000000000000001614806107c957506107c9600080516020611d4e83398151915233610fc5565b6107e55760405162461bcd60e51b815260040161061d90611a70565b80821061082b5760405162461bcd60e51b8152602060048201526014602482015273496e76616c6964204e756d6265722052616e676560601b604482015260640161061d565b600491909155600555565b336001600160a01b037f00000000000000000000000000000000000000000000000000000000000000001614806108805750610880600080516020611d4e83398151915233610fc5565b61089c5760405162461bcd60e51b815260040161061d90611a70565b600360008281526009602052604090205460ff1660048111156108c1576108c16119bd565b146108de5760405162461bcd60e51b815260040161061d90611aa7565b6000818152600960205260409020805460ff1916600417815542600290910155610906611326565b60009182526009602052604090912060030155565b6001600160a01b038116331461098b5760405162461bcd60e51b815260206004820152602f60248201527f416363657373436f6e74726f6c3a2063616e206f6e6c792072656e6f756e636560448201526e103937b632b9903337b91039b2b63360891b606482015260840161061d565b61099582826113c4565b5050565b336001600160a01b037f00000000000000000000000000000000000000000000000000000000000000001614806109e357506109e3600080516020611d4e83398151915233610fc5565b6109ff5760405162461bcd60e51b815260040161061d90611a70565b600180546001600160a01b038085166001600160a01b031992831681179093556002805491851691909216179055604080518082019091526016815275151bdad95b8810dbdb9d1c9858dd081058d8dbdd5b9d60521b6020820152610a6391611232565b60408051808201909152601081526f151c99585cdd5c9e481058d8dbdd5b9d60821b602082015260025461099591906001600160a01b0316611232565b600460008381526009602052604090205460ff166004811115610ac557610ac56119bd565b14610ae25760405162461bcd60e51b815260040161061d90611aa7565b610aeb81610d55565b610b075760405162461bcd60e51b815260040161061d90611ad6565b6000828152600a6020908152604080832084845290915290205460ff16610b645760405162461bcd60e51b8152602060048201526011602482015270131bdd1d195c9e481b9bdd081bdddb9959607a1b604482015260640161061d565b6000828152600a6020908152604080832084845290915290205461010090046001600160a01b03163314610bcd5760405162461bcd60e51b815260206004820152601060248201526f4e6f7420796f7572206c6f747465727960801b604482015260640161061d565b6000828152600a6020908152604080832084845290915290206002015460ff1615610c2c5760405162461bcd60e51b815260206004820152600f60248201526e105b1c9958591e4818db185a5b5959608a1b604482015260640161061d565b6000828152600a602090815260408083208484529091528120600201805460ff19166001179055610c5d8383610f4b565b9050801561077a576001546002546040516323b872dd60e01b81526001600160a01b039182166004820152336024820152604481018490529116906323b872dd906064016020604051808303816000875af1158015610cc0573d6000803e3d6000fd5b505050506040513d601f19601f82011682018060405250810190610ce49190611afe565b50505050565b336001600160a01b037f0000000000000000000000000000000000000000000000000000000000000000161480610d345750610d34600080516020611d4e83398151915233610fc5565b610d505760405162461bcd60e51b815260040161061d90611a70565b600755565b600060045482101580156105b1575050600554101590565b600260008381526009602052604090205460ff166004811115610d9257610d926119bd565b14610daf5760405162461bcd60e51b815260040161061d90611aa7565b610db881610d55565b610dd45760405162461bcd60e51b815260040161061d90611ad6565b6000828152600a6020908152604080832084845290915290205460ff1615610e2e5760405162461bcd60e51b815260206004820152600d60248201526c131bdd1d195c9e481bdddb9959609a1b604482015260640161061d565b6000828152600a602090815260408083208484528252808320805460016001600160a81b03199091166101003390810291909117821783554292820192909255868552600b845282852091855292528220805491929091610e90908490611b36565b90915550506000828152600c602090815260408083203380855290835281842080546001808201835591865293909420909201849055915460025460035493516323b872dd60e01b815260048101939093526001600160a01b039081166024840152604483019390935291909116906323b872dd906064016020604051808303816000875af1158015610f27573d6000803e3d6000fd5b505050506040513d601f19601f8201168201806040525081019061077a9190611afe565b6000600460008481526009602052604090205460ff166004811115610f7257610f726119bd565b14610f8f5760405162461bcd60e51b815260040161061d90611aa7565b610f9882610d55565b610fb45760405162461bcd60e51b815260040161061d90611ad6565b610fbe83836111b1565b9392505050565b6000918252602082815260408084206001600160a01b0393909316845291905290205460ff1690565b336001600160a01b037f00000000000000000000000000000000000000000000000000000000000000001614806110385750611038600080516020611d4e83398151915233610fc5565b6110545760405162461bcd60e51b815260040161061d90611a70565b600160008381526009602052604090205460ff166004811115611079576110796119bd565b146110965760405162461bcd60e51b815260040161061d90611aa7565b600091825260096020526040909120805460ff1916600217815560010155565b336001600160a01b037f00000000000000000000000000000000000000000000000000000000000000001614806111005750611100600080516020611d4e83398151915233610fc5565b61111c5760405162461bcd60e51b815260040161061d90611a70565b600d55565b60008281526020819052604090206001015461113c81611298565b61077a83836113c4565b336001600160a01b037f00000000000000000000000000000000000000000000000000000000000000001614806111905750611190600080516020611d4e83398151915233610fc5565b6111ac5760405162461bcd60e51b815260040161061d90611a70565b600355565b6000828152600960205260408120600301548290036111d357506007546105b1565b6111dd8383611429565b156111eb5750600d546105b1565b50600092915050565b600c602052826000526040600020602052816000526040600020818154811061121c57600080fd5b9060005260206000200160009250925050505481565b6109958282604051602401611248929190611b99565b60408051601f198184030181529190526020810180516001600160e01b031663319af33360e01b17905261153f565b60006a636f6e736f6c652e6c6f679050600080835160208501845afa505050565b6107528133611548565b6112ac8282610fc5565b610995576000828152602081815260408083206001600160a01b03851684529091529020805460ff191660011790556112e23390565b6001600160a01b0316816001600160a01b0316837f2f8788117e7eff1d82e926ec794901d17c78024a50270940304540a733656f0d60405160405180910390a45050565b600042600654604051602001611346929190918252602082015260400190565b60408051601f19818403018152919052805160209091012060065560045460055460009161137391611bc3565b6006546113809190611bec565b60045461138d9190611b36565b90506113bf6040518060400160405280600e81526020016d20b1ba3ab0b610273ab6b132b91d60911b815250826115a1565b919050565b6113ce8282610fc5565b15610995576000828152602081815260408083206001600160a01b0385168085529252808320805460ff1916905551339285917ff6391f5c32d9c69d2a47ea670b442974b53935d1edc7fd64eb21e047a839171b9190a45050565b600080611435836115e6565b60008581526009602052604081206003015491925090611454906115e6565b905060005b600a8160ff161015611533576114946040518060400160405280600a815260200169686973746f726772616d60b01b8152508260ff166115a1565b6114d6838260ff16600a81106114ac576114ac611c00565b602002015160ff16838360ff16600a81106114c9576114c9611c00565b602002015160ff166116f7565b818160ff16600a81106114eb576114eb611c00565b602002015160ff16838260ff16600a811061150857611508611c00565b602002015160ff161461152157600093505050506105b1565b8061152b81611c16565b915050611459565b50600195945050505050565b61075281611277565b6115528282610fc5565b6109955761155f8161173e565b61156a836020611750565b60405160200161157b929190611c35565b60408051601f198184030181529082905262461bcd60e51b825261061d91600401611caa565b61099582826040516024016115b7929190611cbd565b60408051601f198184030181529190526020810180516001600160e01b0316632d839cb360e21b17905261153f565b6115ee6118f6565b6040805161014081018252600080825260208201819052918101829052606081018290526080810182905260a0810182905260c0810182905260e08101829052610100810182905261012081018290529061164a600a85611bec565b90506000600a61165a8187611cdf565b6116649190611bec565b90506000611673606487611cdf565b90508381600a811061168757611687611c00565b6020020180519061169782611c16565b60ff169052508382600a81106116af576116af611c00565b602002018051906116bf82611c16565b60ff169052508383600a81106116d7576116d7611c00565b602002018051906116e782611c16565b60ff169052509295945050505050565b60405160248101839052604481018290526109959060640160408051601f198184030181529190526020810180516001600160e01b0316637b3338ad60e11b17905261153f565b60606105b16001600160a01b03831660145b6060600061175f836002611cf3565b61176a906002611b36565b67ffffffffffffffff81111561178257611782611d0a565b6040519080825280601f01601f1916602001820160405280156117ac576020820181803683370190505b509050600360fc1b816000815181106117c7576117c7611c00565b60200101906001600160f81b031916908160001a905350600f60fb1b816001815181106117f6576117f6611c00565b60200101906001600160f81b031916908160001a905350600061181a846002611cf3565b611825906001611b36565b90505b600181111561189d576f181899199a1a9b1b9c1cb0b131b232b360811b85600f166010811061185957611859611c00565b1a60f81b82828151811061186f5761186f611c00565b60200101906001600160f81b031916908160001a90535060049490941c9361189681611d20565b9050611828565b508315610fbe5760405162461bcd60e51b815260206004820181905260248201527f537472696e67733a20686578206c656e67746820696e73756666696369656e74604482015260640161061d565b6118f4611d37565b565b604051806101400160405280600a906020820280368337509192915050565b80356001600160a01b03811681146113bf57600080fd5b6000806040838503121561193f57600080fd5b8235915061194f60208401611915565b90509250929050565b60006020828403121561196a57600080fd5b81356001600160e01b031981168114610fbe57600080fd5b60006020828403121561199457600080fd5b5035919050565b600080604083850312156119ae57600080fd5b50508035926020909101359150565b634e487b7160e01b600052602160045260246000fd5b60808101600586106119f557634e487b7160e01b600052602160045260246000fd5b9481526020810193909352604083019190915260609091015290565b60008060408385031215611a2457600080fd5b611a2d83611915565b915061194f60208401611915565b600080600060608486031215611a5057600080fd5b83359250611a6060208501611915565b9150604084013590509250925092565b6020808252601f908201527f43616c6c6572206973206e6f7420616e2061646d696e206f72206f776e657200604082015260600190565b602080825260159082015274496e76616c6964206c6f747465727920737461746560581b604082015260600190565b6020808252600e908201526d24b73b30b634b210373ab6b132b960911b604082015260600190565b600060208284031215611b1057600080fd5b81518015158114610fbe57600080fd5b634e487b7160e01b600052601160045260246000fd5b808201808211156105b1576105b1611b20565b60005b83811015611b64578181015183820152602001611b4c565b50506000910152565b60008151808452611b85816020860160208601611b49565b601f01601f19169290920160200192915050565b604081526000611bac6040830185611b6d565b905060018060a01b03831660208301529392505050565b818103818111156105b1576105b1611b20565b634e487b7160e01b600052601260045260246000fd5b600082611bfb57611bfb611bd6565b500690565b634e487b7160e01b600052603260045260246000fd5b600060ff821660ff8103611c2c57611c2c611b20565b60010192915050565b7f416363657373436f6e74726f6c3a206163636f756e7420000000000000000000815260008351611c6d816017850160208801611b49565b7001034b99036b4b9b9b4b733903937b6329607d1b6017918401918201528351611c9e816028840160208801611b49565b01602801949350505050565b602081526000610fbe6020830184611b6d565b604081526000611cd06040830185611b6d565b90508260208301529392505050565b600082611cee57611cee611bd6565b500490565b80820281158282048414176105b1576105b1611b20565b634e487b7160e01b600052604160045260246000fd5b600081611d2f57611d2f611b20565b506000190190565b634e487b7160e01b600052605160045260246000fdfea49807205ce4d355092ef5a8a18f56e8913cf4a201fbe287825b095693c21775a2646970667358221220cba59a8110b05b3fa20fe0e5cf413f82c13fc630d79dc3e6a8ce3070f69f4d8a64736f6c63430008110033a49807205ce4d355092ef5a8a18f56e8913cf4a201fbe287825b095693c21775",
  "devdoc": {
    "kind": "dev",
    "methods": {
      "getRoleAdmin(bytes32)": {
        "details": "Returns the admin role that controls `role`. See {grantRole} and {revokeRole}. To change a role's admin, use {_setRoleAdmin}."
      },
      "grantRole(bytes32,address)": {
        "details": "Grants `role` to `account`. If `account` had not been already granted `role`, emits a {RoleGranted} event. Requirements: - the caller must have ``role``'s admin role. May emit a {RoleGranted} event."
      },
      "hasRole(bytes32,address)": {
        "details": "Returns `true` if `account` has been granted `role`."
      },
      "renounceRole(bytes32,address)": {
        "details": "Revokes `role` from the calling account. Roles are often managed via {grantRole} and {revokeRole}: this function's purpose is to provide a mechanism for accounts to lose their privileges if they are compromised (such as when a trusted device is misplaced). If the calling account had been revoked `role`, emits a {RoleRevoked} event. Requirements: - the caller must be `account`. May emit a {RoleRevoked} event."
      },
      "revokeRole(bytes32,address)": {
        "details": "Revokes `role` from `account`. If `account` had been granted `role`, emits a {RoleRevoked} event. Requirements: - the caller must have ``role``'s admin role. May emit a {RoleRevoked} event."
      },
      "supportsInterface(bytes4)": {
        "details": "See {IERC165-supportsInterface}."
      }
    },
    "version": 1
  },
  "userdoc": {
    "kind": "user",
    "methods": {},
    "notice": "Item Lottery 3 Digits",
    "version": 1
  },
  "storageLayout": {
    "storage": [
      {
        "astId": 24,
        "contract": "contracts/ItimLottery3Digits.sol:ItimLottery3Digits",
        "label": "_roles",
        "offset": 0,
        "slot": "0",
        "type": "t_mapping(t_bytes32,t_struct(RoleData)19_storage)"
      },
      {
        "astId": 2962,
        "contract": "contracts/ItimLottery3Digits.sol:ItimLottery3Digits",
        "label": "tokenContractAccount",
        "offset": 0,
        "slot": "1",
        "type": "t_address"
      },
      {
        "astId": 2964,
        "contract": "contracts/ItimLottery3Digits.sol:ItimLottery3Digits",
        "label": "treasuryAccount",
        "offset": 0,
        "slot": "2",
        "type": "t_address"
      },
      {
        "astId": 2967,
        "contract": "contracts/ItimLottery3Digits.sol:ItimLottery3Digits",
        "label": "lotteryCost",
        "offset": 0,
        "slot": "3",
        "type": "t_uint256"
      },
      {
        "astId": 2970,
        "contract": "contracts/ItimLottery3Digits.sol:ItimLottery3Digits",
        "label": "lotteryMinNumber",
        "offset": 0,
        "slot": "4",
        "type": "t_uint256"
      },
      {
        "astId": 2973,
        "contract": "contracts/ItimLottery3Digits.sol:ItimLottery3Digits",
        "label": "lotteryMaxNumber",
        "offset": 0,
        "slot": "5",
        "type": "t_uint256"
      },
      {
        "astId": 2975,
        "contract": "contracts/ItimLottery3Digits.sol:ItimLottery3Digits",
        "label": "randomSeed",
        "offset": 0,
        "slot": "6",
        "type": "t_uint256"
      },
      {
        "astId": 2980,
        "contract": "contracts/ItimLottery3Digits.sol:ItimLottery3Digits",
        "label": "lotteryReward",
        "offset": 0,
        "slot": "7",
        "type": "t_uint256"
      },
      {
        "astId": 2998,
        "contract": "contracts/ItimLottery3Digits.sol:ItimLottery3Digits",
        "label": "lastestLotteryId",
        "offset": 0,
        "slot": "8",
        "type": "t_uint256"
      },
      {
        "astId": 3003,
        "contract": "contracts/ItimLottery3Digits.sol:ItimLottery3Digits",
        "label": "lotteryData",
        "offset": 0,
        "slot": "9",
        "type": "t_mapping(t_uint256,t_struct(ItimLotteryData)2996_storage)"
      },
      {
        "astId": 3019,
        "contract": "contracts/ItimLottery3Digits.sol:ItimLottery3Digits",
        "label": "lotteryBuyData",
        "offset": 0,
        "slot": "10",
        "type": "t_mapping(t_uint256,t_mapping(t_uint256,t_struct(ItimLotteryBuyData)3012_storage))"
      },
      {
        "astId": 3025,
        "contract": "contracts/ItimLottery3Digits.sol:ItimLottery3Digits",
        "label": "lotteryBuyerCount",
        "offset": 0,
        "slot": "11",
        "type": "t_mapping(t_uint256,t_mapping(t_address,t_uint256))"
      },
      {
        "astId": 3032,
        "contract": "contracts/ItimLottery3Digits.sol:ItimLottery3Digits",
        "label": "lotteryBuyerData",
        "offset": 0,
        "slot": "12",
        "type": "t_mapping(t_uint256,t_mapping(t_address,t_array(t_uint256)dyn_storage))"
      },
      {
        "astId": 2395,
        "contract": "contracts/ItimLottery3Digits.sol:ItimLottery3Digits",
        "label": "lotteryReward2nd",
        "offset": 0,
        "slot": "13",
        "type": "t_uint256"
      }
    ],
    "types": {
      "t_address": {
        "encoding": "inplace",
        "label": "address",
        "numberOfBytes": "20"
      },
      "t_array(t_uint256)dyn_storage": {
        "base": "t_uint256",
        "encoding": "dynamic_array",
        "label": "uint256[]",
        "numberOfBytes": "32"
      },
      "t_bool": {
        "encoding": "inplace",
        "label": "bool",
        "numberOfBytes": "1"
      },
      "t_bytes32": {
        "encoding": "inplace",
        "label": "bytes32",
        "numberOfBytes": "32"
      },
      "t_enum(ItimLotteryState)2986": {
        "encoding": "inplace",
        "label": "enum ItimLotteryBase.ItimLotteryState",
        "numberOfBytes": "1"
      },
      "t_mapping(t_address,t_array(t_uint256)dyn_storage)": {
        "encoding": "mapping",
        "key": "t_address",
        "label": "mapping(address => uint256[])",
        "numberOfBytes": "32",
        "value": "t_array(t_uint256)dyn_storage"
      },
      "t_mapping(t_address,t_bool)": {
        "encoding": "mapping",
        "key": "t_address",
        "label": "mapping(address => bool)",
        "numberOfBytes": "32",
        "value": "t_bool"
      },
      "t_mapping(t_address,t_uint256)": {
        "encoding": "mapping",
        "key": "t_address",
        "label": "mapping(address => uint256)",
        "numberOfBytes": "32",
        "value": "t_uint256"
      },
      "t_mapping(t_bytes32,t_struct(RoleData)19_storage)": {
        "encoding": "mapping",
        "key": "t_bytes32",
        "label": "mapping(bytes32 => struct AccessControl.RoleData)",
        "numberOfBytes": "32",
        "value": "t_struct(RoleData)19_storage"
      },
      "t_mapping(t_uint256,t_mapping(t_address,t_array(t_uint256)dyn_storage))": {
        "encoding": "mapping",
        "key": "t_uint256",
        "label": "mapping(uint256 => mapping(address => uint256[]))",
        "numberOfBytes": "32",
        "value": "t_mapping(t_address,t_array(t_uint256)dyn_storage)"
      },
      "t_mapping(t_uint256,t_mapping(t_address,t_uint256))": {
        "encoding": "mapping",
        "key": "t_uint256",
        "label": "mapping(uint256 => mapping(address => uint256))",
        "numberOfBytes": "32",
        "value": "t_mapping(t_address,t_uint256)"
      },
      "t_mapping(t_uint256,t_mapping(t_uint256,t_struct(ItimLotteryBuyData)3012_storage))": {
        "encoding": "mapping",
        "key": "t_uint256",
        "label": "mapping(uint256 => mapping(uint256 => struct ItimLotteryBase.ItimLotteryBuyData))",
        "numberOfBytes": "32",
        "value": "t_mapping(t_uint256,t_struct(ItimLotteryBuyData)3012_storage)"
      },
      "t_mapping(t_uint256,t_struct(ItimLotteryBuyData)3012_storage)": {
        "encoding": "mapping",
        "key": "t_uint256",
        "label": "mapping(uint256 => struct ItimLotteryBase.ItimLotteryBuyData)",
        "numberOfBytes": "32",
        "value": "t_struct(ItimLotteryBuyData)3012_storage"
      },
      "t_mapping(t_uint256,t_struct(ItimLotteryData)2996_storage)": {
        "encoding": "mapping",
        "key": "t_uint256",
        "label": "mapping(uint256 => struct ItimLotteryBase.ItimLotteryData)",
        "numberOfBytes": "32",
        "value": "t_struct(ItimLotteryData)2996_storage"
      },
      "t_struct(ItimLotteryBuyData)3012_storage": {
        "encoding": "inplace",
        "label": "struct ItimLotteryBase.ItimLotteryBuyData",
        "members": [
          {
            "astId": 3005,
            "contract": "contracts/ItimLottery3Digits.sol:ItimLottery3Digits",
            "label": "owned",
            "offset": 0,
            "slot": "0",
            "type": "t_bool"
          },
          {
            "astId": 3007,
            "contract": "contracts/ItimLottery3Digits.sol:ItimLottery3Digits",
            "label": "buyer",
            "offset": 1,
            "slot": "0",
            "type": "t_address"
          },
          {
            "astId": 3009,
            "contract": "contracts/ItimLottery3Digits.sol:ItimLottery3Digits",
            "label": "buyTime",
            "offset": 0,
            "slot": "1",
            "type": "t_uint256"
          },
          {
            "astId": 3011,
            "contract": "contracts/ItimLottery3Digits.sol:ItimLottery3Digits",
            "label": "claimed",
            "offset": 0,
            "slot": "2",
            "type": "t_bool"
          }
        ],
        "numberOfBytes": "96"
      },
      "t_struct(ItimLotteryData)2996_storage": {
        "encoding": "inplace",
        "label": "struct ItimLotteryBase.ItimLotteryData",
        "members": [
          {
            "astId": 2989,
            "contract": "contracts/ItimLottery3Digits.sol:ItimLottery3Digits",
            "label": "state",
            "offset": 0,
            "slot": "0",
            "type": "t_enum(ItimLotteryState)2986"
          },
          {
            "astId": 2991,
            "contract": "contracts/ItimLottery3Digits.sol:ItimLottery3Digits",
            "label": "expiredTime",
            "offset": 0,
            "slot": "1",
            "type": "t_uint256"
          },
          {
            "astId": 2993,
            "contract": "contracts/ItimLottery3Digits.sol:ItimLottery3Digits",
            "label": "drawTime",
            "offset": 0,
            "slot": "2",
            "type": "t_uint256"
          },
          {
            "astId": 2995,
            "contract": "contracts/ItimLottery3Digits.sol:ItimLottery3Digits",
            "label": "drawNumber",
            "offset": 0,
            "slot": "3",
            "type": "t_uint256"
          }
        ],
        "numberOfBytes": "128"
      },
      "t_struct(RoleData)19_storage": {
        "encoding": "inplace",
        "label": "struct AccessControl.RoleData",
        "members": [
          {
            "astId": 16,
            "contract": "contracts/ItimLottery3Digits.sol:ItimLottery3Digits",
            "label": "members",
            "offset": 0,
            "slot": "0",
            "type": "t_mapping(t_address,t_bool)"
          },
          {
            "astId": 18,
            "contract": "contracts/ItimLottery3Digits.sol:ItimLottery3Digits",
            "label": "adminRole",
            "offset": 0,
            "slot": "1",
            "type": "t_bytes32"
          }
        ],
        "numberOfBytes": "64"
      },
      "t_uint256": {
        "encoding": "inplace",
        "label": "uint256",
        "numberOfBytes": "32"
      }
    }
  }
}