{
  "address": "0x29cFf425531a76c891a0a67E1129B25bD56B91aA",
  "abi": [
    {
      "inputs": [
        {
          "internalType": "address",
          "name": "_owner",
          "type": "address"
        },
        {
          "internalType": "address[]",
          "name": "_admins",
          "type": "address[]"
        },
        {
          "internalType": "address",
          "name": "_tokenContractAccount",
          "type": "address"
        },
        {
          "internalType": "address",
          "name": "_treasuryAccount",
          "type": "address"
        },
        {
          "internalType": "uint256",
          "name": "_randomSeed",
          "type": "uint256"
        }
      ],
      "stateMutability": "nonpayable",
      "type": "constructor"
    },
    {
      "anonymous": false,
      "inputs": [
        {
          "indexed": true,
          "internalType": "bytes32",
          "name": "role",
          "type": "bytes32"
        },
        {
          "indexed": true,
          "internalType": "bytes32",
          "name": "previousAdminRole",
          "type": "bytes32"
        },
        {
          "indexed": true,
          "internalType": "bytes32",
          "name": "newAdminRole",
          "type": "bytes32"
        }
      ],
      "name": "RoleAdminChanged",
      "type": "event"
    },
    {
      "anonymous": false,
      "inputs": [
        {
          "indexed": true,
          "internalType": "bytes32",
          "name": "role",
          "type": "bytes32"
        },
        {
          "indexed": true,
          "internalType": "address",
          "name": "account",
          "type": "address"
        },
        {
          "indexed": true,
          "internalType": "address",
          "name": "sender",
          "type": "address"
        }
      ],
      "name": "RoleGranted",
      "type": "event"
    },
    {
      "anonymous": false,
      "inputs": [
        {
          "indexed": true,
          "internalType": "bytes32",
          "name": "role",
          "type": "bytes32"
        },
        {
          "indexed": true,
          "internalType": "address",
          "name": "account",
          "type": "address"
        },
        {
          "indexed": true,
          "internalType": "address",
          "name": "sender",
          "type": "address"
        }
      ],
      "name": "RoleRevoked",
      "type": "event"
    },
    {
      "inputs": [],
      "name": "ADMIN_ROLE",
      "outputs": [
        {
          "internalType": "bytes32",
          "name": "",
          "type": "bytes32"
        }
      ],
      "stateMutability": "view",
      "type": "function"
    },
    {
      "inputs": [],
      "name": "DEFAULT_ADMIN_ROLE",
      "outputs": [
        {
          "internalType": "bytes32",
          "name": "",
          "type": "bytes32"
        }
      ],
      "stateMutability": "view",
      "type": "function"
    },
    {
      "inputs": [
        {
          "internalType": "uint256",
          "name": "_id",
          "type": "uint256"
        },
        {
          "internalType": "uint256",
          "name": "_number",
          "type": "uint256"
        }
      ],
      "name": "_calculateRewardOfLotteryNumber",
      "outputs": [
        {
          "internalType": "uint256",
          "name": "",
          "type": "uint256"
        }
      ],
      "stateMutability": "view",
      "type": "function"
    },
    {
      "inputs": [
        {
          "internalType": "uint256",
          "name": "_id",
          "type": "uint256"
        },
        {
          "internalType": "uint256",
          "name": "_number",
          "type": "uint256"
        }
      ],
      "name": "buyLottery",
      "outputs": [],
      "stateMutability": "nonpayable",
      "type": "function"
    },
    {
      "inputs": [
        {
          "internalType": "uint256",
          "name": "_id",
          "type": "uint256"
        },
        {
          "internalType": "uint256",
          "name": "_number",
          "type": "uint256"
        }
      ],
      "name": "claimLottery",
      "outputs": [],
      "stateMutability": "nonpayable",
      "type": "function"
    },
    {
      "inputs": [
        {
          "internalType": "uint256",
          "name": "_id",
          "type": "uint256"
        }
      ],
      "name": "declareLottery",
      "outputs": [],
      "stateMutability": "nonpayable",
      "type": "function"
    },
    {
      "inputs": [
        {
          "internalType": "uint256",
          "name": "_id",
          "type": "uint256"
        }
      ],
      "name": "drawRandomNumber",
      "outputs": [],
      "stateMutability": "nonpayable",
      "type": "function"
    },
    {
      "inputs": [
        {
          "internalType": "uint256",
          "name": "_id",
          "type": "uint256"
        },
        {
          "internalType": "uint256",
          "name": "_expiredTime",
          "type": "uint256"
        }
      ],
      "name": "fastStartLottery",
      "outputs": [],
      "stateMutability": "nonpayable",
      "type": "function"
    },
    {
      "inputs": [
        {
          "internalType": "uint256",
          "name": "_id",
          "type": "uint256"
        }
      ],
      "name": "fastStopLottery",
      "outputs": [],
      "stateMutability": "nonpayable",
      "type": "function"
    },
    {
      "inputs": [
        {
          "internalType": "uint256",
          "name": "_id",
          "type": "uint256"
        },
        {
          "internalType": "uint256",
          "name": "_number",
          "type": "uint256"
        }
      ],
      "name": "getRewardOfLottery",
      "outputs": [
        {
          "internalType": "uint256",
          "name": "",
          "type": "uint256"
        }
      ],
      "stateMutability": "view",
      "type": "function"
    },
    {
      "inputs": [
        {
          "internalType": "bytes32",
          "name": "role",
          "type": "bytes32"
        }
      ],
      "name": "getRoleAdmin",
      "outputs": [
        {
          "internalType": "bytes32",
          "name": "",
          "type": "bytes32"
        }
      ],
      "stateMutability": "view",
      "type": "function"
    },
    {
      "inputs": [
        {
          "internalType": "bytes32",
          "name": "role",
          "type": "bytes32"
        },
        {
          "internalType": "address",
          "name": "account",
          "type": "address"
        }
      ],
      "name": "grantRole",
      "outputs": [],
      "stateMutability": "nonpayable",
      "type": "function"
    },
    {
      "inputs": [
        {
          "internalType": "bytes32",
          "name": "role",
          "type": "bytes32"
        },
        {
          "internalType": "address",
          "name": "account",
          "type": "address"
        }
      ],
      "name": "hasRole",
      "outputs": [
        {
          "internalType": "bool",
          "name": "",
          "type": "bool"
        }
      ],
      "stateMutability": "view",
      "type": "function"
    },
    {
      "inputs": [
        {
          "internalType": "uint256",
          "name": "_id",
          "type": "uint256"
        }
      ],
      "name": "isLotteryRoomFull",
      "outputs": [
        {
          "internalType": "bool",
          "name": "",
          "type": "bool"
        }
      ],
      "stateMutability": "view",
      "type": "function"
    },
    {
      "inputs": [
        {
          "internalType": "uint256",
          "name": "_number",
          "type": "uint256"
        }
      ],
      "name": "isValidNumber",
      "outputs": [
        {
          "internalType": "bool",
          "name": "",
          "type": "bool"
        }
      ],
      "stateMutability": "view",
      "type": "function"
    },
    {
      "inputs": [],
      "name": "lastestLotteryId",
      "outputs": [
        {
          "internalType": "uint256",
          "name": "",
          "type": "uint256"
        }
      ],
      "stateMutability": "view",
      "type": "function"
    },
    {
      "inputs": [
        {
          "internalType": "uint256",
          "name": "_id",
          "type": "uint256"
        }
      ],
      "name": "lotteryBuyCount",
      "outputs": [
        {
          "internalType": "uint256",
          "name": "",
          "type": "uint256"
        }
      ],
      "stateMutability": "view",
      "type": "function"
    },
    {
      "inputs": [
        {
          "internalType": "uint256",
          "name": "",
          "type": "uint256"
        },
        {
          "internalType": "uint256",
          "name": "",
          "type": "uint256"
        }
      ],
      "name": "lotteryBuyData",
      "outputs": [
        {
          "internalType": "bool",
          "name": "owned",
          "type": "bool"
        },
        {
          "internalType": "address",
          "name": "buyer",
          "type": "address"
        },
        {
          "internalType": "uint256",
          "name": "buyTime",
          "type": "uint256"
        },
        {
          "internalType": "bool",
          "name": "claimed",
          "type": "bool"
        }
      ],
      "stateMutability": "view",
      "type": "function"
    },
    {
      "inputs": [
        {
          "internalType": "uint256",
          "name": "",
          "type": "uint256"
        },
        {
          "internalType": "address",
          "name": "",
          "type": "address"
        },
        {
          "internalType": "uint256",
          "name": "",
          "type": "uint256"
        }
      ],
      "name": "lotteryBuyerData",
      "outputs": [
        {
          "internalType": "uint256",
          "name": "",
          "type": "uint256"
        }
      ],
      "stateMutability": "view",
      "type": "function"
    },
    {
      "inputs": [],
      "name": "lotteryCost",
      "outputs": [
        {
          "internalType": "uint256",
          "name": "",
          "type": "uint256"
        }
      ],
      "stateMutability": "view",
      "type": "function"
    },
    {
      "inputs": [
        {
          "internalType": "uint256",
          "name": "",
          "type": "uint256"
        }
      ],
      "name": "lotteryData",
      "outputs": [
        {
          "internalType": "enum ItimLotteryBase.ItimLotteryState",
          "name": "state",
          "type": "uint8"
        },
        {
          "internalType": "uint256",
          "name": "expiredTime",
          "type": "uint256"
        },
        {
          "internalType": "uint256",
          "name": "drawTime",
          "type": "uint256"
        },
        {
          "internalType": "uint256",
          "name": "drawNumber",
          "type": "uint256"
        },
        {
          "internalType": "uint256",
          "name": "buyCount",
          "type": "uint256"
        }
      ],
      "stateMutability": "view",
      "type": "function"
    },
    {
      "inputs": [],
      "name": "lotteryMaxNumber",
      "outputs": [
        {
          "internalType": "uint256",
          "name": "",
          "type": "uint256"
        }
      ],
      "stateMutability": "view",
      "type": "function"
    },
    {
      "inputs": [],
      "name": "lotteryMinNumber",
      "outputs": [
        {
          "internalType": "uint256",
          "name": "",
          "type": "uint256"
        }
      ],
      "stateMutability": "view",
      "type": "function"
    },
    {
      "inputs": [],
      "name": "lotteryReward",
      "outputs": [
        {
          "internalType": "uint256",
          "name": "",
          "type": "uint256"
        }
      ],
      "stateMutability": "view",
      "type": "function"
    },
    {
      "inputs": [],
      "name": "lotteryReward2nd",
      "outputs": [
        {
          "internalType": "uint256",
          "name": "",
          "type": "uint256"
        }
      ],
      "stateMutability": "view",
      "type": "function"
    },
    {
      "inputs": [
        {
          "internalType": "uint256",
          "name": "",
          "type": "uint256"
        }
      ],
      "name": "lotteryRoomActives",
      "outputs": [
        {
          "internalType": "uint256",
          "name": "",
          "type": "uint256"
        }
      ],
      "stateMutability": "view",
      "type": "function"
    },
    {
      "inputs": [],
      "name": "lotteryRoomActivesLength",
      "outputs": [
        {
          "internalType": "uint256",
          "name": "",
          "type": "uint256"
        }
      ],
      "stateMutability": "view",
      "type": "function"
    },
    {
      "inputs": [],
      "name": "lotteryRoomCapacity",
      "outputs": [
        {
          "internalType": "uint256",
          "name": "",
          "type": "uint256"
        }
      ],
      "stateMutability": "view",
      "type": "function"
    },
    {
      "inputs": [],
      "name": "owner",
      "outputs": [
        {
          "internalType": "address",
          "name": "",
          "type": "address"
        }
      ],
      "stateMutability": "view",
      "type": "function"
    },
    {
      "inputs": [
        {
          "internalType": "bytes32",
          "name": "role",
          "type": "bytes32"
        },
        {
          "internalType": "address",
          "name": "account",
          "type": "address"
        }
      ],
      "name": "renounceRole",
      "outputs": [],
      "stateMutability": "nonpayable",
      "type": "function"
    },
    {
      "inputs": [
        {
          "internalType": "bytes32",
          "name": "role",
          "type": "bytes32"
        },
        {
          "internalType": "address",
          "name": "account",
          "type": "address"
        }
      ],
      "name": "revokeRole",
      "outputs": [],
      "stateMutability": "nonpayable",
      "type": "function"
    },
    {
      "inputs": [
        {
          "internalType": "address",
          "name": "_tokenContract",
          "type": "address"
        },
        {
          "internalType": "address",
          "name": "_treasuryAccount",
          "type": "address"
        }
      ],
      "name": "setAccounts",
      "outputs": [],
      "stateMutability": "nonpayable",
      "type": "function"
    },
    {
      "inputs": [
        {
          "internalType": "uint256",
          "name": "_reward2nd",
          "type": "uint256"
        }
      ],
      "name": "setLottery2ndReward",
      "outputs": [],
      "stateMutability": "nonpayable",
      "type": "function"
    },
    {
      "inputs": [
        {
          "internalType": "uint256",
          "name": "_cost",
          "type": "uint256"
        }
      ],
      "name": "setLotteryCost",
      "outputs": [],
      "stateMutability": "nonpayable",
      "type": "function"
    },
    {
      "inputs": [
        {
          "internalType": "uint256",
          "name": "_min",
          "type": "uint256"
        },
        {
          "internalType": "uint256",
          "name": "_max",
          "type": "uint256"
        }
      ],
      "name": "setLotteryNumberRange",
      "outputs": [],
      "stateMutability": "nonpayable",
      "type": "function"
    },
    {
      "inputs": [
        {
          "internalType": "uint256",
          "name": "_reward",
          "type": "uint256"
        }
      ],
      "name": "setLotteryReward",
      "outputs": [],
      "stateMutability": "nonpayable",
      "type": "function"
    },
    {
      "inputs": [
        {
          "internalType": "uint256",
          "name": "_capacity",
          "type": "uint256"
        }
      ],
      "name": "setLotteryRoomCap",
      "outputs": [],
      "stateMutability": "nonpayable",
      "type": "function"
    },
    {
      "inputs": [
        {
          "internalType": "uint256",
          "name": "_id",
          "type": "uint256"
        },
        {
          "internalType": "uint256",
          "name": "_expiredTime",
          "type": "uint256"
        }
      ],
      "name": "startBuyingLottery",
      "outputs": [],
      "stateMutability": "nonpayable",
      "type": "function"
    },
    {
      "inputs": [
        {
          "internalType": "uint256",
          "name": "_id",
          "type": "uint256"
        }
      ],
      "name": "stopBuyingLottery",
      "outputs": [],
      "stateMutability": "nonpayable",
      "type": "function"
    },
    {
      "inputs": [
        {
          "internalType": "bytes4",
          "name": "interfaceId",
          "type": "bytes4"
        }
      ],
      "name": "supportsInterface",
      "outputs": [
        {
          "internalType": "bool",
          "name": "",
          "type": "bool"
        }
      ],
      "stateMutability": "view",
      "type": "function"
    },
    {
      "inputs": [],
      "name": "tokenContractAccount",
      "outputs": [
        {
          "internalType": "address",
          "name": "",
          "type": "address"
        }
      ],
      "stateMutability": "view",
      "type": "function"
    },
    {
      "inputs": [],
      "name": "treasuryAccount",
      "outputs": [
        {
          "internalType": "address",
          "name": "",
          "type": "address"
        }
      ],
      "stateMutability": "view",
      "type": "function"
    }
  ],
  "transactionHash": "0x9b7b7f0f729a3364c147e21c410f3c491ecf9359647f40ac4bd218631fc6fa6b",
  "args": [
    "0xC70Edf3aB36E0D57eFD8f412A3460D225931A110",
    [
      "0xC70Edf3aB36E0D57eFD8f412A3460D225931A110",
      "0x5572eAA48D9CF8Ae04C7813B5638349d641a7B91"
    ],
    "0xB3D23BfaBBD3e66be964944D802917113DC6C5C2",
    "0xC70Edf3aB36E0D57eFD8f412A3460D225931A110",
    "79347469215149117386331192193701713658373184647024207996340042615749121895951"
  ],
  "numDeployments": 2,
  "solcInputHash": "8ca357ea90c7083fd472e4b4517409da",
  "bytecode": "0x60a0604052670de0b6b3a76400006003819055600060045561270f6005556200002a90600a62000665565b6007556001600c556003546200004290600262000665565b600e553480156200005257600080fd5b5060405162002b7c38038062002b7c8339810160408190526200007591620006b2565b6001600160a01b0385166080526006819055848484848462000098838362000185565b620000b360008051602062002b3c83398151915286620002d2565b835160005b818110156200011357620000fe60008051602062002b3c833981519152878381518110620000ea57620000ea620007ca565b6020026020010151620002d260201b60201c565b806200010a81620007e0565b915050620000b8565b505050505050506200012f60006103e76200035a60201b60201c565b6200014368056bc75e2d631000006200042c565b6200015f60035461015e62000159919062000665565b620004a7565b6200017a600354603c62000174919062000665565b62000522565b50505050506200085e565b6080516001600160a01b0316336001600160a01b03161480620001be5750620001be60008051602062002b3c833981519152336200059d565b620001ff5760405162461bcd60e51b815260206004820152601f602482015260008051602062002b5c83398151915260448201526064015b60405180910390fd5b600180546001600160a01b038085166001600160a01b03199283168117909355600280549185169190921617905560408051808201909152601681527f546f6b656e20436f6e7472616374204163636f756e74000000000000000000006020808301919091526200027a929062001547620005c8821b17901c565b620002ce6040518060400160405280601081526020016f151c99585cdd5c9e481058d8dbdd5b9d60821b815250600260009054906101000a90046001600160a01b0316620005c860201b620015471760201c565b5050565b620002de82826200059d565b620002ce576000828152602081815260408083206001600160a01b03851684529091529020805460ff19166001179055620003163390565b6001600160a01b0316816001600160a01b0316837f2f8788117e7eff1d82e926ec794901d17c78024a50270940304540a733656f0d60405160405180910390a45050565b6080516001600160a01b0316336001600160a01b031614806200039357506200039360008051602062002b3c833981519152336200059d565b620003d05760405162461bcd60e51b815260206004820152601f602482015260008051602062002b5c8339815191526044820152606401620001f6565b808210620004215760405162461bcd60e51b815260206004820152601460248201527f496e76616c6964204e756d6265722052616e67650000000000000000000000006044820152606401620001f6565b600491909155600555565b6080516001600160a01b0316336001600160a01b031614806200046557506200046560008051602062002b3c833981519152336200059d565b620004a25760405162461bcd60e51b815260206004820152601f602482015260008051602062002b5c8339815191526044820152606401620001f6565b600355565b6080516001600160a01b0316336001600160a01b03161480620004e05750620004e060008051602062002b3c833981519152336200059d565b6200051d5760405162461bcd60e51b815260206004820152601f602482015260008051602062002b5c8339815191526044820152606401620001f6565b600755565b6080516001600160a01b0316336001600160a01b031614806200055b57506200055b60008051602062002b3c833981519152336200059d565b620005985760405162461bcd60e51b815260206004820152601f602482015260008051602062002b5c8339815191526044820152606401620001f6565b600e55565b6000828152602081815260408083206001600160a01b038516845290915290205460ff165b92915050565b620002ce8282604051602401620005e1929190620007fc565b60408051601f198184030181529190526020810180516001600160e01b0390811663319af33360e01b179091526200061516565b6200062b816200062e60201b6200158c1760201c565b50565b60006a636f6e736f6c652e6c6f679050600080835160208501845afa505050565b634e487b7160e01b600052601160045260246000fd5b8082028115828204841417620005c257620005c26200064f565b80516001600160a01b03811681146200069757600080fd5b919050565b634e487b7160e01b600052604160045260246000fd5b600080600080600060a08688031215620006cb57600080fd5b620006d6866200067f565b602087810151919650906001600160401b0380821115620006f657600080fd5b818901915089601f8301126200070b57600080fd5b8151818111156200072057620007206200069c565b8060051b604051601f19603f830116810181811085821117156200074857620007486200069c565b60405291825284820192508381018501918c8311156200076757600080fd5b938501935b82851015620007905762000780856200067f565b845293850193928501926200076c565b809950505050505050620007a7604087016200067f565b9250620007b7606087016200067f565b9150608086015190509295509295909350565b634e487b7160e01b600052603260045260246000fd5b600060018201620007f557620007f56200064f565b5060010190565b604081526000835180604084015260005b818110156200082c57602081870181015160608684010152016200080d565b50600060608285018101919091526001600160a01b03949094166020840152601f01601f191690910190910192915050565b60805161226e620008ce6000396000818161054d015281816106890152818161075f015281816108570152818161090e01528181610a7101528181610dc201528181610e2d01528181610f520152818161124301528181611303015281816113b50152611445015261226e6000f3fe608060405234801561001057600080fd5b506004361061025e5760003560e01c80637e33f57711610146578063af36dafb116100c3578063e75ff74f11610087578063e75ff74f146105df578063e8228d0a146105f2578063efca233614610605578063f37dd6ce14610618578063fccb8eb91461062b578063ff19cf1d1461063e57600080fd5b8063af36dafb1461058a578063b1c45b161461059d578063b613cb3d146105b0578063d11260d2146105b9578063d547741f146105cc57600080fd5b806388578d441161010a57806388578d441461052c578063893428091461053f5780638da5cb5b1461054857806391d148541461056f578063a217fddf1461058257600080fd5b80637e33f577146104d75780637fdd98f2146104ea57806380170087146104fd57806382e7a9761461050657806384f518691461051957600080fd5b8063339b2cff116101df5780634867b991116101a35780634867b991146104055780634e4623be1461041857806352ba5a541461042b578063641668141461043e5780636581f7291461044757806375b238fc146104c257600080fd5b8063339b2cff1461035a57806336568abe1461038557806338129153146103985780633d725d68146103ea57806343e02605146103f257600080fd5b8063248a9ca311610226578063248a9ca3146102f55780632f2ff15d1461031857806330d0bd551461032b578063313c588214610334578063339a64031461034757600080fd5b806301ffc9a7146102635780630d660ead1461028b57806319f4a421146102c45780631f7a3508146102cd57806323b62aa3146102e2575b600080fd5b610276610271366004611dac565b610647565b60405190151581526020015b60405180910390f35b6102b6610299366004611dd6565b6000908152600b6020908152604080832033845290915290205490565b604051908152602001610282565b6102b660085481565b6102e06102db366004611dd6565b61067e565b005b6102e06102f0366004611dd6565b610754565b6102b6610303366004611dd6565b60009081526020819052604090206001015490565b6102e0610326366004611e06565b610822565b6102b660035481565b6102e0610342366004611e32565b61084c565b6102e0610355366004611dd6565b610903565b60025461036d906001600160a01b031681565b6040516001600160a01b039091168152602001610282565b6102e0610393366004611e06565b6109e8565b6103d96103a6366004611dd6565b6009602052600090815260409020805460018201546002830154600384015460049094015460ff90931693919290919085565b604051610282959493929190611e6a565b600d546102b6565b6102e0610400366004611ead565b610a66565b6102e0610413366004611e32565b610b6d565b6102e0610426366004611dd6565b610db7565b6102e0610439366004611dd6565b610e22565b6102b6600c5481565b610496610455366004611e32565b600a60209081526000928352604080842090915290825290208054600182015460029092015460ff808316936101009093046001600160a01b031692911684565b6040805194151585526001600160a01b0390931660208501529183015215156060820152608001610282565b6102b660008051602061221983398151915281565b6102766104e5366004611dd6565b610f0d565b6102e06104f8366004611dd6565b610f47565b6102b660075481565b610276610514366004611dd6565b610fb2565b6102e0610527366004611e32565b610fca565b6102b661053a366004611e32565b611195565b6102b660045481565b61036d7f000000000000000000000000000000000000000000000000000000000000000081565b61027661057d366004611e06565b61120f565b6102b6600081565b6102e0610598366004611e32565b611238565b6102e06105ab366004611e32565b6112f8565b6102b6600e5481565b6102e06105c7366004611dd6565b6113aa565b6102e06105da366004611e06565b611415565b6102e06105ed366004611dd6565b61143a565b6102b6610600366004611e32565b6114a5565b60015461036d906001600160a01b031681565b6102b6610626366004611dd6565b6114e8565b6102b6610639366004611ed7565b611509565b6102b660055481565b60006001600160e01b03198216637965db0b60e01b148061067857506301ffc9a760e01b6001600160e01b03198316145b92915050565b336001600160a01b037f00000000000000000000000000000000000000000000000000000000000000001614806106c857506106c86000805160206122198339815191523361120f565b6106ed5760405162461bcd60e51b81526004016106e490611f0c565b60405180910390fd5b600260008281526009602052604090205460ff16600481111561071257610712611e54565b1461072f5760405162461bcd60e51b81526004016106e490611f43565b6000818152600960205260409020805460ff19166003179055610751816115ad565b50565b336001600160a01b037f000000000000000000000000000000000000000000000000000000000000000016148061079e575061079e6000805160206122198339815191523361120f565b6107ba5760405162461bcd60e51b81526004016106e490611f0c565b60008181526009602052604081205460ff1660048111156107dd576107dd611e54565b146107fa5760405162461bcd60e51b81526004016106e490611f43565b6000818152600960205260409020805460ff1916600117905560085481111561075157600855565b60008281526020819052604090206001015461083d81611687565b6108478383611691565b505050565b336001600160a01b037f000000000000000000000000000000000000000000000000000000000000000016148061089657506108966000805160206122198339815191523361120f565b6108b25760405162461bcd60e51b81526004016106e490611f0c565b8082106108f85760405162461bcd60e51b8152602060048201526014602482015273496e76616c6964204e756d6265722052616e676560601b60448201526064016106e4565b600491909155600555565b336001600160a01b037f000000000000000000000000000000000000000000000000000000000000000016148061094d575061094d6000805160206122198339815191523361120f565b6109695760405162461bcd60e51b81526004016106e490611f0c565b600360008281526009602052604090205460ff16600481111561098e5761098e611e54565b146109ab5760405162461bcd60e51b81526004016106e490611f43565b6000818152600960205260409020805460ff19166004178155426002909101556109d3611715565b60009182526009602052604090912060030155565b6001600160a01b0381163314610a585760405162461bcd60e51b815260206004820152602f60248201527f416363657373436f6e74726f6c3a2063616e206f6e6c792072656e6f756e636560448201526e103937b632b9903337b91039b2b63360891b60648201526084016106e4565b610a6282826117b3565b5050565b336001600160a01b037f0000000000000000000000000000000000000000000000000000000000000000161480610ab05750610ab06000805160206122198339815191523361120f565b610acc5760405162461bcd60e51b81526004016106e490611f0c565b600180546001600160a01b038085166001600160a01b031992831681179093556002805491851691909216179055604080518082019091526016815275151bdad95b8810dbdb9d1c9858dd081058d8dbdd5b9d60521b6020820152610b3091611547565b60408051808201909152601081526f151c99585cdd5c9e481058d8dbdd5b9d60821b6020820152600254610a6291906001600160a01b0316611547565b600460008381526009602052604090205460ff166004811115610b9257610b92611e54565b14610baf5760405162461bcd60e51b81526004016106e490611f43565b610bb881610fb2565b610bd45760405162461bcd60e51b81526004016106e490611f72565b6000828152600a6020908152604080832084845290915290205460ff16610c315760405162461bcd60e51b8152602060048201526011602482015270131bdd1d195c9e481b9bdd081bdddb9959607a1b60448201526064016106e4565b6000828152600a6020908152604080832084845290915290205461010090046001600160a01b03163314610c9a5760405162461bcd60e51b815260206004820152601060248201526f4e6f7420796f7572206c6f747465727960801b60448201526064016106e4565b6000828152600a6020908152604080832084845290915290206002015460ff1615610cf95760405162461bcd60e51b815260206004820152600f60248201526e105b1c9958591e4818db185a5b5959608a1b60448201526064016106e4565b6000828152600a602090815260408083208484529091528120600201805460ff19166001179055610d2a8383611195565b90508015610847576001546002546040516323b872dd60e01b81526001600160a01b039182166004820152336024820152604481018490529116906323b872dd906064016020604051808303816000875af1158015610d8d573d6000803e3d6000fd5b505050506040513d601f19601f82011682018060405250810190610db19190611f9a565b50505050565b336001600160a01b037f0000000000000000000000000000000000000000000000000000000000000000161480610e015750610e016000805160206122198339815191523361120f565b610e1d5760405162461bcd60e51b81526004016106e490611f0c565b600c55565b336001600160a01b037f0000000000000000000000000000000000000000000000000000000000000000161480610e6c5750610e6c6000805160206122198339815191523361120f565b610e885760405162461bcd60e51b81526004016106e490611f0c565b600260008281526009602052604090205460ff166004811115610ead57610ead611e54565b14610eca5760405162461bcd60e51b81526004016106e490611f43565b6000818152600960205260409020805460ff1916600417815542600290910155610ef2611715565b600082815260096020526040902060030155610751816115ad565b6000600454600554610f1f9190611fd2565b610f2a906001611fe5565b600092835260096020526040909220600401549190911015919050565b336001600160a01b037f0000000000000000000000000000000000000000000000000000000000000000161480610f915750610f916000805160206122198339815191523361120f565b610fad5760405162461bcd60e51b81526004016106e490611f0c565b600755565b60006004548210158015610678575050600554101590565b600260008381526009602052604090205460ff166004811115610fef57610fef611e54565b1461100c5760405162461bcd60e51b81526004016106e490611f43565b61101581610fb2565b6110315760405162461bcd60e51b81526004016106e490611f72565b6000828152600a6020908152604080832084845290915290205460ff161561108b5760405162461bcd60e51b815260206004820152600d60248201526c131bdd1d195c9e481bdddb9959609a1b60448201526064016106e4565b60008281526009602052604081206004018054916110a883611ff8565b90915550506000828152600a60209081526040808320848452825280832080543361010081026001600160a81b031990921691909117600190811783554292810192909255868552600b845282852081865284528285208054808401825590865293909420909201849055905460025460035492516323b872dd60e01b815260048101949094526001600160a01b039081166024850152604484019290925216906323b872dd906064016020604051808303816000875af1158015611171573d6000803e3d6000fd5b505050506040513d601f19601f820116820180604052508101906108479190611f9a565b6000600460008481526009602052604090205460ff1660048111156111bc576111bc611e54565b146111d95760405162461bcd60e51b81526004016106e490611f43565b6111e282610fb2565b6111fe5760405162461bcd60e51b81526004016106e490611f72565b61120883836114a5565b9392505050565b6000918252602082815260408084206001600160a01b0393909316845291905290205460ff1690565b336001600160a01b037f000000000000000000000000000000000000000000000000000000000000000016148061128257506112826000805160206122198339815191523361120f565b61129e5760405162461bcd60e51b81526004016106e490611f0c565b60008281526009602052604081205460ff1660048111156112c1576112c1611e54565b146112de5760405162461bcd60e51b81526004016106e490611f43565b6112e88282611818565b600854821115610a625750600855565b336001600160a01b037f000000000000000000000000000000000000000000000000000000000000000016148061134257506113426000805160206122198339815191523361120f565b61135e5760405162461bcd60e51b81526004016106e490611f0c565b600160008381526009602052604090205460ff16600481111561138357611383611e54565b146113a05760405162461bcd60e51b81526004016106e490611f43565b610a628282611818565b336001600160a01b037f00000000000000000000000000000000000000000000000000000000000000001614806113f457506113f46000805160206122198339815191523361120f565b6114105760405162461bcd60e51b81526004016106e490611f0c565b600e55565b60008281526020819052604090206001015461143081611687565b61084783836117b3565b336001600160a01b037f000000000000000000000000000000000000000000000000000000000000000016148061148457506114846000805160206122198339815191523361120f565b6114a05760405162461bcd60e51b81526004016106e490611f0c565b600355565b6000828152600960205260408120600301548290036114c75750600754610678565b6114d183836118c0565b156114df5750600e54610678565b50600092915050565b600d81815481106114f857600080fd5b600091825260209091200154905081565b600b602052826000526040600020602052816000526040600020818154811061153157600080fd5b9060005260206000200160009250925050505481565b610a62828260405160240161155d929190612061565b60408051601f198184030181529190526020810180516001600160e01b031663319af33360e01b1790526119d6565b60006a636f6e736f6c652e6c6f679050600080835160208501845afa505050565b600d546000805b6115bf600184611fd2565b81101561165a57811580156115f0575083600d82815481106115e3576115e361208b565b9060005260206000200154145b156115fa57600191505b811561164857600d61160d826001611fe5565b8154811061161d5761161d61208b565b9060005260206000200154600d828154811061163b5761163b61208b565b6000918252602090912001555b8061165281611ff8565b9150506115b4565b50600d80548061166c5761166c6120a1565b60019003818190600052602060002001600090559055505050565b61075181336119df565b61169b828261120f565b610a62576000828152602081815260408083206001600160a01b03851684529091529020805460ff191660011790556116d13390565b6001600160a01b0316816001600160a01b0316837f2f8788117e7eff1d82e926ec794901d17c78024a50270940304540a733656f0d60405160405180910390a45050565b600042600654604051602001611735929190918252602082015260400190565b60408051601f19818403018152919052805160209091012060065560045460055460009161176291611fd2565b60065461176f91906120cd565b60045461177c9190611fe5565b90506117ae6040518060400160405280600e81526020016d20b1ba3ab0b610273ab6b132b91d60911b81525082611a38565b919050565b6117bd828261120f565b15610a62576000828152602081815260408083206001600160a01b0385168085529252808320805460ff1916905551339285917ff6391f5c32d9c69d2a47ea670b442974b53935d1edc7fd64eb21e047a839171b9190a45050565b6000828152600960205260409020805460ff19166002178155600101819055600c54600d541061188a5760405162461bcd60e51b815260206004820152601b60248201527f5265616368206d6178696d756d20726f6f6d206361706163697479000000000060448201526064016106e4565b50600d80546001810182556000919091527fd7b6990105719101dabeb77144f2a3385c8033acd3af97e9423a695e81ad1eb50155565b6000806118cc83611a7d565b600085815260096020526040812060030154919250906118eb90611a7d565b905060005b600a8160ff1610156119ca5761192b6040518060400160405280600a815260200169686973746f726772616d60b01b8152508260ff16611a38565b61196d838260ff16600a81106119435761194361208b565b602002015160ff16838360ff16600a81106119605761196061208b565b602002015160ff16611b8e565b818160ff16600a81106119825761198261208b565b602002015160ff16838260ff16600a811061199f5761199f61208b565b602002015160ff16146119b85760009350505050610678565b806119c2816120e1565b9150506118f0565b50600195945050505050565b6107518161158c565b6119e9828261120f565b610a62576119f681611bd5565b611a01836020611be7565b604051602001611a12929190612100565b60408051601f198184030181529082905262461bcd60e51b82526106e491600401612175565b610a628282604051602401611a4e929190612188565b60408051601f198184030181529190526020810180516001600160e01b0316632d839cb360e21b1790526119d6565b611a85611d8d565b6040805161014081018252600080825260208201819052918101829052606081018290526080810182905260a0810182905260c0810182905260e081018290526101008101829052610120810182905290611ae1600a856120cd565b90506000600a611af181876121aa565b611afb91906120cd565b90506000611b0a6064876121aa565b90508381600a8110611b1e57611b1e61208b565b60200201805190611b2e826120e1565b60ff169052508382600a8110611b4657611b4661208b565b60200201805190611b56826120e1565b60ff169052508383600a8110611b6e57611b6e61208b565b60200201805190611b7e826120e1565b60ff169052509295945050505050565b6040516024810183905260448101829052610a629060640160408051601f198184030181529190526020810180516001600160e01b0316637b3338ad60e11b1790526119d6565b60606106786001600160a01b03831660145b60606000611bf68360026121be565b611c01906002611fe5565b67ffffffffffffffff811115611c1957611c196121d5565b6040519080825280601f01601f191660200182016040528015611c43576020820181803683370190505b509050600360fc1b81600081518110611c5e57611c5e61208b565b60200101906001600160f81b031916908160001a905350600f60fb1b81600181518110611c8d57611c8d61208b565b60200101906001600160f81b031916908160001a9053506000611cb18460026121be565b611cbc906001611fe5565b90505b6001811115611d34576f181899199a1a9b1b9c1cb0b131b232b360811b85600f1660108110611cf057611cf061208b565b1a60f81b828281518110611d0657611d0661208b565b60200101906001600160f81b031916908160001a90535060049490941c93611d2d816121eb565b9050611cbf565b5083156112085760405162461bcd60e51b815260206004820181905260248201527f537472696e67733a20686578206c656e67746820696e73756666696369656e7460448201526064016106e4565b611d8b612202565b565b604051806101400160405280600a906020820280368337509192915050565b600060208284031215611dbe57600080fd5b81356001600160e01b03198116811461120857600080fd5b600060208284031215611de857600080fd5b5035919050565b80356001600160a01b03811681146117ae57600080fd5b60008060408385031215611e1957600080fd5b82359150611e2960208401611def565b90509250929050565b60008060408385031215611e4557600080fd5b50508035926020909101359150565b634e487b7160e01b600052602160045260246000fd5b60a0810160058710611e8c57634e487b7160e01b600052602160045260246000fd5b95815260208101949094526040840192909252606083015260809091015290565b60008060408385031215611ec057600080fd5b611ec983611def565b9150611e2960208401611def565b600080600060608486031215611eec57600080fd5b83359250611efc60208501611def565b9150604084013590509250925092565b6020808252601f908201527f43616c6c6572206973206e6f7420616e2061646d696e206f72206f776e657200604082015260600190565b602080825260159082015274496e76616c6964206c6f747465727920737461746560581b604082015260600190565b6020808252600e908201526d24b73b30b634b210373ab6b132b960911b604082015260600190565b600060208284031215611fac57600080fd5b8151801515811461120857600080fd5b634e487b7160e01b600052601160045260246000fd5b8181038181111561067857610678611fbc565b8082018082111561067857610678611fbc565b60006001820161200a5761200a611fbc565b5060010190565b60005b8381101561202c578181015183820152602001612014565b50506000910152565b6000815180845261204d816020860160208601612011565b601f01601f19169290920160200192915050565b6040815260006120746040830185612035565b905060018060a01b03831660208301529392505050565b634e487b7160e01b600052603260045260246000fd5b634e487b7160e01b600052603160045260246000fd5b634e487b7160e01b600052601260045260246000fd5b6000826120dc576120dc6120b7565b500690565b600060ff821660ff81036120f7576120f7611fbc565b60010192915050565b7f416363657373436f6e74726f6c3a206163636f756e7420000000000000000000815260008351612138816017850160208801612011565b7001034b99036b4b9b9b4b733903937b6329607d1b6017918401918201528351612169816028840160208801612011565b01602801949350505050565b6020815260006112086020830184612035565b60408152600061219b6040830185612035565b90508260208301529392505050565b6000826121b9576121b96120b7565b500490565b808202811582820484141761067857610678611fbc565b634e487b7160e01b600052604160045260246000fd5b6000816121fa576121fa611fbc565b506000190190565b634e487b7160e01b600052605160045260246000fdfea49807205ce4d355092ef5a8a18f56e8913cf4a201fbe287825b095693c21775a26469706673582212204bfc6a735e7ea1ea3cbc0a7e3b8a1d82e89a167c10e84016ad047d42a2d5808b64736f6c63430008110033a49807205ce4d355092ef5a8a18f56e8913cf4a201fbe287825b095693c2177543616c6c6572206973206e6f7420616e2061646d696e206f72206f776e657200",
  "devdoc": {
    "kind": "dev",
    "methods": {
      "getRoleAdmin(bytes32)": {
        "details": "Returns the admin role that controls `role`. See {grantRole} and {revokeRole}. To change a role's admin, use {_setRoleAdmin}."
      },
      "grantRole(bytes32,address)": {
        "details": "Grants `role` to `account`. If `account` had not been already granted `role`, emits a {RoleGranted} event. Requirements: - the caller must have ``role``'s admin role. May emit a {RoleGranted} event."
      },
      "hasRole(bytes32,address)": {
        "details": "Returns `true` if `account` has been granted `role`."
      },
      "renounceRole(bytes32,address)": {
        "details": "Revokes `role` from the calling account. Roles are often managed via {grantRole} and {revokeRole}: this function's purpose is to provide a mechanism for accounts to lose their privileges if they are compromised (such as when a trusted device is misplaced). If the calling account had been revoked `role`, emits a {RoleRevoked} event. Requirements: - the caller must be `account`. May emit a {RoleRevoked} event."
      },
      "revokeRole(bytes32,address)": {
        "details": "Revokes `role` from `account`. If `account` had been granted `role`, emits a {RoleRevoked} event. Requirements: - the caller must have ``role``'s admin role. May emit a {RoleRevoked} event."
      },
      "supportsInterface(bytes4)": {
        "details": "See {IERC165-supportsInterface}."
      }
    },
    "version": 1
  },
  "userdoc": {
    "kind": "user",
    "methods": {
      "fastStartLottery(uint256,uint256)": {
        "notice": "Fast Method"
      },
      "isLotteryRoomFull(uint256)": {
        "notice": "Misc"
      },
      "lotteryBuyCount(uint256)": {
        "notice": "Buyer Section"
      },
      "setAccounts(address,address)": {
        "notice": "Admin Setter Section"
      },
      "setLottery2ndReward(uint256)": {
        "notice": "Prize 1st => exact 2nd => total symbol match"
      },
      "setLotteryNumberRange(uint256,uint256)": {
        "notice": "Lottery Number Section"
      }
    },
    "notice": "Itim Lottery 3 Digits Author: chan1sook Revision: 2 Last Updated: 2024-05-21 13:00",
    "version": 1
  },
  "storageLayout": {
    "storage": [
      {
        "astId": 24,
        "contract": "contracts/ItimLottery3Digits.sol:ItimLottery3Digits",
        "label": "_roles",
        "offset": 0,
        "slot": "0",
        "type": "t_mapping(t_bytes32,t_struct(RoleData)19_storage)"
      },
      {
        "astId": 3062,
        "contract": "contracts/ItimLottery3Digits.sol:ItimLottery3Digits",
        "label": "tokenContractAccount",
        "offset": 0,
        "slot": "1",
        "type": "t_address"
      },
      {
        "astId": 3064,
        "contract": "contracts/ItimLottery3Digits.sol:ItimLottery3Digits",
        "label": "treasuryAccount",
        "offset": 0,
        "slot": "2",
        "type": "t_address"
      },
      {
        "astId": 3067,
        "contract": "contracts/ItimLottery3Digits.sol:ItimLottery3Digits",
        "label": "lotteryCost",
        "offset": 0,
        "slot": "3",
        "type": "t_uint256"
      },
      {
        "astId": 3070,
        "contract": "contracts/ItimLottery3Digits.sol:ItimLottery3Digits",
        "label": "lotteryMinNumber",
        "offset": 0,
        "slot": "4",
        "type": "t_uint256"
      },
      {
        "astId": 3073,
        "contract": "contracts/ItimLottery3Digits.sol:ItimLottery3Digits",
        "label": "lotteryMaxNumber",
        "offset": 0,
        "slot": "5",
        "type": "t_uint256"
      },
      {
        "astId": 3075,
        "contract": "contracts/ItimLottery3Digits.sol:ItimLottery3Digits",
        "label": "randomSeed",
        "offset": 0,
        "slot": "6",
        "type": "t_uint256"
      },
      {
        "astId": 3080,
        "contract": "contracts/ItimLottery3Digits.sol:ItimLottery3Digits",
        "label": "lotteryReward",
        "offset": 0,
        "slot": "7",
        "type": "t_uint256"
      },
      {
        "astId": 3100,
        "contract": "contracts/ItimLottery3Digits.sol:ItimLottery3Digits",
        "label": "lastestLotteryId",
        "offset": 0,
        "slot": "8",
        "type": "t_uint256"
      },
      {
        "astId": 3105,
        "contract": "contracts/ItimLottery3Digits.sol:ItimLottery3Digits",
        "label": "lotteryData",
        "offset": 0,
        "slot": "9",
        "type": "t_mapping(t_uint256,t_struct(ItimLotteryData)3098_storage)"
      },
      {
        "astId": 3121,
        "contract": "contracts/ItimLottery3Digits.sol:ItimLottery3Digits",
        "label": "lotteryBuyData",
        "offset": 0,
        "slot": "10",
        "type": "t_mapping(t_uint256,t_mapping(t_uint256,t_struct(ItimLotteryBuyData)3114_storage))"
      },
      {
        "astId": 3128,
        "contract": "contracts/ItimLottery3Digits.sol:ItimLottery3Digits",
        "label": "lotteryBuyerData",
        "offset": 0,
        "slot": "11",
        "type": "t_mapping(t_uint256,t_mapping(t_address,t_array(t_uint256)dyn_storage))"
      },
      {
        "astId": 3131,
        "contract": "contracts/ItimLottery3Digits.sol:ItimLottery3Digits",
        "label": "lotteryRoomCapacity",
        "offset": 0,
        "slot": "12",
        "type": "t_uint256"
      },
      {
        "astId": 3134,
        "contract": "contracts/ItimLottery3Digits.sol:ItimLottery3Digits",
        "label": "lotteryRoomActives",
        "offset": 0,
        "slot": "13",
        "type": "t_array(t_uint256)dyn_storage"
      },
      {
        "astId": 2456,
        "contract": "contracts/ItimLottery3Digits.sol:ItimLottery3Digits",
        "label": "lotteryReward2nd",
        "offset": 0,
        "slot": "14",
        "type": "t_uint256"
      }
    ],
    "types": {
      "t_address": {
        "encoding": "inplace",
        "label": "address",
        "numberOfBytes": "20"
      },
      "t_array(t_uint256)dyn_storage": {
        "base": "t_uint256",
        "encoding": "dynamic_array",
        "label": "uint256[]",
        "numberOfBytes": "32"
      },
      "t_bool": {
        "encoding": "inplace",
        "label": "bool",
        "numberOfBytes": "1"
      },
      "t_bytes32": {
        "encoding": "inplace",
        "label": "bytes32",
        "numberOfBytes": "32"
      },
      "t_enum(ItimLotteryState)3086": {
        "encoding": "inplace",
        "label": "enum ItimLotteryBase.ItimLotteryState",
        "numberOfBytes": "1"
      },
      "t_mapping(t_address,t_array(t_uint256)dyn_storage)": {
        "encoding": "mapping",
        "key": "t_address",
        "label": "mapping(address => uint256[])",
        "numberOfBytes": "32",
        "value": "t_array(t_uint256)dyn_storage"
      },
      "t_mapping(t_address,t_bool)": {
        "encoding": "mapping",
        "key": "t_address",
        "label": "mapping(address => bool)",
        "numberOfBytes": "32",
        "value": "t_bool"
      },
      "t_mapping(t_bytes32,t_struct(RoleData)19_storage)": {
        "encoding": "mapping",
        "key": "t_bytes32",
        "label": "mapping(bytes32 => struct AccessControl.RoleData)",
        "numberOfBytes": "32",
        "value": "t_struct(RoleData)19_storage"
      },
      "t_mapping(t_uint256,t_mapping(t_address,t_array(t_uint256)dyn_storage))": {
        "encoding": "mapping",
        "key": "t_uint256",
        "label": "mapping(uint256 => mapping(address => uint256[]))",
        "numberOfBytes": "32",
        "value": "t_mapping(t_address,t_array(t_uint256)dyn_storage)"
      },
      "t_mapping(t_uint256,t_mapping(t_uint256,t_struct(ItimLotteryBuyData)3114_storage))": {
        "encoding": "mapping",
        "key": "t_uint256",
        "label": "mapping(uint256 => mapping(uint256 => struct ItimLotteryBase.ItimLotteryBuyData))",
        "numberOfBytes": "32",
        "value": "t_mapping(t_uint256,t_struct(ItimLotteryBuyData)3114_storage)"
      },
      "t_mapping(t_uint256,t_struct(ItimLotteryBuyData)3114_storage)": {
        "encoding": "mapping",
        "key": "t_uint256",
        "label": "mapping(uint256 => struct ItimLotteryBase.ItimLotteryBuyData)",
        "numberOfBytes": "32",
        "value": "t_struct(ItimLotteryBuyData)3114_storage"
      },
      "t_mapping(t_uint256,t_struct(ItimLotteryData)3098_storage)": {
        "encoding": "mapping",
        "key": "t_uint256",
        "label": "mapping(uint256 => struct ItimLotteryBase.ItimLotteryData)",
        "numberOfBytes": "32",
        "value": "t_struct(ItimLotteryData)3098_storage"
      },
      "t_struct(ItimLotteryBuyData)3114_storage": {
        "encoding": "inplace",
        "label": "struct ItimLotteryBase.ItimLotteryBuyData",
        "members": [
          {
            "astId": 3107,
            "contract": "contracts/ItimLottery3Digits.sol:ItimLottery3Digits",
            "label": "owned",
            "offset": 0,
            "slot": "0",
            "type": "t_bool"
          },
          {
            "astId": 3109,
            "contract": "contracts/ItimLottery3Digits.sol:ItimLottery3Digits",
            "label": "buyer",
            "offset": 1,
            "slot": "0",
            "type": "t_address"
          },
          {
            "astId": 3111,
            "contract": "contracts/ItimLottery3Digits.sol:ItimLottery3Digits",
            "label": "buyTime",
            "offset": 0,
            "slot": "1",
            "type": "t_uint256"
          },
          {
            "astId": 3113,
            "contract": "contracts/ItimLottery3Digits.sol:ItimLottery3Digits",
            "label": "claimed",
            "offset": 0,
            "slot": "2",
            "type": "t_bool"
          }
        ],
        "numberOfBytes": "96"
      },
      "t_struct(ItimLotteryData)3098_storage": {
        "encoding": "inplace",
        "label": "struct ItimLotteryBase.ItimLotteryData",
        "members": [
          {
            "astId": 3089,
            "contract": "contracts/ItimLottery3Digits.sol:ItimLottery3Digits",
            "label": "state",
            "offset": 0,
            "slot": "0",
            "type": "t_enum(ItimLotteryState)3086"
          },
          {
            "astId": 3091,
            "contract": "contracts/ItimLottery3Digits.sol:ItimLottery3Digits",
            "label": "expiredTime",
            "offset": 0,
            "slot": "1",
            "type": "t_uint256"
          },
          {
            "astId": 3093,
            "contract": "contracts/ItimLottery3Digits.sol:ItimLottery3Digits",
            "label": "drawTime",
            "offset": 0,
            "slot": "2",
            "type": "t_uint256"
          },
          {
            "astId": 3095,
            "contract": "contracts/ItimLottery3Digits.sol:ItimLottery3Digits",
            "label": "drawNumber",
            "offset": 0,
            "slot": "3",
            "type": "t_uint256"
          },
          {
            "astId": 3097,
            "contract": "contracts/ItimLottery3Digits.sol:ItimLottery3Digits",
            "label": "buyCount",
            "offset": 0,
            "slot": "4",
            "type": "t_uint256"
          }
        ],
        "numberOfBytes": "160"
      },
      "t_struct(RoleData)19_storage": {
        "encoding": "inplace",
        "label": "struct AccessControl.RoleData",
        "members": [
          {
            "astId": 16,
            "contract": "contracts/ItimLottery3Digits.sol:ItimLottery3Digits",
            "label": "members",
            "offset": 0,
            "slot": "0",
            "type": "t_mapping(t_address,t_bool)"
          },
          {
            "astId": 18,
            "contract": "contracts/ItimLottery3Digits.sol:ItimLottery3Digits",
            "label": "adminRole",
            "offset": 0,
            "slot": "1",
            "type": "t_bytes32"
          }
        ],
        "numberOfBytes": "64"
      },
      "t_uint256": {
        "encoding": "inplace",
        "label": "uint256",
        "numberOfBytes": "32"
      }
    }
  }
}