{
  "address": "0x48656A41c68d6C1F99E59C90588237c16ed020E8",
  "abi": [
    {
      "inputs": [
        {
          "internalType": "address",
          "name": "_owner",
          "type": "address"
        },
        {
          "internalType": "address[]",
          "name": "_admins",
          "type": "address[]"
        },
        {
          "internalType": "address",
          "name": "_tokenContractAccount",
          "type": "address"
        },
        {
          "internalType": "address",
          "name": "_treasuryAccount",
          "type": "address"
        },
        {
          "internalType": "uint256",
          "name": "_randomSeed",
          "type": "uint256"
        }
      ],
      "stateMutability": "nonpayable",
      "type": "constructor"
    },
    {
      "anonymous": false,
      "inputs": [
        {
          "indexed": true,
          "internalType": "bytes32",
          "name": "role",
          "type": "bytes32"
        },
        {
          "indexed": true,
          "internalType": "bytes32",
          "name": "previousAdminRole",
          "type": "bytes32"
        },
        {
          "indexed": true,
          "internalType": "bytes32",
          "name": "newAdminRole",
          "type": "bytes32"
        }
      ],
      "name": "RoleAdminChanged",
      "type": "event"
    },
    {
      "anonymous": false,
      "inputs": [
        {
          "indexed": true,
          "internalType": "bytes32",
          "name": "role",
          "type": "bytes32"
        },
        {
          "indexed": true,
          "internalType": "address",
          "name": "account",
          "type": "address"
        },
        {
          "indexed": true,
          "internalType": "address",
          "name": "sender",
          "type": "address"
        }
      ],
      "name": "RoleGranted",
      "type": "event"
    },
    {
      "anonymous": false,
      "inputs": [
        {
          "indexed": true,
          "internalType": "bytes32",
          "name": "role",
          "type": "bytes32"
        },
        {
          "indexed": true,
          "internalType": "address",
          "name": "account",
          "type": "address"
        },
        {
          "indexed": true,
          "internalType": "address",
          "name": "sender",
          "type": "address"
        }
      ],
      "name": "RoleRevoked",
      "type": "event"
    },
    {
      "inputs": [],
      "name": "ADMIN_ROLE",
      "outputs": [
        {
          "internalType": "bytes32",
          "name": "",
          "type": "bytes32"
        }
      ],
      "stateMutability": "view",
      "type": "function"
    },
    {
      "inputs": [],
      "name": "DEFAULT_ADMIN_ROLE",
      "outputs": [
        {
          "internalType": "bytes32",
          "name": "",
          "type": "bytes32"
        }
      ],
      "stateMutability": "view",
      "type": "function"
    },
    {
      "inputs": [
        {
          "internalType": "uint256",
          "name": "_id",
          "type": "uint256"
        },
        {
          "internalType": "uint256",
          "name": "_number",
          "type": "uint256"
        }
      ],
      "name": "_calculateRewardOfLotteryNumber",
      "outputs": [
        {
          "internalType": "uint256",
          "name": "",
          "type": "uint256"
        }
      ],
      "stateMutability": "view",
      "type": "function"
    },
    {
      "inputs": [
        {
          "internalType": "uint256",
          "name": "_id",
          "type": "uint256"
        },
        {
          "internalType": "uint256",
          "name": "_number",
          "type": "uint256"
        }
      ],
      "name": "buyLottery",
      "outputs": [],
      "stateMutability": "nonpayable",
      "type": "function"
    },
    {
      "inputs": [
        {
          "internalType": "uint256",
          "name": "_id",
          "type": "uint256"
        },
        {
          "internalType": "uint256",
          "name": "_number",
          "type": "uint256"
        }
      ],
      "name": "claimLottery",
      "outputs": [],
      "stateMutability": "nonpayable",
      "type": "function"
    },
    {
      "inputs": [
        {
          "internalType": "uint256",
          "name": "_id",
          "type": "uint256"
        }
      ],
      "name": "declareLottery",
      "outputs": [],
      "stateMutability": "nonpayable",
      "type": "function"
    },
    {
      "inputs": [
        {
          "internalType": "uint256",
          "name": "_id",
          "type": "uint256"
        }
      ],
      "name": "drawRandomNumber",
      "outputs": [],
      "stateMutability": "nonpayable",
      "type": "function"
    },
    {
      "inputs": [
        {
          "internalType": "uint256",
          "name": "_id",
          "type": "uint256"
        },
        {
          "internalType": "uint256",
          "name": "_expiredTime",
          "type": "uint256"
        }
      ],
      "name": "fastStartLottery",
      "outputs": [],
      "stateMutability": "nonpayable",
      "type": "function"
    },
    {
      "inputs": [
        {
          "internalType": "uint256",
          "name": "_id",
          "type": "uint256"
        }
      ],
      "name": "fastStopLottery",
      "outputs": [],
      "stateMutability": "nonpayable",
      "type": "function"
    },
    {
      "inputs": [
        {
          "internalType": "uint256",
          "name": "_id",
          "type": "uint256"
        },
        {
          "internalType": "uint256",
          "name": "_number",
          "type": "uint256"
        }
      ],
      "name": "getRewardOfLottery",
      "outputs": [
        {
          "internalType": "uint256",
          "name": "",
          "type": "uint256"
        }
      ],
      "stateMutability": "view",
      "type": "function"
    },
    {
      "inputs": [
        {
          "internalType": "bytes32",
          "name": "role",
          "type": "bytes32"
        }
      ],
      "name": "getRoleAdmin",
      "outputs": [
        {
          "internalType": "bytes32",
          "name": "",
          "type": "bytes32"
        }
      ],
      "stateMutability": "view",
      "type": "function"
    },
    {
      "inputs": [
        {
          "internalType": "bytes32",
          "name": "role",
          "type": "bytes32"
        },
        {
          "internalType": "address",
          "name": "account",
          "type": "address"
        }
      ],
      "name": "grantRole",
      "outputs": [],
      "stateMutability": "nonpayable",
      "type": "function"
    },
    {
      "inputs": [
        {
          "internalType": "bytes32",
          "name": "role",
          "type": "bytes32"
        },
        {
          "internalType": "address",
          "name": "account",
          "type": "address"
        }
      ],
      "name": "hasRole",
      "outputs": [
        {
          "internalType": "bool",
          "name": "",
          "type": "bool"
        }
      ],
      "stateMutability": "view",
      "type": "function"
    },
    {
      "inputs": [
        {
          "internalType": "uint256",
          "name": "_id",
          "type": "uint256"
        }
      ],
      "name": "isLotteryRoomFull",
      "outputs": [
        {
          "internalType": "bool",
          "name": "",
          "type": "bool"
        }
      ],
      "stateMutability": "view",
      "type": "function"
    },
    {
      "inputs": [
        {
          "internalType": "uint256",
          "name": "_number",
          "type": "uint256"
        }
      ],
      "name": "isValidNumber",
      "outputs": [
        {
          "internalType": "bool",
          "name": "",
          "type": "bool"
        }
      ],
      "stateMutability": "view",
      "type": "function"
    },
    {
      "inputs": [],
      "name": "lastestLotteryId",
      "outputs": [
        {
          "internalType": "uint256",
          "name": "",
          "type": "uint256"
        }
      ],
      "stateMutability": "view",
      "type": "function"
    },
    {
      "inputs": [
        {
          "internalType": "uint256",
          "name": "_id",
          "type": "uint256"
        }
      ],
      "name": "lotteryBuyCount",
      "outputs": [
        {
          "internalType": "uint256",
          "name": "",
          "type": "uint256"
        }
      ],
      "stateMutability": "view",
      "type": "function"
    },
    {
      "inputs": [
        {
          "internalType": "uint256",
          "name": "",
          "type": "uint256"
        },
        {
          "internalType": "uint256",
          "name": "",
          "type": "uint256"
        }
      ],
      "name": "lotteryBuyData",
      "outputs": [
        {
          "internalType": "bool",
          "name": "owned",
          "type": "bool"
        },
        {
          "internalType": "address",
          "name": "buyer",
          "type": "address"
        },
        {
          "internalType": "uint256",
          "name": "buyTime",
          "type": "uint256"
        },
        {
          "internalType": "bool",
          "name": "claimed",
          "type": "bool"
        }
      ],
      "stateMutability": "view",
      "type": "function"
    },
    {
      "inputs": [
        {
          "internalType": "uint256",
          "name": "",
          "type": "uint256"
        },
        {
          "internalType": "address",
          "name": "",
          "type": "address"
        },
        {
          "internalType": "uint256",
          "name": "",
          "type": "uint256"
        }
      ],
      "name": "lotteryBuyerData",
      "outputs": [
        {
          "internalType": "uint256",
          "name": "",
          "type": "uint256"
        }
      ],
      "stateMutability": "view",
      "type": "function"
    },
    {
      "inputs": [],
      "name": "lotteryCost",
      "outputs": [
        {
          "internalType": "uint256",
          "name": "",
          "type": "uint256"
        }
      ],
      "stateMutability": "view",
      "type": "function"
    },
    {
      "inputs": [
        {
          "internalType": "uint256",
          "name": "",
          "type": "uint256"
        }
      ],
      "name": "lotteryData",
      "outputs": [
        {
          "internalType": "enum ItimLotteryBase.ItimLotteryState",
          "name": "state",
          "type": "uint8"
        },
        {
          "internalType": "uint256",
          "name": "expiredTime",
          "type": "uint256"
        },
        {
          "internalType": "uint256",
          "name": "drawTime",
          "type": "uint256"
        },
        {
          "internalType": "uint256",
          "name": "drawNumber",
          "type": "uint256"
        },
        {
          "internalType": "uint256",
          "name": "buyCount",
          "type": "uint256"
        }
      ],
      "stateMutability": "view",
      "type": "function"
    },
    {
      "inputs": [],
      "name": "lotteryMaxNumber",
      "outputs": [
        {
          "internalType": "uint256",
          "name": "",
          "type": "uint256"
        }
      ],
      "stateMutability": "view",
      "type": "function"
    },
    {
      "inputs": [],
      "name": "lotteryMinNumber",
      "outputs": [
        {
          "internalType": "uint256",
          "name": "",
          "type": "uint256"
        }
      ],
      "stateMutability": "view",
      "type": "function"
    },
    {
      "inputs": [],
      "name": "lotteryReward",
      "outputs": [
        {
          "internalType": "uint256",
          "name": "",
          "type": "uint256"
        }
      ],
      "stateMutability": "view",
      "type": "function"
    },
    {
      "inputs": [],
      "name": "lotteryReward2nd",
      "outputs": [
        {
          "internalType": "uint256",
          "name": "",
          "type": "uint256"
        }
      ],
      "stateMutability": "view",
      "type": "function"
    },
    {
      "inputs": [],
      "name": "lotteryReward3rd",
      "outputs": [
        {
          "internalType": "uint256",
          "name": "",
          "type": "uint256"
        }
      ],
      "stateMutability": "view",
      "type": "function"
    },
    {
      "inputs": [
        {
          "internalType": "uint256",
          "name": "",
          "type": "uint256"
        }
      ],
      "name": "lotteryRoomActives",
      "outputs": [
        {
          "internalType": "uint256",
          "name": "",
          "type": "uint256"
        }
      ],
      "stateMutability": "view",
      "type": "function"
    },
    {
      "inputs": [],
      "name": "lotteryRoomActivesLength",
      "outputs": [
        {
          "internalType": "uint256",
          "name": "",
          "type": "uint256"
        }
      ],
      "stateMutability": "view",
      "type": "function"
    },
    {
      "inputs": [],
      "name": "lotteryRoomCapacity",
      "outputs": [
        {
          "internalType": "uint256",
          "name": "",
          "type": "uint256"
        }
      ],
      "stateMutability": "view",
      "type": "function"
    },
    {
      "inputs": [],
      "name": "owner",
      "outputs": [
        {
          "internalType": "address",
          "name": "",
          "type": "address"
        }
      ],
      "stateMutability": "view",
      "type": "function"
    },
    {
      "inputs": [
        {
          "internalType": "bytes32",
          "name": "role",
          "type": "bytes32"
        },
        {
          "internalType": "address",
          "name": "account",
          "type": "address"
        }
      ],
      "name": "renounceRole",
      "outputs": [],
      "stateMutability": "nonpayable",
      "type": "function"
    },
    {
      "inputs": [
        {
          "internalType": "bytes32",
          "name": "role",
          "type": "bytes32"
        },
        {
          "internalType": "address",
          "name": "account",
          "type": "address"
        }
      ],
      "name": "revokeRole",
      "outputs": [],
      "stateMutability": "nonpayable",
      "type": "function"
    },
    {
      "inputs": [
        {
          "internalType": "address",
          "name": "_tokenContract",
          "type": "address"
        },
        {
          "internalType": "address",
          "name": "_treasuryAccount",
          "type": "address"
        }
      ],
      "name": "setAccounts",
      "outputs": [],
      "stateMutability": "nonpayable",
      "type": "function"
    },
    {
      "inputs": [
        {
          "internalType": "uint256",
          "name": "_cost",
          "type": "uint256"
        }
      ],
      "name": "setLotteryCost",
      "outputs": [],
      "stateMutability": "nonpayable",
      "type": "function"
    },
    {
      "inputs": [
        {
          "internalType": "uint256",
          "name": "_min",
          "type": "uint256"
        },
        {
          "internalType": "uint256",
          "name": "_max",
          "type": "uint256"
        }
      ],
      "name": "setLotteryNumberRange",
      "outputs": [],
      "stateMutability": "nonpayable",
      "type": "function"
    },
    {
      "inputs": [
        {
          "internalType": "uint256",
          "name": "_reward2nd",
          "type": "uint256"
        },
        {
          "internalType": "uint256",
          "name": "_reward3rd",
          "type": "uint256"
        }
      ],
      "name": "setLotteryOthersReward",
      "outputs": [],
      "stateMutability": "nonpayable",
      "type": "function"
    },
    {
      "inputs": [
        {
          "internalType": "uint256",
          "name": "_reward",
          "type": "uint256"
        }
      ],
      "name": "setLotteryReward",
      "outputs": [],
      "stateMutability": "nonpayable",
      "type": "function"
    },
    {
      "inputs": [
        {
          "internalType": "uint256",
          "name": "_capacity",
          "type": "uint256"
        }
      ],
      "name": "setLotteryRoomCap",
      "outputs": [],
      "stateMutability": "nonpayable",
      "type": "function"
    },
    {
      "inputs": [
        {
          "internalType": "uint256",
          "name": "_id",
          "type": "uint256"
        },
        {
          "internalType": "uint256",
          "name": "_expiredTime",
          "type": "uint256"
        }
      ],
      "name": "startBuyingLottery",
      "outputs": [],
      "stateMutability": "nonpayable",
      "type": "function"
    },
    {
      "inputs": [
        {
          "internalType": "uint256",
          "name": "_id",
          "type": "uint256"
        }
      ],
      "name": "stopBuyingLottery",
      "outputs": [],
      "stateMutability": "nonpayable",
      "type": "function"
    },
    {
      "inputs": [
        {
          "internalType": "bytes4",
          "name": "interfaceId",
          "type": "bytes4"
        }
      ],
      "name": "supportsInterface",
      "outputs": [
        {
          "internalType": "bool",
          "name": "",
          "type": "bool"
        }
      ],
      "stateMutability": "view",
      "type": "function"
    },
    {
      "inputs": [],
      "name": "tokenContractAccount",
      "outputs": [
        {
          "internalType": "address",
          "name": "",
          "type": "address"
        }
      ],
      "stateMutability": "view",
      "type": "function"
    },
    {
      "inputs": [],
      "name": "treasuryAccount",
      "outputs": [
        {
          "internalType": "address",
          "name": "",
          "type": "address"
        }
      ],
      "stateMutability": "view",
      "type": "function"
    }
  ],
  "transactionHash": "0xe60cb12a7d19d3e99d45bf3962a4217ed5a7ca9143709313ef0233aba66b717b",
  "args": [
    "0xC70Edf3aB36E0D57eFD8f412A3460D225931A110",
    [
      "0xC70Edf3aB36E0D57eFD8f412A3460D225931A110",
      "0x5572eAA48D9CF8Ae04C7813B5638349d641a7B91"
    ],
    "0xB3D23BfaBBD3e66be964944D802917113DC6C5C2",
    "0xC70Edf3aB36E0D57eFD8f412A3460D225931A110",
    "58240415243479370119289114561489651257478836596319195000953857493847596972392"
  ],
  "numDeployments": 2,
  "solcInputHash": "8ca357ea90c7083fd472e4b4517409da",
  "bytecode": "0x60a0604052670de0b6b3a76400006003819055600060045561270f6005556200002a90600a6200069c565b6007556001600c55600354620000429060026200069c565b600e55600260035460036200005891906200069c565b620000649190620006b6565b600f553480156200007457600080fd5b5060405162002c6138038062002c6183398101604081905262000097916200070c565b6001600160a01b03851660805260068190558484848484620000ba8383620001b6565b620000d560008051602062002c218339815191528662000303565b835160005b8181101562000135576200012060008051602062002c218339815191528783815181106200010c576200010c62000824565b60200260200101516200030360201b60201c565b806200012c816200083a565b915050620000da565b5050505050505062000151600061270f6200038b60201b60201c565b62000164678ac7230489e800006200045d565b620001806003546109c46200017a91906200069c565b620004d8565b620001ab60035460fa6200019591906200069c565b600354620001a59060196200069c565b62000553565b5050505050620008b8565b6080516001600160a01b0316336001600160a01b03161480620001ef5750620001ef60008051602062002c2183398151915233620005d4565b620002305760405162461bcd60e51b815260206004820152601f602482015260008051602062002c4183398151915260448201526064015b60405180910390fd5b600180546001600160a01b038085166001600160a01b03199283168117909355600280549185169190921617905560408051808201909152601681527f546f6b656e20436f6e7472616374204163636f756e7400000000000000000000602080830191909152620002ab929062001579620005ff821b17901c565b620002ff6040518060400160405280601081526020016f151c99585cdd5c9e481058d8dbdd5b9d60821b815250600260009054906101000a90046001600160a01b0316620005ff60201b620015791760201c565b5050565b6200030f8282620005d4565b620002ff576000828152602081815260408083206001600160a01b03851684529091529020805460ff19166001179055620003473390565b6001600160a01b0316816001600160a01b0316837f2f8788117e7eff1d82e926ec794901d17c78024a50270940304540a733656f0d60405160405180910390a45050565b6080516001600160a01b0316336001600160a01b03161480620003c45750620003c460008051602062002c2183398151915233620005d4565b620004015760405162461bcd60e51b815260206004820152601f602482015260008051602062002c41833981519152604482015260640162000227565b808210620004525760405162461bcd60e51b815260206004820152601460248201527f496e76616c6964204e756d6265722052616e6765000000000000000000000000604482015260640162000227565b600491909155600555565b6080516001600160a01b0316336001600160a01b031614806200049657506200049660008051602062002c2183398151915233620005d4565b620004d35760405162461bcd60e51b815260206004820152601f602482015260008051602062002c41833981519152604482015260640162000227565b600355565b6080516001600160a01b0316336001600160a01b031614806200051157506200051160008051602062002c2183398151915233620005d4565b6200054e5760405162461bcd60e51b815260206004820152601f602482015260008051602062002c41833981519152604482015260640162000227565b600755565b6080516001600160a01b0316336001600160a01b031614806200058c57506200058c60008051602062002c2183398151915233620005d4565b620005c95760405162461bcd60e51b815260206004820152601f602482015260008051602062002c41833981519152604482015260640162000227565b600e91909155600f55565b6000828152602081815260408083206001600160a01b038516845290915290205460ff165b92915050565b620002ff82826040516024016200061892919062000856565b60408051601f198184030181529190526020810180516001600160e01b0390811663319af33360e01b179091526200064c16565b62000662816200066560201b620015be1760201c565b50565b60006a636f6e736f6c652e6c6f679050600080835160208501845afa505050565b634e487b7160e01b600052601160045260246000fd5b8082028115828204841417620005f957620005f962000686565b600082620006d457634e487b7160e01b600052601260045260246000fd5b500490565b80516001600160a01b0381168114620006f157600080fd5b919050565b634e487b7160e01b600052604160045260246000fd5b600080600080600060a086880312156200072557600080fd5b6200073086620006d9565b602087810151919650906001600160401b03808211156200075057600080fd5b818901915089601f8301126200076557600080fd5b8151818111156200077a576200077a620006f6565b8060051b604051601f19603f83011681018181108582111715620007a257620007a2620006f6565b60405291825284820192508381018501918c831115620007c157600080fd5b938501935b82851015620007ea57620007da85620006d9565b84529385019392850192620007c6565b8099505050505050506200080160408701620006d9565b92506200081160608701620006d9565b9150608086015190509295509295909350565b634e487b7160e01b600052603260045260246000fd5b6000600182016200084f576200084f62000686565b5060010190565b604081526000835180604084015260005b8181101562000886576020818701810151606086840101520162000867565b50600060608285018101919091526001600160a01b03949094166020840152601f01601f191690910190910192915050565b6080516122f962000928600039600081816105740152818161069d015281816107730152818161086b0152818161092201528181610a8501528181610dd601528181610e4101528181610f2c01528181610fd7015281816112c801528181611388015261145f01526122f96000f3fe608060405234801561001057600080fd5b50600436106102695760003560e01c806375b238fc11610151578063a217fddf116100c3578063e75ff74f11610087578063e75ff74f146105f3578063e8228d0a14610606578063efca233614610619578063f37dd6ce1461062c578063fccb8eb91461063f578063ff19cf1d1461065257600080fd5b8063a217fddf146105a9578063af36dafb146105b1578063b1c45b16146105c4578063b613cb3d146105d7578063d547741f146105e057600080fd5b806382e7a9761161011557806382e7a9761461052d57806384f518691461054057806388578d441461055357806389342809146105665780638da5cb5b1461056f57806391d148541461059657600080fd5b806375b238fc146104d65780637b2d6e0a146104eb5780637e33f577146104fe5780637fdd98f214610511578063801700871461052457600080fd5b8063339b2cff116101ea57806343e02605116101ae57806343e02605146104065780634867b991146104195780634e4623be1461042c57806352ba5a541461043f57806364166814146104525780636581f7291461045b57600080fd5b8063339b2cff1461036557806334135bfd1461039057806336568abe1461039957806338129153146103ac5780633d725d68146103fe57600080fd5b8063248a9ca311610231578063248a9ca3146103005780632f2ff15d1461032357806330d0bd5514610336578063313c58821461033f578063339a64031461035257600080fd5b806301ffc9a71461026e5780630d660ead1461029657806319f4a421146102cf5780631f7a3508146102d857806323b62aa3146102ed575b600080fd5b61028161027c366004611e37565b61065b565b60405190151581526020015b60405180910390f35b6102c16102a4366004611e61565b6000908152600b6020908152604080832033845290915290205490565b60405190815260200161028d565b6102c160085481565b6102eb6102e6366004611e61565b610692565b005b6102eb6102fb366004611e61565b610768565b6102c161030e366004611e61565b60009081526020819052604090206001015490565b6102eb610331366004611e91565b610836565b6102c160035481565b6102eb61034d366004611ebd565b610860565b6102eb610360366004611e61565b610917565b600254610378906001600160a01b031681565b6040516001600160a01b03909116815260200161028d565b6102c1600f5481565b6102eb6103a7366004611e91565b6109fc565b6103ed6103ba366004611e61565b6009602052600090815260409020805460018201546002830154600384015460049094015460ff90931693919290919085565b60405161028d959493929190611ef5565b600d546102c1565b6102eb610414366004611f38565b610a7a565b6102eb610427366004611ebd565b610b81565b6102eb61043a366004611e61565b610dcb565b6102eb61044d366004611e61565b610e36565b6102c1600c5481565b6104aa610469366004611ebd565b600a60209081526000928352604080842090915290825290208054600182015460029092015460ff808316936101009093046001600160a01b031692911684565b6040805194151585526001600160a01b039093166020850152918301521515606082015260800161028d565b6102c16000805160206122a483398151915281565b6102eb6104f9366004611ebd565b610f21565b61028161050c366004611e61565b610f92565b6102eb61051f366004611e61565b610fcc565b6102c160075481565b61028161053b366004611e61565b611037565b6102eb61054e366004611ebd565b61104f565b6102c1610561366004611ebd565b61121a565b6102c160045481565b6103787f000000000000000000000000000000000000000000000000000000000000000081565b6102816105a4366004611e91565b611294565b6102c1600081565b6102eb6105bf366004611ebd565b6112bd565b6102eb6105d2366004611ebd565b61137d565b6102c1600e5481565b6102eb6105ee366004611e91565b61142f565b6102eb610601366004611e61565b611454565b6102c1610614366004611ebd565b6114bf565b600154610378906001600160a01b031681565b6102c161063a366004611e61565b61151a565b6102c161064d366004611f62565b61153b565b6102c160055481565b60006001600160e01b03198216637965db0b60e01b148061068c57506301ffc9a760e01b6001600160e01b03198316145b92915050565b336001600160a01b037f00000000000000000000000000000000000000000000000000000000000000001614806106dc57506106dc6000805160206122a483398151915233611294565b6107015760405162461bcd60e51b81526004016106f890611f97565b60405180910390fd5b600260008281526009602052604090205460ff16600481111561072657610726611edf565b146107435760405162461bcd60e51b81526004016106f890611fce565b6000818152600960205260409020805460ff19166003179055610765816115df565b50565b336001600160a01b037f00000000000000000000000000000000000000000000000000000000000000001614806107b257506107b26000805160206122a483398151915233611294565b6107ce5760405162461bcd60e51b81526004016106f890611f97565b60008181526009602052604081205460ff1660048111156107f1576107f1611edf565b1461080e5760405162461bcd60e51b81526004016106f890611fce565b6000818152600960205260409020805460ff1916600117905560085481111561076557600855565b600082815260208190526040902060010154610851816116b9565b61085b83836116c3565b505050565b336001600160a01b037f00000000000000000000000000000000000000000000000000000000000000001614806108aa57506108aa6000805160206122a483398151915233611294565b6108c65760405162461bcd60e51b81526004016106f890611f97565b80821061090c5760405162461bcd60e51b8152602060048201526014602482015273496e76616c6964204e756d6265722052616e676560601b60448201526064016106f8565b600491909155600555565b336001600160a01b037f000000000000000000000000000000000000000000000000000000000000000016148061096157506109616000805160206122a483398151915233611294565b61097d5760405162461bcd60e51b81526004016106f890611f97565b600360008281526009602052604090205460ff1660048111156109a2576109a2611edf565b146109bf5760405162461bcd60e51b81526004016106f890611fce565b6000818152600960205260409020805460ff19166004178155426002909101556109e7611747565b60009182526009602052604090912060030155565b6001600160a01b0381163314610a6c5760405162461bcd60e51b815260206004820152602f60248201527f416363657373436f6e74726f6c3a2063616e206f6e6c792072656e6f756e636560448201526e103937b632b9903337b91039b2b63360891b60648201526084016106f8565b610a7682826117e5565b5050565b336001600160a01b037f0000000000000000000000000000000000000000000000000000000000000000161480610ac45750610ac46000805160206122a483398151915233611294565b610ae05760405162461bcd60e51b81526004016106f890611f97565b600180546001600160a01b038085166001600160a01b031992831681179093556002805491851691909216179055604080518082019091526016815275151bdad95b8810dbdb9d1c9858dd081058d8dbdd5b9d60521b6020820152610b4491611579565b60408051808201909152601081526f151c99585cdd5c9e481058d8dbdd5b9d60821b6020820152600254610a7691906001600160a01b0316611579565b600460008381526009602052604090205460ff166004811115610ba657610ba6611edf565b14610bc35760405162461bcd60e51b81526004016106f890611fce565b610bcc81611037565b610be85760405162461bcd60e51b81526004016106f890611ffd565b6000828152600a6020908152604080832084845290915290205460ff16610c455760405162461bcd60e51b8152602060048201526011602482015270131bdd1d195c9e481b9bdd081bdddb9959607a1b60448201526064016106f8565b6000828152600a6020908152604080832084845290915290205461010090046001600160a01b03163314610cae5760405162461bcd60e51b815260206004820152601060248201526f4e6f7420796f7572206c6f747465727960801b60448201526064016106f8565b6000828152600a6020908152604080832084845290915290206002015460ff1615610d0d5760405162461bcd60e51b815260206004820152600f60248201526e105b1c9958591e4818db185a5b5959608a1b60448201526064016106f8565b6000828152600a602090815260408083208484529091528120600201805460ff19166001179055610d3e838361121a565b9050801561085b576001546002546040516323b872dd60e01b81526001600160a01b039182166004820152336024820152604481018490529116906323b872dd906064016020604051808303816000875af1158015610da1573d6000803e3d6000fd5b505050506040513d601f19601f82011682018060405250810190610dc59190612025565b50505050565b336001600160a01b037f0000000000000000000000000000000000000000000000000000000000000000161480610e155750610e156000805160206122a483398151915233611294565b610e315760405162461bcd60e51b81526004016106f890611f97565b600c55565b336001600160a01b037f0000000000000000000000000000000000000000000000000000000000000000161480610e805750610e806000805160206122a483398151915233611294565b610e9c5760405162461bcd60e51b81526004016106f890611f97565b600260008281526009602052604090205460ff166004811115610ec157610ec1611edf565b14610ede5760405162461bcd60e51b81526004016106f890611fce565b6000818152600960205260409020805460ff1916600417815542600290910155610f06611747565b600082815260096020526040902060030155610765816115df565b336001600160a01b037f0000000000000000000000000000000000000000000000000000000000000000161480610f6b5750610f6b6000805160206122a483398151915233611294565b610f875760405162461bcd60e51b81526004016106f890611f97565b600e91909155600f55565b6000600454600554610fa4919061205d565b610faf906001612070565b600092835260096020526040909220600401549190911015919050565b336001600160a01b037f000000000000000000000000000000000000000000000000000000000000000016148061101657506110166000805160206122a483398151915233611294565b6110325760405162461bcd60e51b81526004016106f890611f97565b600755565b6000600454821015801561068c575050600554101590565b600260008381526009602052604090205460ff16600481111561107457611074611edf565b146110915760405162461bcd60e51b81526004016106f890611fce565b61109a81611037565b6110b65760405162461bcd60e51b81526004016106f890611ffd565b6000828152600a6020908152604080832084845290915290205460ff16156111105760405162461bcd60e51b815260206004820152600d60248201526c131bdd1d195c9e481bdddb9959609a1b60448201526064016106f8565b600082815260096020526040812060040180549161112d83612083565b90915550506000828152600a60209081526040808320848452825280832080543361010081026001600160a81b031990921691909117600190811783554292810192909255868552600b845282852081865284528285208054808401825590865293909420909201849055905460025460035492516323b872dd60e01b815260048101949094526001600160a01b039081166024850152604484019290925216906323b872dd906064016020604051808303816000875af11580156111f6573d6000803e3d6000fd5b505050506040513d601f19601f8201168201806040525081019061085b9190612025565b6000600460008481526009602052604090205460ff16600481111561124157611241611edf565b1461125e5760405162461bcd60e51b81526004016106f890611fce565b61126782611037565b6112835760405162461bcd60e51b81526004016106f890611ffd565b61128d83836114bf565b9392505050565b6000918252602082815260408084206001600160a01b0393909316845291905290205460ff1690565b336001600160a01b037f000000000000000000000000000000000000000000000000000000000000000016148061130757506113076000805160206122a483398151915233611294565b6113235760405162461bcd60e51b81526004016106f890611f97565b60008281526009602052604081205460ff16600481111561134657611346611edf565b146113635760405162461bcd60e51b81526004016106f890611fce565b61136d828261184a565b600854821115610a765750600855565b336001600160a01b037f00000000000000000000000000000000000000000000000000000000000000001614806113c757506113c76000805160206122a483398151915233611294565b6113e35760405162461bcd60e51b81526004016106f890611f97565b600160008381526009602052604090205460ff16600481111561140857611408611edf565b146114255760405162461bcd60e51b81526004016106f890611fce565b610a76828261184a565b60008281526020819052604090206001015461144a816116b9565b61085b83836117e5565b336001600160a01b037f000000000000000000000000000000000000000000000000000000000000000016148061149e575061149e6000805160206122a483398151915233611294565b6114ba5760405162461bcd60e51b81526004016106f890611f97565b600355565b6000828152600960205260408120600301548290036114e1575060075461068c565b6114eb83836118f2565b156114f95750600e5461068c565b6115038383611a04565b156115115750600f5461068c565b50600092915050565b600d818154811061152a57600080fd5b600091825260209091200154905081565b600b602052826000526040600020602052816000526040600020818154811061156357600080fd5b9060005260206000200160009250925050505481565b610a76828260405160240161158f9291906120ec565b60408051601f198184030181529190526020810180516001600160e01b031663319af33360e01b179052611ae0565b60006a636f6e736f6c652e6c6f679050600080835160208501845afa505050565b600d546000805b6115f160018461205d565b81101561168c5781158015611622575083600d828154811061161557611615612116565b9060005260206000200154145b1561162c57600191505b811561167a57600d61163f826001612070565b8154811061164f5761164f612116565b9060005260206000200154600d828154811061166d5761166d612116565b6000918252602090912001555b8061168481612083565b9150506115e6565b50600d80548061169e5761169e61212c565b60019003818190600052602060002001600090559055505050565b6107658133611ae9565b6116cd8282611294565b610a76576000828152602081815260408083206001600160a01b03851684529091529020805460ff191660011790556117033390565b6001600160a01b0316816001600160a01b0316837f2f8788117e7eff1d82e926ec794901d17c78024a50270940304540a733656f0d60405160405180910390a45050565b600042600654604051602001611767929190918252602082015260400190565b60408051601f1981840301815291905280516020909101206006556004546005546000916117949161205d565b6006546117a19190612158565b6004546117ae9190612070565b90506117e06040518060400160405280600e81526020016d20b1ba3ab0b610273ab6b132b91d60911b81525082611b42565b919050565b6117ef8282611294565b15610a76576000828152602081815260408083206001600160a01b0385168085529252808320805460ff1916905551339285917ff6391f5c32d9c69d2a47ea670b442974b53935d1edc7fd64eb21e047a839171b9190a45050565b6000828152600960205260409020805460ff19166002178155600101819055600c54600d54106118bc5760405162461bcd60e51b815260206004820152601b60248201527f5265616368206d6178696d756d20726f6f6d206361706163697479000000000060448201526064016106f8565b50600d80546001810182556000919091527fd7b6990105719101dabeb77144f2a3385c8033acd3af97e9423a695e81ad1eb50155565b6000806118fe83611b87565b6000858152600960205260408120600301549192509061191d90611b87565b905060015b60048160ff1610156119f8576119596040518060400160405280600681526020016564696769747360d01b8152508260ff16611b42565b61199b838260ff166004811061197157611971612116565b602002015160ff16838360ff166004811061198e5761198e612116565b602002015160ff16611c1a565b818160ff16600481106119b0576119b0612116565b602002015160ff16838260ff16600481106119cd576119cd612116565b602002015160ff16146119e6576000935050505061068c565b806119f08161216c565b915050611922565b50600195945050505050565b600080611a1083611b87565b60008581526009602052604081206003015491925090611a2f90611b87565b905060025b60048160ff1610156119f857611a6b6040518060400160405280600681526020016564696769747360d01b8152508260ff16611b42565b611a83838260ff166004811061197157611971612116565b818160ff1660048110611a9857611a98612116565b602002015160ff16838260ff1660048110611ab557611ab5612116565b602002015160ff1614611ace576000935050505061068c565b80611ad88161216c565b915050611a34565b610765816115be565b611af38282611294565b610a7657611b0081611c61565b611b0b836020611c73565b604051602001611b1c92919061218b565b60408051601f198184030181529082905262461bcd60e51b82526106f891600401612200565b610a768282604051602401611b58929190612213565b60408051601f198184030181529190526020810180516001600160e01b0316632d839cb360e21b179052611ae0565b611b8f611e19565b604080516080810182526000808252602082018190529181018290526060810191909152611bbe600a84612158565b60ff166060820152600a611bd28185612235565b611bdc9190612158565b60ff166040820152600a611bf1606485612235565b611bfb9190612158565b60ff166020820152611c0f6103e884612235565b60ff16815292915050565b6040516024810183905260448101829052610a769060640160408051601f198184030181529190526020810180516001600160e01b0316637b3338ad60e11b179052611ae0565b606061068c6001600160a01b03831660145b60606000611c82836002612249565b611c8d906002612070565b67ffffffffffffffff811115611ca557611ca5612260565b6040519080825280601f01601f191660200182016040528015611ccf576020820181803683370190505b509050600360fc1b81600081518110611cea57611cea612116565b60200101906001600160f81b031916908160001a905350600f60fb1b81600181518110611d1957611d19612116565b60200101906001600160f81b031916908160001a9053506000611d3d846002612249565b611d48906001612070565b90505b6001811115611dc0576f181899199a1a9b1b9c1cb0b131b232b360811b85600f1660108110611d7c57611d7c612116565b1a60f81b828281518110611d9257611d92612116565b60200101906001600160f81b031916908160001a90535060049490941c93611db981612276565b9050611d4b565b50831561128d5760405162461bcd60e51b815260206004820181905260248201527f537472696e67733a20686578206c656e67746820696e73756666696369656e7460448201526064016106f8565b611e1761228d565b565b60405180608001604052806004906020820280368337509192915050565b600060208284031215611e4957600080fd5b81356001600160e01b03198116811461128d57600080fd5b600060208284031215611e7357600080fd5b5035919050565b80356001600160a01b03811681146117e057600080fd5b60008060408385031215611ea457600080fd5b82359150611eb460208401611e7a565b90509250929050565b60008060408385031215611ed057600080fd5b50508035926020909101359150565b634e487b7160e01b600052602160045260246000fd5b60a0810160058710611f1757634e487b7160e01b600052602160045260246000fd5b95815260208101949094526040840192909252606083015260809091015290565b60008060408385031215611f4b57600080fd5b611f5483611e7a565b9150611eb460208401611e7a565b600080600060608486031215611f7757600080fd5b83359250611f8760208501611e7a565b9150604084013590509250925092565b6020808252601f908201527f43616c6c6572206973206e6f7420616e2061646d696e206f72206f776e657200604082015260600190565b602080825260159082015274496e76616c6964206c6f747465727920737461746560581b604082015260600190565b6020808252600e908201526d24b73b30b634b210373ab6b132b960911b604082015260600190565b60006020828403121561203757600080fd5b8151801515811461128d57600080fd5b634e487b7160e01b600052601160045260246000fd5b8181038181111561068c5761068c612047565b8082018082111561068c5761068c612047565b60006001820161209557612095612047565b5060010190565b60005b838110156120b757818101518382015260200161209f565b50506000910152565b600081518084526120d881602086016020860161209c565b601f01601f19169290920160200192915050565b6040815260006120ff60408301856120c0565b905060018060a01b03831660208301529392505050565b634e487b7160e01b600052603260045260246000fd5b634e487b7160e01b600052603160045260246000fd5b634e487b7160e01b600052601260045260246000fd5b60008261216757612167612142565b500690565b600060ff821660ff810361218257612182612047565b60010192915050565b7f416363657373436f6e74726f6c3a206163636f756e74200000000000000000008152600083516121c381601785016020880161209c565b7001034b99036b4b9b9b4b733903937b6329607d1b60179184019182015283516121f481602884016020880161209c565b01602801949350505050565b60208152600061128d60208301846120c0565b60408152600061222660408301856120c0565b90508260208301529392505050565b60008261224457612244612142565b500490565b808202811582820484141761068c5761068c612047565b634e487b7160e01b600052604160045260246000fd5b60008161228557612285612047565b506000190190565b634e487b7160e01b600052605160045260246000fdfea49807205ce4d355092ef5a8a18f56e8913cf4a201fbe287825b095693c21775a2646970667358221220d07342a2d9ba76a15e3fe2b4d240705318985970f73dc6ba3b8e3553109e8ab364736f6c63430008110033a49807205ce4d355092ef5a8a18f56e8913cf4a201fbe287825b095693c2177543616c6c6572206973206e6f7420616e2061646d696e206f72206f776e657200",
  "devdoc": {
    "kind": "dev",
    "methods": {
      "getRoleAdmin(bytes32)": {
        "details": "Returns the admin role that controls `role`. See {grantRole} and {revokeRole}. To change a role's admin, use {_setRoleAdmin}."
      },
      "grantRole(bytes32,address)": {
        "details": "Grants `role` to `account`. If `account` had not been already granted `role`, emits a {RoleGranted} event. Requirements: - the caller must have ``role``'s admin role. May emit a {RoleGranted} event."
      },
      "hasRole(bytes32,address)": {
        "details": "Returns `true` if `account` has been granted `role`."
      },
      "renounceRole(bytes32,address)": {
        "details": "Revokes `role` from the calling account. Roles are often managed via {grantRole} and {revokeRole}: this function's purpose is to provide a mechanism for accounts to lose their privileges if they are compromised (such as when a trusted device is misplaced). If the calling account had been revoked `role`, emits a {RoleRevoked} event. Requirements: - the caller must be `account`. May emit a {RoleRevoked} event."
      },
      "revokeRole(bytes32,address)": {
        "details": "Revokes `role` from `account`. If `account` had been granted `role`, emits a {RoleRevoked} event. Requirements: - the caller must have ``role``'s admin role. May emit a {RoleRevoked} event."
      },
      "supportsInterface(bytes4)": {
        "details": "See {IERC165-supportsInterface}."
      }
    },
    "version": 1
  },
  "userdoc": {
    "kind": "user",
    "methods": {
      "fastStartLottery(uint256,uint256)": {
        "notice": "Fast Method"
      },
      "isLotteryRoomFull(uint256)": {
        "notice": "Misc"
      },
      "lotteryBuyCount(uint256)": {
        "notice": "Buyer Section"
      },
      "setAccounts(address,address)": {
        "notice": "Admin Setter Section"
      },
      "setLotteryNumberRange(uint256,uint256)": {
        "notice": "Lottery Number Section"
      },
      "setLotteryOthersReward(uint256,uint256)": {
        "notice": "Prize 1st => exact 2nd => match last 3 3rd => match last 2"
      }
    },
    "notice": "Itim Lottery 4 Digits Author: chan1sook Revision: 2 Last Updated: 2024-05-21 13:00",
    "version": 1
  },
  "storageLayout": {
    "storage": [
      {
        "astId": 24,
        "contract": "contracts/ItimLottery4Digits.sol:ItimLottery4Digits",
        "label": "_roles",
        "offset": 0,
        "slot": "0",
        "type": "t_mapping(t_bytes32,t_struct(RoleData)19_storage)"
      },
      {
        "astId": 3062,
        "contract": "contracts/ItimLottery4Digits.sol:ItimLottery4Digits",
        "label": "tokenContractAccount",
        "offset": 0,
        "slot": "1",
        "type": "t_address"
      },
      {
        "astId": 3064,
        "contract": "contracts/ItimLottery4Digits.sol:ItimLottery4Digits",
        "label": "treasuryAccount",
        "offset": 0,
        "slot": "2",
        "type": "t_address"
      },
      {
        "astId": 3067,
        "contract": "contracts/ItimLottery4Digits.sol:ItimLottery4Digits",
        "label": "lotteryCost",
        "offset": 0,
        "slot": "3",
        "type": "t_uint256"
      },
      {
        "astId": 3070,
        "contract": "contracts/ItimLottery4Digits.sol:ItimLottery4Digits",
        "label": "lotteryMinNumber",
        "offset": 0,
        "slot": "4",
        "type": "t_uint256"
      },
      {
        "astId": 3073,
        "contract": "contracts/ItimLottery4Digits.sol:ItimLottery4Digits",
        "label": "lotteryMaxNumber",
        "offset": 0,
        "slot": "5",
        "type": "t_uint256"
      },
      {
        "astId": 3075,
        "contract": "contracts/ItimLottery4Digits.sol:ItimLottery4Digits",
        "label": "randomSeed",
        "offset": 0,
        "slot": "6",
        "type": "t_uint256"
      },
      {
        "astId": 3080,
        "contract": "contracts/ItimLottery4Digits.sol:ItimLottery4Digits",
        "label": "lotteryReward",
        "offset": 0,
        "slot": "7",
        "type": "t_uint256"
      },
      {
        "astId": 3100,
        "contract": "contracts/ItimLottery4Digits.sol:ItimLottery4Digits",
        "label": "lastestLotteryId",
        "offset": 0,
        "slot": "8",
        "type": "t_uint256"
      },
      {
        "astId": 3105,
        "contract": "contracts/ItimLottery4Digits.sol:ItimLottery4Digits",
        "label": "lotteryData",
        "offset": 0,
        "slot": "9",
        "type": "t_mapping(t_uint256,t_struct(ItimLotteryData)3098_storage)"
      },
      {
        "astId": 3121,
        "contract": "contracts/ItimLottery4Digits.sol:ItimLottery4Digits",
        "label": "lotteryBuyData",
        "offset": 0,
        "slot": "10",
        "type": "t_mapping(t_uint256,t_mapping(t_uint256,t_struct(ItimLotteryBuyData)3114_storage))"
      },
      {
        "astId": 3128,
        "contract": "contracts/ItimLottery4Digits.sol:ItimLottery4Digits",
        "label": "lotteryBuyerData",
        "offset": 0,
        "slot": "11",
        "type": "t_mapping(t_uint256,t_mapping(t_address,t_array(t_uint256)dyn_storage))"
      },
      {
        "astId": 3131,
        "contract": "contracts/ItimLottery4Digits.sol:ItimLottery4Digits",
        "label": "lotteryRoomCapacity",
        "offset": 0,
        "slot": "12",
        "type": "t_uint256"
      },
      {
        "astId": 3134,
        "contract": "contracts/ItimLottery4Digits.sol:ItimLottery4Digits",
        "label": "lotteryRoomActives",
        "offset": 0,
        "slot": "13",
        "type": "t_array(t_uint256)dyn_storage"
      },
      {
        "astId": 2701,
        "contract": "contracts/ItimLottery4Digits.sol:ItimLottery4Digits",
        "label": "lotteryReward2nd",
        "offset": 0,
        "slot": "14",
        "type": "t_uint256"
      },
      {
        "astId": 2708,
        "contract": "contracts/ItimLottery4Digits.sol:ItimLottery4Digits",
        "label": "lotteryReward3rd",
        "offset": 0,
        "slot": "15",
        "type": "t_uint256"
      }
    ],
    "types": {
      "t_address": {
        "encoding": "inplace",
        "label": "address",
        "numberOfBytes": "20"
      },
      "t_array(t_uint256)dyn_storage": {
        "base": "t_uint256",
        "encoding": "dynamic_array",
        "label": "uint256[]",
        "numberOfBytes": "32"
      },
      "t_bool": {
        "encoding": "inplace",
        "label": "bool",
        "numberOfBytes": "1"
      },
      "t_bytes32": {
        "encoding": "inplace",
        "label": "bytes32",
        "numberOfBytes": "32"
      },
      "t_enum(ItimLotteryState)3086": {
        "encoding": "inplace",
        "label": "enum ItimLotteryBase.ItimLotteryState",
        "numberOfBytes": "1"
      },
      "t_mapping(t_address,t_array(t_uint256)dyn_storage)": {
        "encoding": "mapping",
        "key": "t_address",
        "label": "mapping(address => uint256[])",
        "numberOfBytes": "32",
        "value": "t_array(t_uint256)dyn_storage"
      },
      "t_mapping(t_address,t_bool)": {
        "encoding": "mapping",
        "key": "t_address",
        "label": "mapping(address => bool)",
        "numberOfBytes": "32",
        "value": "t_bool"
      },
      "t_mapping(t_bytes32,t_struct(RoleData)19_storage)": {
        "encoding": "mapping",
        "key": "t_bytes32",
        "label": "mapping(bytes32 => struct AccessControl.RoleData)",
        "numberOfBytes": "32",
        "value": "t_struct(RoleData)19_storage"
      },
      "t_mapping(t_uint256,t_mapping(t_address,t_array(t_uint256)dyn_storage))": {
        "encoding": "mapping",
        "key": "t_uint256",
        "label": "mapping(uint256 => mapping(address => uint256[]))",
        "numberOfBytes": "32",
        "value": "t_mapping(t_address,t_array(t_uint256)dyn_storage)"
      },
      "t_mapping(t_uint256,t_mapping(t_uint256,t_struct(ItimLotteryBuyData)3114_storage))": {
        "encoding": "mapping",
        "key": "t_uint256",
        "label": "mapping(uint256 => mapping(uint256 => struct ItimLotteryBase.ItimLotteryBuyData))",
        "numberOfBytes": "32",
        "value": "t_mapping(t_uint256,t_struct(ItimLotteryBuyData)3114_storage)"
      },
      "t_mapping(t_uint256,t_struct(ItimLotteryBuyData)3114_storage)": {
        "encoding": "mapping",
        "key": "t_uint256",
        "label": "mapping(uint256 => struct ItimLotteryBase.ItimLotteryBuyData)",
        "numberOfBytes": "32",
        "value": "t_struct(ItimLotteryBuyData)3114_storage"
      },
      "t_mapping(t_uint256,t_struct(ItimLotteryData)3098_storage)": {
        "encoding": "mapping",
        "key": "t_uint256",
        "label": "mapping(uint256 => struct ItimLotteryBase.ItimLotteryData)",
        "numberOfBytes": "32",
        "value": "t_struct(ItimLotteryData)3098_storage"
      },
      "t_struct(ItimLotteryBuyData)3114_storage": {
        "encoding": "inplace",
        "label": "struct ItimLotteryBase.ItimLotteryBuyData",
        "members": [
          {
            "astId": 3107,
            "contract": "contracts/ItimLottery4Digits.sol:ItimLottery4Digits",
            "label": "owned",
            "offset": 0,
            "slot": "0",
            "type": "t_bool"
          },
          {
            "astId": 3109,
            "contract": "contracts/ItimLottery4Digits.sol:ItimLottery4Digits",
            "label": "buyer",
            "offset": 1,
            "slot": "0",
            "type": "t_address"
          },
          {
            "astId": 3111,
            "contract": "contracts/ItimLottery4Digits.sol:ItimLottery4Digits",
            "label": "buyTime",
            "offset": 0,
            "slot": "1",
            "type": "t_uint256"
          },
          {
            "astId": 3113,
            "contract": "contracts/ItimLottery4Digits.sol:ItimLottery4Digits",
            "label": "claimed",
            "offset": 0,
            "slot": "2",
            "type": "t_bool"
          }
        ],
        "numberOfBytes": "96"
      },
      "t_struct(ItimLotteryData)3098_storage": {
        "encoding": "inplace",
        "label": "struct ItimLotteryBase.ItimLotteryData",
        "members": [
          {
            "astId": 3089,
            "contract": "contracts/ItimLottery4Digits.sol:ItimLottery4Digits",
            "label": "state",
            "offset": 0,
            "slot": "0",
            "type": "t_enum(ItimLotteryState)3086"
          },
          {
            "astId": 3091,
            "contract": "contracts/ItimLottery4Digits.sol:ItimLottery4Digits",
            "label": "expiredTime",
            "offset": 0,
            "slot": "1",
            "type": "t_uint256"
          },
          {
            "astId": 3093,
            "contract": "contracts/ItimLottery4Digits.sol:ItimLottery4Digits",
            "label": "drawTime",
            "offset": 0,
            "slot": "2",
            "type": "t_uint256"
          },
          {
            "astId": 3095,
            "contract": "contracts/ItimLottery4Digits.sol:ItimLottery4Digits",
            "label": "drawNumber",
            "offset": 0,
            "slot": "3",
            "type": "t_uint256"
          },
          {
            "astId": 3097,
            "contract": "contracts/ItimLottery4Digits.sol:ItimLottery4Digits",
            "label": "buyCount",
            "offset": 0,
            "slot": "4",
            "type": "t_uint256"
          }
        ],
        "numberOfBytes": "160"
      },
      "t_struct(RoleData)19_storage": {
        "encoding": "inplace",
        "label": "struct AccessControl.RoleData",
        "members": [
          {
            "astId": 16,
            "contract": "contracts/ItimLottery4Digits.sol:ItimLottery4Digits",
            "label": "members",
            "offset": 0,
            "slot": "0",
            "type": "t_mapping(t_address,t_bool)"
          },
          {
            "astId": 18,
            "contract": "contracts/ItimLottery4Digits.sol:ItimLottery4Digits",
            "label": "adminRole",
            "offset": 0,
            "slot": "1",
            "type": "t_bytes32"
          }
        ],
        "numberOfBytes": "64"
      },
      "t_uint256": {
        "encoding": "inplace",
        "label": "uint256",
        "numberOfBytes": "32"
      }
    }
  }
}