{
  "address": "0x368A7310E02E29EecCB6720BD24ba9C8442fa3fa",
  "abi": [
    {
      "inputs": [
        {
          "internalType": "address",
          "name": "_owner",
          "type": "address"
        },
        {
          "internalType": "address[]",
          "name": "_admins",
          "type": "address[]"
        },
        {
          "internalType": "address",
          "name": "_tokenContractAccount",
          "type": "address"
        },
        {
          "internalType": "uint256",
          "name": "_randomSeed",
          "type": "uint256"
        }
      ],
      "stateMutability": "nonpayable",
      "type": "constructor"
    },
    {
      "anonymous": false,
      "inputs": [
        {
          "indexed": true,
          "internalType": "uint256",
          "name": "id",
          "type": "uint256"
        },
        {
          "indexed": true,
          "internalType": "address",
          "name": "buyer",
          "type": "address"
        },
        {
          "indexed": false,
          "internalType": "uint256",
          "name": "number",
          "type": "uint256"
        }
      ],
      "name": "LotteryBuy",
      "type": "event"
    },
    {
      "anonymous": false,
      "inputs": [
        {
          "indexed": true,
          "internalType": "uint256",
          "name": "id",
          "type": "uint256"
        },
        {
          "indexed": true,
          "internalType": "address",
          "name": "claimer",
          "type": "address"
        },
        {
          "indexed": false,
          "internalType": "uint256",
          "name": "number",
          "type": "uint256"
        },
        {
          "indexed": false,
          "internalType": "uint256",
          "name": "amount",
          "type": "uint256"
        }
      ],
      "name": "LotteryClaim",
      "type": "event"
    },
    {
      "anonymous": false,
      "inputs": [
        {
          "indexed": true,
          "internalType": "uint256",
          "name": "id",
          "type": "uint256"
        },
        {
          "indexed": false,
          "internalType": "uint256",
          "name": "number",
          "type": "uint256"
        }
      ],
      "name": "LotteryRoll",
      "type": "event"
    },
    {
      "anonymous": false,
      "inputs": [
        {
          "indexed": true,
          "internalType": "uint256",
          "name": "id",
          "type": "uint256"
        },
        {
          "indexed": true,
          "internalType": "enum ItimLotteryBase.ItimLotteryState",
          "name": "state",
          "type": "uint8"
        }
      ],
      "name": "LotteryStateChange",
      "type": "event"
    },
    {
      "anonymous": false,
      "inputs": [
        {
          "indexed": true,
          "internalType": "bytes32",
          "name": "role",
          "type": "bytes32"
        },
        {
          "indexed": true,
          "internalType": "bytes32",
          "name": "previousAdminRole",
          "type": "bytes32"
        },
        {
          "indexed": true,
          "internalType": "bytes32",
          "name": "newAdminRole",
          "type": "bytes32"
        }
      ],
      "name": "RoleAdminChanged",
      "type": "event"
    },
    {
      "anonymous": false,
      "inputs": [
        {
          "indexed": true,
          "internalType": "bytes32",
          "name": "role",
          "type": "bytes32"
        },
        {
          "indexed": true,
          "internalType": "address",
          "name": "account",
          "type": "address"
        },
        {
          "indexed": true,
          "internalType": "address",
          "name": "sender",
          "type": "address"
        }
      ],
      "name": "RoleGranted",
      "type": "event"
    },
    {
      "anonymous": false,
      "inputs": [
        {
          "indexed": true,
          "internalType": "bytes32",
          "name": "role",
          "type": "bytes32"
        },
        {
          "indexed": true,
          "internalType": "address",
          "name": "account",
          "type": "address"
        },
        {
          "indexed": true,
          "internalType": "address",
          "name": "sender",
          "type": "address"
        }
      ],
      "name": "RoleRevoked",
      "type": "event"
    },
    {
      "inputs": [],
      "name": "ADMIN_ROLE",
      "outputs": [
        {
          "internalType": "bytes32",
          "name": "",
          "type": "bytes32"
        }
      ],
      "stateMutability": "view",
      "type": "function"
    },
    {
      "inputs": [],
      "name": "DEFAULT_ADMIN_ROLE",
      "outputs": [
        {
          "internalType": "bytes32",
          "name": "",
          "type": "bytes32"
        }
      ],
      "stateMutability": "view",
      "type": "function"
    },
    {
      "inputs": [
        {
          "internalType": "uint256",
          "name": "_id",
          "type": "uint256"
        },
        {
          "internalType": "uint256",
          "name": "_number",
          "type": "uint256"
        }
      ],
      "name": "_calculateRewardOfLotteryNumber",
      "outputs": [
        {
          "internalType": "uint256",
          "name": "",
          "type": "uint256"
        }
      ],
      "stateMutability": "view",
      "type": "function"
    },
    {
      "inputs": [
        {
          "internalType": "uint256",
          "name": "_id",
          "type": "uint256"
        },
        {
          "internalType": "uint256",
          "name": "_number",
          "type": "uint256"
        }
      ],
      "name": "buyLottery",
      "outputs": [],
      "stateMutability": "nonpayable",
      "type": "function"
    },
    {
      "inputs": [
        {
          "internalType": "uint256",
          "name": "_id",
          "type": "uint256"
        },
        {
          "internalType": "uint256",
          "name": "_number",
          "type": "uint256"
        }
      ],
      "name": "claimLottery",
      "outputs": [],
      "stateMutability": "nonpayable",
      "type": "function"
    },
    {
      "inputs": [
        {
          "internalType": "uint256",
          "name": "_id",
          "type": "uint256"
        }
      ],
      "name": "declareLottery",
      "outputs": [],
      "stateMutability": "nonpayable",
      "type": "function"
    },
    {
      "inputs": [
        {
          "internalType": "uint256",
          "name": "_id",
          "type": "uint256"
        }
      ],
      "name": "drawRandomNumber",
      "outputs": [],
      "stateMutability": "nonpayable",
      "type": "function"
    },
    {
      "inputs": [
        {
          "internalType": "uint256",
          "name": "_id",
          "type": "uint256"
        },
        {
          "internalType": "uint256",
          "name": "number",
          "type": "uint256"
        }
      ],
      "name": "drawRandomNumberWithResult",
      "outputs": [],
      "stateMutability": "nonpayable",
      "type": "function"
    },
    {
      "inputs": [
        {
          "internalType": "uint256",
          "name": "_id",
          "type": "uint256"
        },
        {
          "internalType": "uint256",
          "name": "_expiredTime",
          "type": "uint256"
        }
      ],
      "name": "fastStartLottery",
      "outputs": [],
      "stateMutability": "nonpayable",
      "type": "function"
    },
    {
      "inputs": [
        {
          "internalType": "uint256",
          "name": "_id",
          "type": "uint256"
        }
      ],
      "name": "fastStopLottery",
      "outputs": [],
      "stateMutability": "nonpayable",
      "type": "function"
    },
    {
      "inputs": [
        {
          "internalType": "uint256",
          "name": "_id",
          "type": "uint256"
        },
        {
          "internalType": "uint256",
          "name": "_expiredTime",
          "type": "uint256"
        }
      ],
      "name": "fastStopLotteryAndRestart",
      "outputs": [],
      "stateMutability": "nonpayable",
      "type": "function"
    },
    {
      "inputs": [
        {
          "internalType": "uint256",
          "name": "_id",
          "type": "uint256"
        },
        {
          "internalType": "uint256",
          "name": "number",
          "type": "uint256"
        }
      ],
      "name": "fastStopLotteryWithResult",
      "outputs": [],
      "stateMutability": "nonpayable",
      "type": "function"
    },
    {
      "inputs": [
        {
          "internalType": "uint256",
          "name": "_id",
          "type": "uint256"
        },
        {
          "internalType": "uint256",
          "name": "number",
          "type": "uint256"
        },
        {
          "internalType": "uint256",
          "name": "_expiredTime",
          "type": "uint256"
        }
      ],
      "name": "fastStopLotteryWithResultAndRestart",
      "outputs": [],
      "stateMutability": "nonpayable",
      "type": "function"
    },
    {
      "inputs": [
        {
          "internalType": "uint256",
          "name": "_id",
          "type": "uint256"
        },
        {
          "internalType": "uint256",
          "name": "_number",
          "type": "uint256"
        }
      ],
      "name": "getRewardOfLottery",
      "outputs": [
        {
          "internalType": "uint256",
          "name": "",
          "type": "uint256"
        }
      ],
      "stateMutability": "view",
      "type": "function"
    },
    {
      "inputs": [
        {
          "internalType": "bytes32",
          "name": "role",
          "type": "bytes32"
        }
      ],
      "name": "getRoleAdmin",
      "outputs": [
        {
          "internalType": "bytes32",
          "name": "",
          "type": "bytes32"
        }
      ],
      "stateMutability": "view",
      "type": "function"
    },
    {
      "inputs": [
        {
          "internalType": "bytes32",
          "name": "role",
          "type": "bytes32"
        },
        {
          "internalType": "address",
          "name": "account",
          "type": "address"
        }
      ],
      "name": "grantRole",
      "outputs": [],
      "stateMutability": "nonpayable",
      "type": "function"
    },
    {
      "inputs": [
        {
          "internalType": "bytes32",
          "name": "role",
          "type": "bytes32"
        },
        {
          "internalType": "address",
          "name": "account",
          "type": "address"
        }
      ],
      "name": "hasRole",
      "outputs": [
        {
          "internalType": "bool",
          "name": "",
          "type": "bool"
        }
      ],
      "stateMutability": "view",
      "type": "function"
    },
    {
      "inputs": [
        {
          "internalType": "uint256",
          "name": "_id",
          "type": "uint256"
        }
      ],
      "name": "isLotteryRoomFull",
      "outputs": [
        {
          "internalType": "bool",
          "name": "",
          "type": "bool"
        }
      ],
      "stateMutability": "view",
      "type": "function"
    },
    {
      "inputs": [
        {
          "internalType": "uint256",
          "name": "_number",
          "type": "uint256"
        }
      ],
      "name": "isValidNumber",
      "outputs": [
        {
          "internalType": "bool",
          "name": "",
          "type": "bool"
        }
      ],
      "stateMutability": "view",
      "type": "function"
    },
    {
      "inputs": [],
      "name": "lastestLotteryId",
      "outputs": [
        {
          "internalType": "uint256",
          "name": "",
          "type": "uint256"
        }
      ],
      "stateMutability": "view",
      "type": "function"
    },
    {
      "inputs": [
        {
          "internalType": "uint256",
          "name": "_id",
          "type": "uint256"
        }
      ],
      "name": "lotteryBuyCount",
      "outputs": [
        {
          "internalType": "uint256",
          "name": "",
          "type": "uint256"
        }
      ],
      "stateMutability": "view",
      "type": "function"
    },
    {
      "inputs": [
        {
          "internalType": "uint256",
          "name": "",
          "type": "uint256"
        },
        {
          "internalType": "uint256",
          "name": "",
          "type": "uint256"
        }
      ],
      "name": "lotteryBuyData",
      "outputs": [
        {
          "internalType": "bool",
          "name": "owned",
          "type": "bool"
        },
        {
          "internalType": "address",
          "name": "buyer",
          "type": "address"
        },
        {
          "internalType": "uint256",
          "name": "buyTime",
          "type": "uint256"
        },
        {
          "internalType": "bool",
          "name": "claimed",
          "type": "bool"
        }
      ],
      "stateMutability": "view",
      "type": "function"
    },
    {
      "inputs": [
        {
          "internalType": "uint256",
          "name": "",
          "type": "uint256"
        },
        {
          "internalType": "address",
          "name": "",
          "type": "address"
        },
        {
          "internalType": "uint256",
          "name": "",
          "type": "uint256"
        }
      ],
      "name": "lotteryBuyerData",
      "outputs": [
        {
          "internalType": "uint256",
          "name": "",
          "type": "uint256"
        }
      ],
      "stateMutability": "view",
      "type": "function"
    },
    {
      "inputs": [],
      "name": "lotteryCost",
      "outputs": [
        {
          "internalType": "uint256",
          "name": "",
          "type": "uint256"
        }
      ],
      "stateMutability": "view",
      "type": "function"
    },
    {
      "inputs": [
        {
          "internalType": "uint256",
          "name": "",
          "type": "uint256"
        }
      ],
      "name": "lotteryData",
      "outputs": [
        {
          "internalType": "enum ItimLotteryBase.ItimLotteryState",
          "name": "state",
          "type": "uint8"
        },
        {
          "internalType": "uint256",
          "name": "expiredTime",
          "type": "uint256"
        },
        {
          "internalType": "uint256",
          "name": "drawTime",
          "type": "uint256"
        },
        {
          "internalType": "uint256",
          "name": "drawNumber",
          "type": "uint256"
        },
        {
          "internalType": "uint256",
          "name": "buyCount",
          "type": "uint256"
        }
      ],
      "stateMutability": "view",
      "type": "function"
    },
    {
      "inputs": [],
      "name": "lotteryMaxNumber",
      "outputs": [
        {
          "internalType": "uint256",
          "name": "",
          "type": "uint256"
        }
      ],
      "stateMutability": "view",
      "type": "function"
    },
    {
      "inputs": [],
      "name": "lotteryMinNumber",
      "outputs": [
        {
          "internalType": "uint256",
          "name": "",
          "type": "uint256"
        }
      ],
      "stateMutability": "view",
      "type": "function"
    },
    {
      "inputs": [],
      "name": "lotteryReward",
      "outputs": [
        {
          "internalType": "uint256",
          "name": "",
          "type": "uint256"
        }
      ],
      "stateMutability": "view",
      "type": "function"
    },
    {
      "inputs": [],
      "name": "lotteryReward2nd",
      "outputs": [
        {
          "internalType": "uint256",
          "name": "",
          "type": "uint256"
        }
      ],
      "stateMutability": "view",
      "type": "function"
    },
    {
      "inputs": [],
      "name": "lotteryReward3rd",
      "outputs": [
        {
          "internalType": "uint256",
          "name": "",
          "type": "uint256"
        }
      ],
      "stateMutability": "view",
      "type": "function"
    },
    {
      "inputs": [
        {
          "internalType": "uint256",
          "name": "",
          "type": "uint256"
        }
      ],
      "name": "lotteryRoomActives",
      "outputs": [
        {
          "internalType": "uint256",
          "name": "",
          "type": "uint256"
        }
      ],
      "stateMutability": "view",
      "type": "function"
    },
    {
      "inputs": [],
      "name": "lotteryRoomActivesLength",
      "outputs": [
        {
          "internalType": "uint256",
          "name": "",
          "type": "uint256"
        }
      ],
      "stateMutability": "view",
      "type": "function"
    },
    {
      "inputs": [],
      "name": "lotteryRoomCapacity",
      "outputs": [
        {
          "internalType": "uint256",
          "name": "",
          "type": "uint256"
        }
      ],
      "stateMutability": "view",
      "type": "function"
    },
    {
      "inputs": [],
      "name": "owner",
      "outputs": [
        {
          "internalType": "address",
          "name": "",
          "type": "address"
        }
      ],
      "stateMutability": "view",
      "type": "function"
    },
    {
      "inputs": [
        {
          "internalType": "bytes32",
          "name": "role",
          "type": "bytes32"
        },
        {
          "internalType": "address",
          "name": "account",
          "type": "address"
        }
      ],
      "name": "renounceRole",
      "outputs": [],
      "stateMutability": "nonpayable",
      "type": "function"
    },
    {
      "inputs": [
        {
          "internalType": "bytes32",
          "name": "role",
          "type": "bytes32"
        },
        {
          "internalType": "address",
          "name": "account",
          "type": "address"
        }
      ],
      "name": "revokeRole",
      "outputs": [],
      "stateMutability": "nonpayable",
      "type": "function"
    },
    {
      "inputs": [
        {
          "internalType": "address",
          "name": "_address",
          "type": "address"
        },
        {
          "internalType": "bool",
          "name": "_isAdmin",
          "type": "bool"
        }
      ],
      "name": "setAdminRole",
      "outputs": [],
      "stateMutability": "nonpayable",
      "type": "function"
    },
    {
      "inputs": [
        {
          "internalType": "uint256",
          "name": "_cost",
          "type": "uint256"
        }
      ],
      "name": "setLotteryCost",
      "outputs": [],
      "stateMutability": "nonpayable",
      "type": "function"
    },
    {
      "inputs": [
        {
          "internalType": "uint256",
          "name": "_min",
          "type": "uint256"
        },
        {
          "internalType": "uint256",
          "name": "_max",
          "type": "uint256"
        }
      ],
      "name": "setLotteryNumberRange",
      "outputs": [],
      "stateMutability": "nonpayable",
      "type": "function"
    },
    {
      "inputs": [
        {
          "internalType": "uint256",
          "name": "_reward2nd",
          "type": "uint256"
        },
        {
          "internalType": "uint256",
          "name": "_reward3rd",
          "type": "uint256"
        }
      ],
      "name": "setLotteryOthersReward",
      "outputs": [],
      "stateMutability": "nonpayable",
      "type": "function"
    },
    {
      "inputs": [
        {
          "internalType": "uint256",
          "name": "_reward",
          "type": "uint256"
        }
      ],
      "name": "setLotteryReward",
      "outputs": [],
      "stateMutability": "nonpayable",
      "type": "function"
    },
    {
      "inputs": [
        {
          "internalType": "uint256",
          "name": "_capacity",
          "type": "uint256"
        }
      ],
      "name": "setLotteryRoomCap",
      "outputs": [],
      "stateMutability": "nonpayable",
      "type": "function"
    },
    {
      "inputs": [
        {
          "internalType": "address",
          "name": "_tokenContract",
          "type": "address"
        }
      ],
      "name": "setTokenContractAccount",
      "outputs": [],
      "stateMutability": "nonpayable",
      "type": "function"
    },
    {
      "inputs": [
        {
          "internalType": "uint256",
          "name": "_id",
          "type": "uint256"
        },
        {
          "internalType": "uint256",
          "name": "_expiredTime",
          "type": "uint256"
        }
      ],
      "name": "startBuyingLottery",
      "outputs": [],
      "stateMutability": "nonpayable",
      "type": "function"
    },
    {
      "inputs": [
        {
          "internalType": "uint256",
          "name": "_id",
          "type": "uint256"
        }
      ],
      "name": "stopBuyingLottery",
      "outputs": [],
      "stateMutability": "nonpayable",
      "type": "function"
    },
    {
      "inputs": [
        {
          "internalType": "bytes4",
          "name": "interfaceId",
          "type": "bytes4"
        }
      ],
      "name": "supportsInterface",
      "outputs": [
        {
          "internalType": "bool",
          "name": "",
          "type": "bool"
        }
      ],
      "stateMutability": "view",
      "type": "function"
    },
    {
      "inputs": [],
      "name": "tokenContractAccount",
      "outputs": [
        {
          "internalType": "address",
          "name": "",
          "type": "address"
        }
      ],
      "stateMutability": "view",
      "type": "function"
    }
  ],
  "transactionHash": "0x9dd42bf4531101023388924450e539987e1a8776b7390d1b258a5b157b2c43d7",
  "args": [
    "0xC70Edf3aB36E0D57eFD8f412A3460D225931A110",
    [
      "0xdfD8aD94C4AB86e21a2b8695e3791D28B83984Ef",
      "0xC70Edf3aB36E0D57eFD8f412A3460D225931A110",
      "0x5572eAA48D9CF8Ae04C7813B5638349d641a7B91"
    ],
    "0x5C044157Ef3230F27cB7ed236dDcAc1e683D2afC",
    "7653886518953440014063808005453529807334632176305562367805319557250940330823"
  ],
  "numDeployments": 5,
  "solcInputHash": "0a9557d3b6a29e72d611642c416dc1d3",
  "bytecode": "0x60a0604052670de0b6b3a76400006002819055600060035561270f6004556200002a90600a6200062e565b6006556001600b556002805462000041916200062e565b600d5560028054620000559060036200062e565b62000061919062000648565b600e553480156200007157600080fd5b506040516200320b3803806200320b83398101604081905262000094916200069e565b6001600160a01b038416608052600581905583838383620000b582620001af565b620000d0600080516020620031cb8339815191528562000297565b825160005b8181101562000130576200011b600080516020620031cb833981519152868381518110620001075762000107620007a1565b60200260200101516200029760201b60201c565b806200012781620007b7565b915050620000d5565b5050505050506200014b600061270f6200032060201b60201c565b6200015e678ac7230489e80000620003f2565b6200017a6002546109c46200017491906200062e565b6200046d565b620001a560025460fa6200018f91906200062e565b6002546200019f9060196200062e565b620004e8565b5050505062000835565b6080516001600160a01b0316336001600160a01b03161480620001e85750620001e8600080516020620031cb8339815191523362000569565b620002295760405162461bcd60e51b815260206004820152601f6024820152600080516020620031eb83398151915260448201526064015b60405180910390fd5b600180546001600160a01b0319166001600160a01b03831690811790915560408051808201909152601681527f546f6b656e20436f6e7472616374204163636f756e740000000000000000000060208083019190915262000294929062000594811b62001a3517901c565b50565b620002a3828262000569565b6200031c576000828152602081815260408083206001600160a01b03851684529091529020805460ff19166001179055620002db3390565b6001600160a01b0316816001600160a01b0316837f2f8788117e7eff1d82e926ec794901d17c78024a50270940304540a733656f0d60405160405180910390a45b5050565b6080516001600160a01b0316336001600160a01b0316148062000359575062000359600080516020620031cb8339815191523362000569565b620003965760405162461bcd60e51b815260206004820152601f6024820152600080516020620031eb833981519152604482015260640162000220565b808210620003e75760405162461bcd60e51b815260206004820152601460248201527f496e76616c6964204e756d6265722052616e6765000000000000000000000000604482015260640162000220565b600391909155600455565b6080516001600160a01b0316336001600160a01b031614806200042b57506200042b600080516020620031cb8339815191523362000569565b620004685760405162461bcd60e51b815260206004820152601f6024820152600080516020620031eb833981519152604482015260640162000220565b600255565b6080516001600160a01b0316336001600160a01b03161480620004a65750620004a6600080516020620031cb8339815191523362000569565b620004e35760405162461bcd60e51b815260206004820152601f6024820152600080516020620031eb833981519152604482015260640162000220565b600655565b6080516001600160a01b0316336001600160a01b0316148062000521575062000521600080516020620031cb8339815191523362000569565b6200055e5760405162461bcd60e51b815260206004820152601f6024820152600080516020620031eb833981519152604482015260640162000220565b600d91909155600e55565b6000828152602081815260408083206001600160a01b038516845290915290205460ff165b92915050565b6200031c8282604051602401620005ad929190620007d3565b60408051601f198184030181529190526020810180516001600160e01b0390811663319af33360e01b17909152620005e116565b6200029481620005f760201b62001a7a1760201c565b60006a636f6e736f6c652e6c6f679050600080835160208501845afa505050565b634e487b7160e01b600052601160045260246000fd5b80820281158282048414176200058e576200058e62000618565b6000826200066657634e487b7160e01b600052601260045260246000fd5b500490565b80516001600160a01b03811681146200068357600080fd5b919050565b634e487b7160e01b600052604160045260246000fd5b60008060008060808587031215620006b557600080fd5b620006c0856200066b565b602086810151919550906001600160401b0380821115620006e057600080fd5b818801915088601f830112620006f557600080fd5b8151818111156200070a576200070a62000688565b8060051b604051601f19603f8301168101818110858211171562000732576200073262000688565b60405291825284820192508381018501918b8311156200075157600080fd5b938501935b828510156200077a576200076a856200066b565b8452938501939285019262000756565b80985050505050505062000791604086016200066b565b6060959095015193969295505050565b634e487b7160e01b600052603260045260246000fd5b600060018201620007cc57620007cc62000618565b5060010190565b604081526000835180604084015260005b81811015620008035760208187018101516060868401015201620007e4565b50600060608285018101919091526001600160a01b03949094166020840152601f01601f191690910190910192915050565b6080516128fc620008cf6000396000818161059b01528181610715015281816107db015281816108970152818161098101528181610a3801528181610b8f01528181610c6101528181610fa801528181611013015281816110e701528181611192015281816114a20152818161156201528181611614015281816116de015281816117c601528181611866015261191b01526128fc6000f3fe608060405234801561001057600080fd5b50600436106102955760003560e01c80637b2d6e0a11610167578063b1c45b16116100ce578063e75ff74f11610087578063e75ff74f1461066b578063e8228d0a1461067e578063efca233614610691578063f37dd6ce146106a4578063fccb8eb9146106b7578063ff19cf1d146106ca57600080fd5b8063b1c45b1614610603578063b613cb3d14610616578063c7d5c0a71461061f578063cc7a559e14610632578063d547741f14610645578063e720df151461065857600080fd5b806388578d441161012057806388578d441461057a578063893428091461058d5780638da5cb5b1461059657806391d14854146105d5578063a217fddf146105e8578063af36dafb146105f057600080fd5b80637b2d6e0a146105125780637e33f577146105255780637fdd98f214610538578063801700871461054b57806382e7a9761461055457806384f518691461056757600080fd5b806334135bfd1161020b5780634867b991116101c45780634867b991146104405780634e4623be1461045357806352ba5a541461046657806364166814146104795780636581f7291461048257806375b238fc146104fd57600080fd5b806334135bfd146103a457806336568abe146103ad578063365c99a0146103c057806338129153146103d35780633981d667146104255780633d725d681461043857600080fd5b806323b62aa31161025d57806323b62aa31461032c578063248a9ca31461033f5780632f2ff15d1461036257806330d0bd5514610375578063313c58821461037e578063339a64031461039157600080fd5b806301ffc9a71461029a5780630c3f4268146102c25780630d660ead146102d757806319f4a421146103105780631f7a350814610319575b600080fd5b6102ad6102a8366004612403565b6106d3565b60405190151581526020015b60405180910390f35b6102d56102d0366004612444565b61070a565b005b6103026102e536600461245f565b6000908152600a6020908152604080832033845290915290205490565b6040519081526020016102b9565b61030260075481565b6102d561032736600461245f565b6107d0565b6102d561033a36600461245f565b61088c565b61030261034d36600461245f565b60009081526020819052604090206001015490565b6102d5610370366004612478565b61094c565b61030260025481565b6102d561038c3660046124a4565b610976565b6102d561039f36600461245f565b610a2d565b610302600e5481565b6102d56103bb366004612478565b610b06565b6102d56103ce3660046124a4565b610b84565b6104146103e136600461245f565b6008602052600090815260409020805460018201546002830154600384015460049094015460ff90931693919290919085565b6040516102b99594939291906124dc565b6102d56104333660046124a4565b610c56565b600c54610302565b6102d561044e3660046124a4565b610d31565b6102d561046136600461245f565b610f9d565b6102d561047436600461245f565b611008565b610302600b5481565b6104d16104903660046124a4565b600960209081526000928352604080842090915290825290208054600182015460029092015460ff808316936101009093046001600160a01b031692911684565b6040805194151585526001600160a01b03909316602085015291830152151560608201526080016102b9565b6103026000805160206128a783398151915281565b6102d56105203660046124a4565b6110dc565b6102ad61053336600461245f565b61114d565b6102d561054636600461245f565b611187565b61030260065481565b6102ad61056236600461245f565b6111f2565b6102d56105753660046124a4565b61120a565b6103026105883660046124a4565b6113f4565b61030260035481565b6105bd7f000000000000000000000000000000000000000000000000000000000000000081565b6040516001600160a01b0390911681526020016102b9565b6102ad6105e3366004612478565b61146e565b610302600081565b6102d56105fe3660046124a4565b611497565b6102d56106113660046124a4565b611557565b610302600d5481565b6102d561062d36600461251f565b611609565b6102d56106403660046124a4565b6116d3565b6102d5610653366004612478565b611796565b6102d561066636600461254b565b6117bb565b6102d561067936600461245f565b611910565b61030261068c3660046124a4565b61197b565b6001546105bd906001600160a01b031681565b6103026106b236600461245f565b6119d6565b6103026106c5366004612587565b6119f7565b61030260045481565b60006001600160e01b03198216637965db0b60e01b148061070457506301ffc9a760e01b6001600160e01b03198316145b92915050565b336001600160a01b037f000000000000000000000000000000000000000000000000000000000000000016148061075457506107546000805160206128a78339815191523361146e565b6107795760405162461bcd60e51b8152600401610770906125bc565b60405180910390fd5b600180546001600160a01b0319166001600160a01b038316908117909155604080518082019091526016815275151bdad95b8810dbdb9d1c9858dd081058d8dbdd5b9d60521b60208201526107cd91611a35565b50565b336001600160a01b037f000000000000000000000000000000000000000000000000000000000000000016148061081a575061081a6000805160206128a78339815191523361146e565b6108365760405162461bcd60e51b8152600401610770906125bc565b600260008281526008602052604090205460ff16600481111561085b5761085b6124c6565b146108785760405162461bcd60e51b8152600401610770906125f3565b610883816003611a9b565b6107cd81611b0c565b336001600160a01b037f00000000000000000000000000000000000000000000000000000000000000001614806108d657506108d66000805160206128a78339815191523361146e565b6108f25760405162461bcd60e51b8152600401610770906125bc565b60008181526008602052604081205460ff166004811115610915576109156124c6565b146109325760405162461bcd60e51b8152600401610770906125f3565b61093d816001611a9b565b6007548111156107cd57600755565b60008281526020819052604090206001015461096781611be6565b6109718383611bf0565b505050565b336001600160a01b037f00000000000000000000000000000000000000000000000000000000000000001614806109c057506109c06000805160206128a78339815191523361146e565b6109dc5760405162461bcd60e51b8152600401610770906125bc565b808210610a225760405162461bcd60e51b8152602060048201526014602482015273496e76616c6964204e756d6265722052616e676560601b6044820152606401610770565b600391909155600455565b336001600160a01b037f0000000000000000000000000000000000000000000000000000000000000000161480610a775750610a776000805160206128a78339815191523361146e565b610a935760405162461bcd60e51b8152600401610770906125bc565b600360008281526008602052604090205460ff166004811115610ab857610ab86124c6565b14610ad55760405162461bcd60e51b8152600401610770906125f3565b610ae0816004611a9b565b6000818152600860205260409020426002909101556107cd81610b01611c74565b611d12565b6001600160a01b0381163314610b765760405162461bcd60e51b815260206004820152602f60248201527f416363657373436f6e74726f6c3a2063616e206f6e6c792072656e6f756e636560448201526e103937b632b9903337b91039b2b63360891b6064820152608401610770565b610b808282611db1565b5050565b336001600160a01b037f0000000000000000000000000000000000000000000000000000000000000000161480610bce5750610bce6000805160206128a78339815191523361146e565b610bea5760405162461bcd60e51b8152600401610770906125bc565b600360008381526008602052604090205460ff166004811115610c0f57610c0f6124c6565b14610c2c5760405162461bcd60e51b8152600401610770906125f3565b610c37826004611a9b565b600082815260086020526040902042600290910155610b808282611d12565b336001600160a01b037f0000000000000000000000000000000000000000000000000000000000000000161480610ca05750610ca06000805160206128a78339815191523361146e565b610cbc5760405162461bcd60e51b8152600401610770906125bc565b600260008381526008602052604090205460ff166004811115610ce157610ce16124c6565b14610cfe5760405162461bcd60e51b8152600401610770906125f3565b610d09826004611a9b565b600082815260086020526040902042600290910155610d288282611d12565b610b8082611b0c565b600460008381526008602052604090205460ff166004811115610d5657610d566124c6565b14610d735760405162461bcd60e51b8152600401610770906125f3565b610d7c816111f2565b610d985760405162461bcd60e51b815260040161077090612622565b600082815260096020908152604080832084845290915290205460ff16610df55760405162461bcd60e51b8152602060048201526011602482015270131bdd1d195c9e481b9bdd081bdddb9959607a1b6044820152606401610770565b600082815260096020908152604080832084845290915290205461010090046001600160a01b03163314610e5e5760405162461bcd60e51b815260206004820152601060248201526f4e6f7420796f7572206c6f747465727960801b6044820152606401610770565b600082815260096020908152604080832084845290915290206002015460ff1615610ebd5760405162461bcd60e51b815260206004820152600f60248201526e105b1c9958591e4818db185a5b5959608a1b6044820152606401610770565b60008281526009602090815260408083208484529091528120600201805460ff19166001179055610eee83836113f4565b90508015610f5b576001546040516308934a5f60e31b8152336004820152602481018390526001600160a01b039091169063449a52f890604401600060405180830381600087803b158015610f4257600080fd5b505af1158015610f56573d6000803e3d6000fd5b505050505b6040805183815260208101839052339185917f4356bf31c64f1ac8b08df10b8b5af582f0601a174a3c2c26b5af83754d0faaab910160405180910390a3505050565b336001600160a01b037f0000000000000000000000000000000000000000000000000000000000000000161480610fe75750610fe76000805160206128a78339815191523361146e565b6110035760405162461bcd60e51b8152600401610770906125bc565b600b55565b336001600160a01b037f000000000000000000000000000000000000000000000000000000000000000016148061105257506110526000805160206128a78339815191523361146e565b61106e5760405162461bcd60e51b8152600401610770906125bc565b600260008281526008602052604090205460ff166004811115611093576110936124c6565b146110b05760405162461bcd60e51b8152600401610770906125f3565b6110bb816004611a9b565b60008181526008602052604090204260029091015561088381610b01611c74565b336001600160a01b037f000000000000000000000000000000000000000000000000000000000000000016148061112657506111266000805160206128a78339815191523361146e565b6111425760405162461bcd60e51b8152600401610770906125bc565b600d91909155600e55565b600060035460045461115f9190612660565b61116a906001612673565b600092835260086020526040909220600401549190911015919050565b336001600160a01b037f00000000000000000000000000000000000000000000000000000000000000001614806111d157506111d16000805160206128a78339815191523361146e565b6111ed5760405162461bcd60e51b8152600401610770906125bc565b600655565b60006003548210158015610704575050600454101590565b600260008381526008602052604090205460ff16600481111561122f5761122f6124c6565b1461124c5760405162461bcd60e51b8152600401610770906125f3565b611255816111f2565b6112715760405162461bcd60e51b815260040161077090612622565b600082815260096020908152604080832084845290915290205460ff16156112cb5760405162461bcd60e51b815260206004820152600d60248201526c131bdd1d195c9e481bdddb9959609a1b6044820152606401610770565b60008281526008602052604081206004018054916112e883612686565b90915550506000828152600960209081526040808320848452825280832080543361010081026001600160a81b031990921691909117600190811783554292810192909255868552600a8452828520818652845282852080548084018255908652939094209092018490559054600254915163753c2d2f60e11b8152600481019390935260248301919091526001600160a01b03169063ea785a5e90604401600060405180830381600087803b1580156113a157600080fd5b505af11580156113b5573d6000803e3d6000fd5b50506040518381523392508491507f4332a5ad616ed3e7a80ed5b024f48fa29b0a2e421a97a5468682c189490a42e39060200160405180910390a35050565b6000600460008481526008602052604090205460ff16600481111561141b5761141b6124c6565b146114385760405162461bcd60e51b8152600401610770906125f3565b611441826111f2565b61145d5760405162461bcd60e51b815260040161077090612622565b611467838361197b565b9392505050565b6000918252602082815260408084206001600160a01b0393909316845291905290205460ff1690565b336001600160a01b037f00000000000000000000000000000000000000000000000000000000000000001614806114e157506114e16000805160206128a78339815191523361146e565b6114fd5760405162461bcd60e51b8152600401610770906125bc565b60008281526008602052604081205460ff166004811115611520576115206124c6565b1461153d5760405162461bcd60e51b8152600401610770906125f3565b6115478282611e16565b600754821115610b805750600755565b336001600160a01b037f00000000000000000000000000000000000000000000000000000000000000001614806115a157506115a16000805160206128a78339815191523361146e565b6115bd5760405162461bcd60e51b8152600401610770906125bc565b600160008381526008602052604090205460ff1660048111156115e2576115e26124c6565b146115ff5760405162461bcd60e51b8152600401610770906125f3565b610b808282611e16565b336001600160a01b037f000000000000000000000000000000000000000000000000000000000000000016148061165357506116536000805160206128a78339815191523361146e565b61166f5760405162461bcd60e51b8152600401610770906125bc565b600260008481526008602052604090205460ff166004811115611694576116946124c6565b146116b15760405162461bcd60e51b8152600401610770906125f3565b6116bb8383610c56565b61097160075460016116cd9190612673565b82611497565b336001600160a01b037f000000000000000000000000000000000000000000000000000000000000000016148061171d575061171d6000805160206128a78339815191523361146e565b6117395760405162461bcd60e51b8152600401610770906125bc565b600260008381526008602052604090205460ff16600481111561175e5761175e6124c6565b1461177b5760405162461bcd60e51b8152600401610770906125f3565b61178482611008565b610b8060075460016116cd9190612673565b6000828152602081905260409020600101546117b181611be6565b6109718383611db1565b336001600160a01b037f000000000000000000000000000000000000000000000000000000000000000016148061180557506118056000805160206128a78339815191523361146e565b6118215760405162461bcd60e51b8152600401610770906125bc565b6001600160a01b03821633036118645760405162461bcd60e51b81526020600482015260086024820152672737ba1039b2b63360c11b6044820152606401610770565b7f00000000000000000000000000000000000000000000000000000000000000006001600160a01b0316826001600160a01b0316036118da5760405162461bcd60e51b815260206004820152601260248201527127bbb732b91030b63bb0bcb99030b236b4b760711b6044820152606401610770565b80156118f857610b806000805160206128a783398151915283611bf0565b610b806000805160206128a783398151915283611db1565b336001600160a01b037f000000000000000000000000000000000000000000000000000000000000000016148061195a575061195a6000805160206128a78339815191523361146e565b6119765760405162461bcd60e51b8152600401610770906125bc565b600255565b60008281526008602052604081206003015482900361199d5750600654610704565b6119a78383611ebe565b156119b55750600d54610704565b6119bf8383611fd0565b156119cd5750600e54610704565b50600092915050565b600c81815481106119e657600080fd5b600091825260209091200154905081565b600a6020528260005260406000206020528160005260406000208181548110611a1f57600080fd5b9060005260206000200160009250925050505481565b610b808282604051602401611a4b9291906126ef565b60408051601f198184030181529190526020810180516001600160e01b031663319af33360e01b1790526120ac565b60006a636f6e736f6c652e6c6f679050600080835160208501845afa505050565b6000828152600860205260409020805482919060ff19166001836004811115611ac657611ac66124c6565b0217905550806004811115611add57611add6124c6565b60405183907f93c7a5a855fb1ada16d20fdbd62042d74afd1f997daa2e99b19a6dc0db99c15790600090a35050565b600c546000805b611b1e600184612660565b811015611bb95781158015611b4f575083600c8281548110611b4257611b42612719565b9060005260206000200154145b15611b5957600191505b8115611ba757600c611b6c826001612673565b81548110611b7c57611b7c612719565b9060005260206000200154600c8281548110611b9a57611b9a612719565b6000918252602090912001555b80611bb181612686565b915050611b13565b50600c805480611bcb57611bcb61272f565b60019003818190600052602060002001600090559055505050565b6107cd81336120b5565b611bfa828261146e565b610b80576000828152602081815260408083206001600160a01b03851684529091529020805460ff19166001179055611c303390565b6001600160a01b0316816001600160a01b0316837f2f8788117e7eff1d82e926ec794901d17c78024a50270940304540a733656f0d60405160405180910390a45050565b600042600554604051602001611c94929190918252602082015260400190565b60408051601f198184030181529190528051602090910120600555600354600454600091611cc191612660565b600554611cce919061275b565b600354611cdb9190612673565b9050611d0d6040518060400160405280600e81526020016d20b1ba3ab0b610273ab6b132b91d60911b8152508261210e565b919050565b611d1b816111f2565b611d5d5760405162461bcd60e51b815260206004820152601360248201527224b73b30b634b2103937b63610373ab6b132b960691b6044820152606401610770565b600082815260086020526040908190206003018290555182907f1f335420d08cd5804209879602adf0418a841b071cf4afcdda2806574eaff9a190611da59084815260200190565b60405180910390a25050565b611dbb828261146e565b15610b80576000828152602081815260408083206001600160a01b0385168085529252808320805460ff1916905551339285917ff6391f5c32d9c69d2a47ea670b442974b53935d1edc7fd64eb21e047a839171b9190a45050565b611e21826002611a9b565b6000828152600860205260409020600101819055600b54600c5410611e885760405162461bcd60e51b815260206004820152601b60248201527f5265616368206d6178696d756d20726f6f6d20636170616369747900000000006044820152606401610770565b50600c80546001810182556000919091527fdf6966c971051c3d54ec59162606531493a51404a002842f56009d7e5cf4a8c70155565b600080611eca83612153565b60008581526008602052604081206003015491925090611ee990612153565b905060015b60048160ff161015611fc457611f256040518060400160405280600681526020016564696769747360d01b8152508260ff1661210e565b611f67838260ff1660048110611f3d57611f3d612719565b602002015160ff16838360ff1660048110611f5a57611f5a612719565b602002015160ff166121e6565b818160ff1660048110611f7c57611f7c612719565b602002015160ff16838260ff1660048110611f9957611f99612719565b602002015160ff1614611fb25760009350505050610704565b80611fbc8161276f565b915050611eee565b50600195945050505050565b600080611fdc83612153565b60008581526008602052604081206003015491925090611ffb90612153565b905060025b60048160ff161015611fc4576120376040518060400160405280600681526020016564696769747360d01b8152508260ff1661210e565b61204f838260ff1660048110611f3d57611f3d612719565b818160ff166004811061206457612064612719565b602002015160ff16838260ff166004811061208157612081612719565b602002015160ff161461209a5760009350505050610704565b806120a48161276f565b915050612000565b6107cd81611a7a565b6120bf828261146e565b610b80576120cc8161222d565b6120d783602061223f565b6040516020016120e892919061278e565b60408051601f198184030181529082905262461bcd60e51b825261077091600401612803565b610b808282604051602401612124929190612816565b60408051601f198184030181529190526020810180516001600160e01b0316632d839cb360e21b1790526120ac565b61215b6123e5565b60408051608081018252600080825260208201819052918101829052606081019190915261218a600a8461275b565b60ff166060820152600a61219e8185612838565b6121a8919061275b565b60ff166040820152600a6121bd606485612838565b6121c7919061275b565b60ff1660208201526121db6103e884612838565b60ff16815292915050565b6040516024810183905260448101829052610b809060640160408051601f198184030181529190526020810180516001600160e01b0316637b3338ad60e11b1790526120ac565b60606107046001600160a01b03831660145b6060600061224e83600261284c565b612259906002612673565b67ffffffffffffffff81111561227157612271612863565b6040519080825280601f01601f19166020018201604052801561229b576020820181803683370190505b509050600360fc1b816000815181106122b6576122b6612719565b60200101906001600160f81b031916908160001a905350600f60fb1b816001815181106122e5576122e5612719565b60200101906001600160f81b031916908160001a905350600061230984600261284c565b612314906001612673565b90505b600181111561238c576f181899199a1a9b1b9c1cb0b131b232b360811b85600f166010811061234857612348612719565b1a60f81b82828151811061235e5761235e612719565b60200101906001600160f81b031916908160001a90535060049490941c9361238581612879565b9050612317565b5083156114675760405162461bcd60e51b815260206004820181905260248201527f537472696e67733a20686578206c656e67746820696e73756666696369656e746044820152606401610770565b6123e3612890565b565b60405180608001604052806004906020820280368337509192915050565b60006020828403121561241557600080fd5b81356001600160e01b03198116811461146757600080fd5b80356001600160a01b0381168114611d0d57600080fd5b60006020828403121561245657600080fd5b6114678261242d565b60006020828403121561247157600080fd5b5035919050565b6000806040838503121561248b57600080fd5b8235915061249b6020840161242d565b90509250929050565b600080604083850312156124b757600080fd5b50508035926020909101359150565b634e487b7160e01b600052602160045260246000fd5b60a08101600587106124fe57634e487b7160e01b600052602160045260246000fd5b95815260208101949094526040840192909252606083015260809091015290565b60008060006060848603121561253457600080fd5b505081359360208301359350604090920135919050565b6000806040838503121561255e57600080fd5b6125678361242d565b91506020830135801515811461257c57600080fd5b809150509250929050565b60008060006060848603121561259c57600080fd5b833592506125ac6020850161242d565b9150604084013590509250925092565b6020808252601f908201527f43616c6c6572206973206e6f7420616e2061646d696e206f72206f776e657200604082015260600190565b602080825260159082015274496e76616c6964206c6f747465727920737461746560581b604082015260600190565b6020808252600e908201526d24b73b30b634b210373ab6b132b960911b604082015260600190565b634e487b7160e01b600052601160045260246000fd5b818103818111156107045761070461264a565b808201808211156107045761070461264a565b6000600182016126985761269861264a565b5060010190565b60005b838110156126ba5781810151838201526020016126a2565b50506000910152565b600081518084526126db81602086016020860161269f565b601f01601f19169290920160200192915050565b60408152600061270260408301856126c3565b905060018060a01b03831660208301529392505050565b634e487b7160e01b600052603260045260246000fd5b634e487b7160e01b600052603160045260246000fd5b634e487b7160e01b600052601260045260246000fd5b60008261276a5761276a612745565b500690565b600060ff821660ff81036127855761278561264a565b60010192915050565b7f416363657373436f6e74726f6c3a206163636f756e74200000000000000000008152600083516127c681601785016020880161269f565b7001034b99036b4b9b9b4b733903937b6329607d1b60179184019182015283516127f781602884016020880161269f565b01602801949350505050565b60208152600061146760208301846126c3565b60408152600061282960408301856126c3565b90508260208301529392505050565b60008261284757612847612745565b500490565b80820281158282048414176107045761070461264a565b634e487b7160e01b600052604160045260246000fd5b6000816128885761288861264a565b506000190190565b634e487b7160e01b600052605160045260246000fdfea49807205ce4d355092ef5a8a18f56e8913cf4a201fbe287825b095693c21775a264697066735822122087d38f6f46765094488e2045c49f4154c01e68431259d9ee57965ea4328cc83364736f6c63430008110033a49807205ce4d355092ef5a8a18f56e8913cf4a201fbe287825b095693c2177543616c6c6572206973206e6f7420616e2061646d696e206f72206f776e657200",
  "devdoc": {
    "kind": "dev",
    "methods": {
      "getRoleAdmin(bytes32)": {
        "details": "Returns the admin role that controls `role`. See {grantRole} and {revokeRole}. To change a role's admin, use {_setRoleAdmin}."
      },
      "grantRole(bytes32,address)": {
        "details": "Grants `role` to `account`. If `account` had not been already granted `role`, emits a {RoleGranted} event. Requirements: - the caller must have ``role``'s admin role. May emit a {RoleGranted} event."
      },
      "hasRole(bytes32,address)": {
        "details": "Returns `true` if `account` has been granted `role`."
      },
      "renounceRole(bytes32,address)": {
        "details": "Revokes `role` from the calling account. Roles are often managed via {grantRole} and {revokeRole}: this function's purpose is to provide a mechanism for accounts to lose their privileges if they are compromised (such as when a trusted device is misplaced). If the calling account had been revoked `role`, emits a {RoleRevoked} event. Requirements: - the caller must be `account`. May emit a {RoleRevoked} event."
      },
      "revokeRole(bytes32,address)": {
        "details": "Revokes `role` from `account`. If `account` had been granted `role`, emits a {RoleRevoked} event. Requirements: - the caller must have ``role``'s admin role. May emit a {RoleRevoked} event."
      },
      "supportsInterface(bytes4)": {
        "details": "See {IERC165-supportsInterface}."
      }
    },
    "version": 1
  },
  "userdoc": {
    "kind": "user",
    "methods": {
      "declareLottery(uint256)": {
        "notice": "Change Lottery Section"
      },
      "fastStartLottery(uint256,uint256)": {
        "notice": "Fast Method"
      },
      "isLotteryRoomFull(uint256)": {
        "notice": "Misc"
      },
      "lotteryBuyCount(uint256)": {
        "notice": "Buyer Section"
      },
      "setAdminRole(address,bool)": {
        "notice": "Admin Setter Section"
      },
      "setLotteryNumberRange(uint256,uint256)": {
        "notice": "Lottery Number Section"
      },
      "setLotteryOthersReward(uint256,uint256)": {
        "notice": "Prize 1st => exact 2nd => match last 3 3rd => match last 2"
      }
    },
    "notice": "Itim Lottery 4 Digits Author: chan1sook Revision: 4 Last Updated: 2024-05-30 9:00",
    "version": 1
  },
  "storageLayout": {
    "storage": [
      {
        "astId": 24,
        "contract": "contracts/ItimLottery4Digits.sol:ItimLottery4Digits",
        "label": "_roles",
        "offset": 0,
        "slot": "0",
        "type": "t_mapping(t_bytes32,t_struct(RoleData)19_storage)"
      },
      {
        "astId": 3227,
        "contract": "contracts/ItimLottery4Digits.sol:ItimLottery4Digits",
        "label": "tokenContractAccount",
        "offset": 0,
        "slot": "1",
        "type": "t_address"
      },
      {
        "astId": 3230,
        "contract": "contracts/ItimLottery4Digits.sol:ItimLottery4Digits",
        "label": "lotteryCost",
        "offset": 0,
        "slot": "2",
        "type": "t_uint256"
      },
      {
        "astId": 3233,
        "contract": "contracts/ItimLottery4Digits.sol:ItimLottery4Digits",
        "label": "lotteryMinNumber",
        "offset": 0,
        "slot": "3",
        "type": "t_uint256"
      },
      {
        "astId": 3236,
        "contract": "contracts/ItimLottery4Digits.sol:ItimLottery4Digits",
        "label": "lotteryMaxNumber",
        "offset": 0,
        "slot": "4",
        "type": "t_uint256"
      },
      {
        "astId": 3238,
        "contract": "contracts/ItimLottery4Digits.sol:ItimLottery4Digits",
        "label": "randomSeed",
        "offset": 0,
        "slot": "5",
        "type": "t_uint256"
      },
      {
        "astId": 3243,
        "contract": "contracts/ItimLottery4Digits.sol:ItimLottery4Digits",
        "label": "lotteryReward",
        "offset": 0,
        "slot": "6",
        "type": "t_uint256"
      },
      {
        "astId": 3263,
        "contract": "contracts/ItimLottery4Digits.sol:ItimLottery4Digits",
        "label": "lastestLotteryId",
        "offset": 0,
        "slot": "7",
        "type": "t_uint256"
      },
      {
        "astId": 3268,
        "contract": "contracts/ItimLottery4Digits.sol:ItimLottery4Digits",
        "label": "lotteryData",
        "offset": 0,
        "slot": "8",
        "type": "t_mapping(t_uint256,t_struct(ItimLotteryData)3261_storage)"
      },
      {
        "astId": 3284,
        "contract": "contracts/ItimLottery4Digits.sol:ItimLottery4Digits",
        "label": "lotteryBuyData",
        "offset": 0,
        "slot": "9",
        "type": "t_mapping(t_uint256,t_mapping(t_uint256,t_struct(ItimLotteryBuyData)3277_storage))"
      },
      {
        "astId": 3291,
        "contract": "contracts/ItimLottery4Digits.sol:ItimLottery4Digits",
        "label": "lotteryBuyerData",
        "offset": 0,
        "slot": "10",
        "type": "t_mapping(t_uint256,t_mapping(t_address,t_array(t_uint256)dyn_storage))"
      },
      {
        "astId": 3294,
        "contract": "contracts/ItimLottery4Digits.sol:ItimLottery4Digits",
        "label": "lotteryRoomCapacity",
        "offset": 0,
        "slot": "11",
        "type": "t_uint256"
      },
      {
        "astId": 3297,
        "contract": "contracts/ItimLottery4Digits.sol:ItimLottery4Digits",
        "label": "lotteryRoomActives",
        "offset": 0,
        "slot": "12",
        "type": "t_array(t_uint256)dyn_storage"
      },
      {
        "astId": 2870,
        "contract": "contracts/ItimLottery4Digits.sol:ItimLottery4Digits",
        "label": "lotteryReward2nd",
        "offset": 0,
        "slot": "13",
        "type": "t_uint256"
      },
      {
        "astId": 2877,
        "contract": "contracts/ItimLottery4Digits.sol:ItimLottery4Digits",
        "label": "lotteryReward3rd",
        "offset": 0,
        "slot": "14",
        "type": "t_uint256"
      }
    ],
    "types": {
      "t_address": {
        "encoding": "inplace",
        "label": "address",
        "numberOfBytes": "20"
      },
      "t_array(t_uint256)dyn_storage": {
        "base": "t_uint256",
        "encoding": "dynamic_array",
        "label": "uint256[]",
        "numberOfBytes": "32"
      },
      "t_bool": {
        "encoding": "inplace",
        "label": "bool",
        "numberOfBytes": "1"
      },
      "t_bytes32": {
        "encoding": "inplace",
        "label": "bytes32",
        "numberOfBytes": "32"
      },
      "t_enum(ItimLotteryState)3249": {
        "encoding": "inplace",
        "label": "enum ItimLotteryBase.ItimLotteryState",
        "numberOfBytes": "1"
      },
      "t_mapping(t_address,t_array(t_uint256)dyn_storage)": {
        "encoding": "mapping",
        "key": "t_address",
        "label": "mapping(address => uint256[])",
        "numberOfBytes": "32",
        "value": "t_array(t_uint256)dyn_storage"
      },
      "t_mapping(t_address,t_bool)": {
        "encoding": "mapping",
        "key": "t_address",
        "label": "mapping(address => bool)",
        "numberOfBytes": "32",
        "value": "t_bool"
      },
      "t_mapping(t_bytes32,t_struct(RoleData)19_storage)": {
        "encoding": "mapping",
        "key": "t_bytes32",
        "label": "mapping(bytes32 => struct AccessControl.RoleData)",
        "numberOfBytes": "32",
        "value": "t_struct(RoleData)19_storage"
      },
      "t_mapping(t_uint256,t_mapping(t_address,t_array(t_uint256)dyn_storage))": {
        "encoding": "mapping",
        "key": "t_uint256",
        "label": "mapping(uint256 => mapping(address => uint256[]))",
        "numberOfBytes": "32",
        "value": "t_mapping(t_address,t_array(t_uint256)dyn_storage)"
      },
      "t_mapping(t_uint256,t_mapping(t_uint256,t_struct(ItimLotteryBuyData)3277_storage))": {
        "encoding": "mapping",
        "key": "t_uint256",
        "label": "mapping(uint256 => mapping(uint256 => struct ItimLotteryBase.ItimLotteryBuyData))",
        "numberOfBytes": "32",
        "value": "t_mapping(t_uint256,t_struct(ItimLotteryBuyData)3277_storage)"
      },
      "t_mapping(t_uint256,t_struct(ItimLotteryBuyData)3277_storage)": {
        "encoding": "mapping",
        "key": "t_uint256",
        "label": "mapping(uint256 => struct ItimLotteryBase.ItimLotteryBuyData)",
        "numberOfBytes": "32",
        "value": "t_struct(ItimLotteryBuyData)3277_storage"
      },
      "t_mapping(t_uint256,t_struct(ItimLotteryData)3261_storage)": {
        "encoding": "mapping",
        "key": "t_uint256",
        "label": "mapping(uint256 => struct ItimLotteryBase.ItimLotteryData)",
        "numberOfBytes": "32",
        "value": "t_struct(ItimLotteryData)3261_storage"
      },
      "t_struct(ItimLotteryBuyData)3277_storage": {
        "encoding": "inplace",
        "label": "struct ItimLotteryBase.ItimLotteryBuyData",
        "members": [
          {
            "astId": 3270,
            "contract": "contracts/ItimLottery4Digits.sol:ItimLottery4Digits",
            "label": "owned",
            "offset": 0,
            "slot": "0",
            "type": "t_bool"
          },
          {
            "astId": 3272,
            "contract": "contracts/ItimLottery4Digits.sol:ItimLottery4Digits",
            "label": "buyer",
            "offset": 1,
            "slot": "0",
            "type": "t_address"
          },
          {
            "astId": 3274,
            "contract": "contracts/ItimLottery4Digits.sol:ItimLottery4Digits",
            "label": "buyTime",
            "offset": 0,
            "slot": "1",
            "type": "t_uint256"
          },
          {
            "astId": 3276,
            "contract": "contracts/ItimLottery4Digits.sol:ItimLottery4Digits",
            "label": "claimed",
            "offset": 0,
            "slot": "2",
            "type": "t_bool"
          }
        ],
        "numberOfBytes": "96"
      },
      "t_struct(ItimLotteryData)3261_storage": {
        "encoding": "inplace",
        "label": "struct ItimLotteryBase.ItimLotteryData",
        "members": [
          {
            "astId": 3252,
            "contract": "contracts/ItimLottery4Digits.sol:ItimLottery4Digits",
            "label": "state",
            "offset": 0,
            "slot": "0",
            "type": "t_enum(ItimLotteryState)3249"
          },
          {
            "astId": 3254,
            "contract": "contracts/ItimLottery4Digits.sol:ItimLottery4Digits",
            "label": "expiredTime",
            "offset": 0,
            "slot": "1",
            "type": "t_uint256"
          },
          {
            "astId": 3256,
            "contract": "contracts/ItimLottery4Digits.sol:ItimLottery4Digits",
            "label": "drawTime",
            "offset": 0,
            "slot": "2",
            "type": "t_uint256"
          },
          {
            "astId": 3258,
            "contract": "contracts/ItimLottery4Digits.sol:ItimLottery4Digits",
            "label": "drawNumber",
            "offset": 0,
            "slot": "3",
            "type": "t_uint256"
          },
          {
            "astId": 3260,
            "contract": "contracts/ItimLottery4Digits.sol:ItimLottery4Digits",
            "label": "buyCount",
            "offset": 0,
            "slot": "4",
            "type": "t_uint256"
          }
        ],
        "numberOfBytes": "160"
      },
      "t_struct(RoleData)19_storage": {
        "encoding": "inplace",
        "label": "struct AccessControl.RoleData",
        "members": [
          {
            "astId": 16,
            "contract": "contracts/ItimLottery4Digits.sol:ItimLottery4Digits",
            "label": "members",
            "offset": 0,
            "slot": "0",
            "type": "t_mapping(t_address,t_bool)"
          },
          {
            "astId": 18,
            "contract": "contracts/ItimLottery4Digits.sol:ItimLottery4Digits",
            "label": "adminRole",
            "offset": 0,
            "slot": "1",
            "type": "t_bytes32"
          }
        ],
        "numberOfBytes": "64"
      },
      "t_uint256": {
        "encoding": "inplace",
        "label": "uint256",
        "numberOfBytes": "32"
      }
    }
  }
}