{
  "address": "0xED94B5EB52307d03985a3fc37E6E23BEB5Bd9065",
  "abi": [
    {
      "inputs": [
        {
          "internalType": "address",
          "name": "_owner",
          "type": "address"
        },
        {
          "internalType": "address[]",
          "name": "_admins",
          "type": "address[]"
        },
        {
          "internalType": "address",
          "name": "_tokenContractAccount",
          "type": "address"
        }
      ],
      "stateMutability": "nonpayable",
      "type": "constructor"
    },
    {
      "anonymous": false,
      "inputs": [
        {
          "indexed": true,
          "internalType": "bytes32",
          "name": "role",
          "type": "bytes32"
        },
        {
          "indexed": true,
          "internalType": "bytes32",
          "name": "previousAdminRole",
          "type": "bytes32"
        },
        {
          "indexed": true,
          "internalType": "bytes32",
          "name": "newAdminRole",
          "type": "bytes32"
        }
      ],
      "name": "RoleAdminChanged",
      "type": "event"
    },
    {
      "anonymous": false,
      "inputs": [
        {
          "indexed": true,
          "internalType": "bytes32",
          "name": "role",
          "type": "bytes32"
        },
        {
          "indexed": true,
          "internalType": "address",
          "name": "account",
          "type": "address"
        },
        {
          "indexed": true,
          "internalType": "address",
          "name": "sender",
          "type": "address"
        }
      ],
      "name": "RoleGranted",
      "type": "event"
    },
    {
      "anonymous": false,
      "inputs": [
        {
          "indexed": true,
          "internalType": "bytes32",
          "name": "role",
          "type": "bytes32"
        },
        {
          "indexed": true,
          "internalType": "address",
          "name": "account",
          "type": "address"
        },
        {
          "indexed": true,
          "internalType": "address",
          "name": "sender",
          "type": "address"
        }
      ],
      "name": "RoleRevoked",
      "type": "event"
    },
    {
      "stateMutability": "payable",
      "type": "fallback"
    },
    {
      "inputs": [],
      "name": "ADMIN_ROLE",
      "outputs": [
        {
          "internalType": "bytes32",
          "name": "",
          "type": "bytes32"
        }
      ],
      "stateMutability": "view",
      "type": "function"
    },
    {
      "inputs": [],
      "name": "DEFAULT_ADMIN_ROLE",
      "outputs": [
        {
          "internalType": "bytes32",
          "name": "",
          "type": "bytes32"
        }
      ],
      "stateMutability": "view",
      "type": "function"
    },
    {
      "inputs": [
        {
          "internalType": "uint256",
          "name": "value",
          "type": "uint256"
        }
      ],
      "name": "computeEtherToTokenExchange",
      "outputs": [
        {
          "internalType": "uint256",
          "name": "",
          "type": "uint256"
        }
      ],
      "stateMutability": "view",
      "type": "function"
    },
    {
      "inputs": [
        {
          "internalType": "uint256",
          "name": "value",
          "type": "uint256"
        }
      ],
      "name": "computeTokenToEtherExchange",
      "outputs": [
        {
          "internalType": "uint256",
          "name": "",
          "type": "uint256"
        }
      ],
      "stateMutability": "view",
      "type": "function"
    },
    {
      "inputs": [],
      "name": "exchangeBackFeePerEther",
      "outputs": [
        {
          "internalType": "uint256",
          "name": "",
          "type": "uint256"
        }
      ],
      "stateMutability": "view",
      "type": "function"
    },
    {
      "inputs": [],
      "name": "exchangeEtherToToken",
      "outputs": [],
      "stateMutability": "payable",
      "type": "function"
    },
    {
      "inputs": [],
      "name": "exchangeToFeeRatePerEther",
      "outputs": [
        {
          "internalType": "uint256",
          "name": "",
          "type": "uint256"
        }
      ],
      "stateMutability": "view",
      "type": "function"
    },
    {
      "inputs": [],
      "name": "exchangeToRatePerEther",
      "outputs": [
        {
          "internalType": "uint256",
          "name": "",
          "type": "uint256"
        }
      ],
      "stateMutability": "view",
      "type": "function"
    },
    {
      "inputs": [
        {
          "internalType": "uint256",
          "name": "itimAmount",
          "type": "uint256"
        }
      ],
      "name": "exchangeTokenBackToEther",
      "outputs": [],
      "stateMutability": "nonpayable",
      "type": "function"
    },
    {
      "inputs": [
        {
          "internalType": "bytes32",
          "name": "role",
          "type": "bytes32"
        }
      ],
      "name": "getRoleAdmin",
      "outputs": [
        {
          "internalType": "bytes32",
          "name": "",
          "type": "bytes32"
        }
      ],
      "stateMutability": "view",
      "type": "function"
    },
    {
      "inputs": [
        {
          "internalType": "bytes32",
          "name": "role",
          "type": "bytes32"
        },
        {
          "internalType": "address",
          "name": "account",
          "type": "address"
        }
      ],
      "name": "grantRole",
      "outputs": [],
      "stateMutability": "nonpayable",
      "type": "function"
    },
    {
      "inputs": [
        {
          "internalType": "bytes32",
          "name": "role",
          "type": "bytes32"
        },
        {
          "internalType": "address",
          "name": "account",
          "type": "address"
        }
      ],
      "name": "hasRole",
      "outputs": [
        {
          "internalType": "bool",
          "name": "",
          "type": "bool"
        }
      ],
      "stateMutability": "view",
      "type": "function"
    },
    {
      "inputs": [],
      "name": "owner",
      "outputs": [
        {
          "internalType": "address",
          "name": "",
          "type": "address"
        }
      ],
      "stateMutability": "view",
      "type": "function"
    },
    {
      "inputs": [
        {
          "internalType": "bytes32",
          "name": "role",
          "type": "bytes32"
        },
        {
          "internalType": "address",
          "name": "account",
          "type": "address"
        }
      ],
      "name": "renounceRole",
      "outputs": [],
      "stateMutability": "nonpayable",
      "type": "function"
    },
    {
      "inputs": [
        {
          "internalType": "bytes32",
          "name": "role",
          "type": "bytes32"
        },
        {
          "internalType": "address",
          "name": "account",
          "type": "address"
        }
      ],
      "name": "revokeRole",
      "outputs": [],
      "stateMutability": "nonpayable",
      "type": "function"
    },
    {
      "inputs": [
        {
          "internalType": "address",
          "name": "_address",
          "type": "address"
        },
        {
          "internalType": "bool",
          "name": "_isAdmin",
          "type": "bool"
        }
      ],
      "name": "setAdminRole",
      "outputs": [],
      "stateMutability": "nonpayable",
      "type": "function"
    },
    {
      "inputs": [
        {
          "internalType": "uint256",
          "name": "feeToPerEther",
          "type": "uint256"
        },
        {
          "internalType": "uint256",
          "name": "feeBackPerEther",
          "type": "uint256"
        }
      ],
      "name": "setExchangeFeeRate",
      "outputs": [],
      "stateMutability": "nonpayable",
      "type": "function"
    },
    {
      "inputs": [
        {
          "internalType": "uint256",
          "name": "tokenRate",
          "type": "uint256"
        }
      ],
      "name": "setExchangeTokenRate",
      "outputs": [],
      "stateMutability": "nonpayable",
      "type": "function"
    },
    {
      "inputs": [
        {
          "internalType": "address",
          "name": "_tokenContract",
          "type": "address"
        }
      ],
      "name": "setTokenContractAccount",
      "outputs": [],
      "stateMutability": "nonpayable",
      "type": "function"
    },
    {
      "inputs": [
        {
          "internalType": "bytes4",
          "name": "interfaceId",
          "type": "bytes4"
        }
      ],
      "name": "supportsInterface",
      "outputs": [
        {
          "internalType": "bool",
          "name": "",
          "type": "bool"
        }
      ],
      "stateMutability": "view",
      "type": "function"
    },
    {
      "inputs": [
        {
          "internalType": "uint256",
          "name": "amount",
          "type": "uint256"
        }
      ],
      "name": "tapEther",
      "outputs": [],
      "stateMutability": "nonpayable",
      "type": "function"
    },
    {
      "inputs": [],
      "name": "tokenContractAccount",
      "outputs": [
        {
          "internalType": "address",
          "name": "",
          "type": "address"
        }
      ],
      "stateMutability": "view",
      "type": "function"
    },
    {
      "stateMutability": "payable",
      "type": "receive"
    }
  ],
  "transactionHash": "0xfb22742b083d287042a0ad53efb8b903183c86652eece6d4b508db1154bcba84",
  "args": [
    "0xC70Edf3aB36E0D57eFD8f412A3460D225931A110",
    [
      "0xC70Edf3aB36E0D57eFD8f412A3460D225931A110",
      "0x5572eAA48D9CF8Ae04C7813B5638349d641a7B91"
    ],
    "0x5C044157Ef3230F27cB7ed236dDcAc1e683D2afC"
  ],
  "numDeployments": 2,
  "solcInputHash": "0a9557d3b6a29e72d611642c416dc1d3",
  "bytecode": "0x60a0604052683635c9adc5dea0000060025566b1a2bc2ec50000600355662386f26fc100006004553480156200003457600080fd5b5060405162001a2538038062001a2583398101604081905262000057916200035d565b6001600160a01b0383166080526200006f81620000f5565b6200008a60008051602062001a058339815191528462000205565b815160005b81811015620000ea57620000d560008051602062001a05833981519152858381518110620000c157620000c162000458565b60200260200101516200020560201b60201c565b80620000e1816200046e565b9150506200008f565b5050505050620004f8565b6080516001600160a01b0316336001600160a01b031614806200014657503360009081527f7d7ffb7a348e1c6a02869081a26547b49160dd3df72d1d75a570eb9b698292ec602052604090205460ff165b620001975760405162461bcd60e51b815260206004820152601f60248201527f43616c6c6572206973206e6f7420616e2061646d696e206f72206f776e657200604482015260640160405180910390fd5b600180546001600160a01b0319166001600160a01b03831690811790915560408051808201909152601681527f546f6b656e20436f6e7472616374204163636f756e7400000000000000000000602080830191909152620002029290620002a6811b62000d8917901c565b50565b6000828152602081815260408083206001600160a01b038516845290915290205460ff16620002a2576000828152602081815260408083206001600160a01b03851684529091529020805460ff19166001179055620002613390565b6001600160a01b0316816001600160a01b0316837f2f8788117e7eff1d82e926ec794901d17c78024a50270940304540a733656f0d60405160405180910390a45b5050565b620002a28282604051602401620002bf92919062000496565b60408051601f198184030181529190526020810180516001600160e01b0390811663319af33360e01b17909152620002f316565b62000202816200030960201b62000dce1760201c565b60006a636f6e736f6c652e6c6f679050600080835160208501845afa505050565b80516001600160a01b03811681146200034257600080fd5b919050565b634e487b7160e01b600052604160045260246000fd5b6000806000606084860312156200037357600080fd5b6200037e846200032a565b602085810151919450906001600160401b03808211156200039e57600080fd5b818701915087601f830112620003b357600080fd5b815181811115620003c857620003c862000347565b8060051b604051601f19603f83011681018181108582111715620003f057620003f062000347565b60405291825284820192508381018501918a8311156200040f57600080fd5b938501935b82851015620004385762000428856200032a565b8452938501939285019262000414565b8097505050505050506200044f604085016200032a565b90509250925092565b634e487b7160e01b600052603260045260246000fd5b6000600182016200048f57634e487b7160e01b600052601160045260246000fd5b5060010190565b604081526000835180604084015260005b81811015620004c65760208187018101516060868401015201620004a7565b50600060608285018101919091526001600160a01b03949094166020840152601f01601f191690910190910192915050565b6080516114c76200053e600039600081816102e7015281816104580152818161051e015281816108450152818161099001528181610a300152610ae501526114c76000f3fe60806040526004361061012d5760003560e01c806373bcdc77116100a5578063d547741f1161006c578063d547741f14610356578063e720df1514610376578063eb71077614610396578063ece9e97f146103b6578063efca2336146103d6578063f3c060c5146103f657005b806373bcdc771461029357806375b238fc146102b35780638da5cb5b146102d557806391d1485414610321578063a217fddf1461034157005b806336568abe116100f457806336568abe146102095780633ab82df6146102295780633b794ce41461024957806352ce82741461025f578063637b55eb1461027557806367fafaeb1461027d57005b806301ffc9a7146101365780630c3f42681461016b578063248a9ca31461018b5780632809cb54146101c95780632f2ff15d146101e957005b3661013457005b005b34801561014257600080fd5b50610156610151366004611144565b610416565b60405190151581526020015b60405180910390f35b34801561017757600080fd5b5061013461018636600461118a565b61044d565b34801561019757600080fd5b506101bb6101a63660046111a5565b60009081526020819052604090206001015490565b604051908152602001610162565b3480156101d557600080fd5b506101346101e43660046111be565b610513565b3480156101f557600080fd5b506101346102043660046111e0565b6105dd565b34801561021557600080fd5b506101346102243660046111e0565b610607565b34801561023557600080fd5b506101bb6102443660046111a5565b610685565b34801561025557600080fd5b506101bb60035481565b34801561026b57600080fd5b506101bb60025481565b610134610735565b34801561028957600080fd5b506101bb60045481565b34801561029f57600080fd5b506101346102ae3660046111a5565b61083a565b3480156102bf57600080fd5b506101bb60008051602061147283398151915281565b3480156102e157600080fd5b506103097f000000000000000000000000000000000000000000000000000000000000000081565b6040516001600160a01b039091168152602001610162565b34801561032d57600080fd5b5061015661033c3660046111e0565b610937565b34801561034d57600080fd5b506101bb600081565b34801561036257600080fd5b506101346103713660046111e0565b610960565b34801561038257600080fd5b5061013461039136600461120c565b610985565b3480156103a257600080fd5b506101346103b13660046111a5565b610ada565b3480156103c257600080fd5b506101346103d13660046111a5565b610b45565b3480156103e257600080fd5b50600154610309906001600160a01b031681565b34801561040257600080fd5b506101bb6104113660046111a5565b610ce1565b60006001600160e01b03198216637965db0b60e01b148061044757506301ffc9a760e01b6001600160e01b03198316145b92915050565b336001600160a01b037f0000000000000000000000000000000000000000000000000000000000000000161480610497575061049760008051602061147283398151915233610937565b6104bc5760405162461bcd60e51b81526004016104b390611248565b60405180910390fd5b600180546001600160a01b0319166001600160a01b038316908117909155604080518082019091526016815275151bdad95b8810dbdb9d1c9858dd081058d8dbdd5b9d60521b602082015261051091610d89565b50565b336001600160a01b037f000000000000000000000000000000000000000000000000000000000000000016148061055d575061055d60008051602061147283398151915233610937565b6105795760405162461bcd60e51b81526004016104b390611248565b670de0b6b3a7640000821080156105975750670de0b6b3a764000081105b6105d25760405162461bcd60e51b815260206004820152600c60248201526b546f6f206d7563682066656560a01b60448201526064016104b3565b600391909155600455565b6000828152602081905260409020600101546105f881610def565b6106028383610df9565b505050565b6001600160a01b03811633146106775760405162461bcd60e51b815260206004820152602f60248201527f416363657373436f6e74726f6c3a2063616e206f6e6c792072656e6f756e636560448201526e103937b632b9903337b91039b2b63360891b60648201526084016104b3565b6106818282610e7d565b5050565b600080670de0b6b3a76400006004548461069f9190611295565b6106a991906112ac565b905060006106b782856112ce565b90506106df604051806040016040528060048152602001632332b29d60e11b81525083610ee2565b61070e6040518060400160405280600d81526020016c2a37b5b2b7102932b6b0b4b71d60991b81525082610ee2565b60025461072382670de0b6b3a7640000611295565b61072d91906112ac565b949350505050565b600034116107765760405162461bcd60e51b815260206004820152600e60248201526d2932b8bab4b932b21022ba3432b960911b60448201526064016104b3565b61079e6040518060400160405280600681526020016522ba3432b91d60d11b81525034610ee2565b60006107a934610ce1565b90506107d3604051806040016040528060068152602001652a37ba30b61d60d11b81525082610ee2565b6001546040516308934a5f60e31b8152336004820152602481018390526001600160a01b039091169063449a52f890604401600060405180830381600087803b15801561081f57600080fd5b505af1158015610833573d6000803e3d6000fd5b5050505050565b336001600160a01b037f0000000000000000000000000000000000000000000000000000000000000000161480610884575061088460008051602061147283398151915233610937565b6108a05760405162461bcd60e51b81526004016104b390611248565b600081116108ad57600080fd5b604051600090339083908381818185875af1925050503d80600081146108ef576040519150601f19603f3d011682016040523d82523d6000602084013e6108f4565b606091505b50509050806106815760405162461bcd60e51b815260206004820152600f60248201526e2830bcb6b2b73a103330b4b632b21760891b60448201526064016104b3565b6000918252602082815260408084206001600160a01b0393909316845291905290205460ff1690565b60008281526020819052604090206001015461097b81610def565b6106028383610e7d565b336001600160a01b037f00000000000000000000000000000000000000000000000000000000000000001614806109cf57506109cf60008051602061147283398151915233610937565b6109eb5760405162461bcd60e51b81526004016104b390611248565b6001600160a01b0382163303610a2e5760405162461bcd60e51b81526020600482015260086024820152672737ba1039b2b63360c11b60448201526064016104b3565b7f00000000000000000000000000000000000000000000000000000000000000006001600160a01b0316826001600160a01b031603610aa45760405162461bcd60e51b815260206004820152601260248201527127bbb732b91030b63bb0bcb99030b236b4b760711b60448201526064016104b3565b8015610ac25761068160008051602061147283398151915283610df9565b61068160008051602061147283398151915283610e7d565b336001600160a01b037f0000000000000000000000000000000000000000000000000000000000000000161480610b245750610b2460008051602061147283398151915233610937565b610b405760405162461bcd60e51b81526004016104b390611248565b600255565b60008111610b865760405162461bcd60e51b815260206004820152600e60248201526d2932b8bab4b932b21022ba3432b960911b60448201526064016104b3565b610bb56040518060400160405280600d81526020016c2a37b5b2b71020b6b7bab73a1d60991b81525082610ee2565b6000610bc082610685565b9050610bf36040518060400160405280600f81526020016e2932b8bab4b932b21022ba3432b91d60891b81525082610ee2565b60015460405163753c2d2f60e11b8152336004820152602481018490526001600160a01b039091169063ea785a5e90604401600060405180830381600087803b158015610c3f57600080fd5b505af1158015610c53573d6000803e3d6000fd5b50506040516000925033915083908381818185875af1925050503d8060008114610c99576040519150601f19603f3d011682016040523d82523d6000602084013e610c9e565b606091505b50509050806106025760405162461bcd60e51b815260206004820152600f60248201526e2830bcb6b2b73a103330b4b632b21760891b60448201526064016104b3565b600080670de0b6b3a764000060025484610cfb9190611295565b610d0591906112ac565b90506000670de0b6b3a764000060035483610d209190611295565b610d2a91906112ac565b9050610d596040518060400160405280600b81526020016a2a37b5b2b71023b0b4b71d60a91b81525083610ee2565b610d7f604051806040016040528060048152602001632332b29d60e11b81525082610ee2565b61072d81836112ce565b6106818282604051602401610d9f929190611331565b60408051601f198184030181529190526020810180516001600160e01b031663319af33360e01b179052610f23565b60006a636f6e736f6c652e6c6f679050600080835160208501845afa505050565b6105108133610f2c565b610e038282610937565b610681576000828152602081815260408083206001600160a01b03851684529091529020805460ff19166001179055610e393390565b6001600160a01b0316816001600160a01b0316837f2f8788117e7eff1d82e926ec794901d17c78024a50270940304540a733656f0d60405160405180910390a45050565b610e878282610937565b15610681576000828152602081815260408083206001600160a01b0385168085529252808320805460ff1916905551339285917ff6391f5c32d9c69d2a47ea670b442974b53935d1edc7fd64eb21e047a839171b9190a45050565b6106818282604051602401610ef892919061135b565b60408051601f198184030181529190526020810180516001600160e01b0316632d839cb360e21b1790525b61051081610dce565b610f368282610937565b61068157610f4381610f85565b610f4e836020610f97565b604051602001610f5f92919061137d565b60408051601f198184030181529082905262461bcd60e51b82526104b3916004016113f2565b60606104476001600160a01b03831660145b60606000610fa6836002611295565b610fb1906002611405565b67ffffffffffffffff811115610fc957610fc9611418565b6040519080825280601f01601f191660200182016040528015610ff3576020820181803683370190505b509050600360fc1b8160008151811061100e5761100e61142e565b60200101906001600160f81b031916908160001a905350600f60fb1b8160018151811061103d5761103d61142e565b60200101906001600160f81b031916908160001a9053506000611061846002611295565b61106c906001611405565b90505b60018111156110e4576f181899199a1a9b1b9c1cb0b131b232b360811b85600f16601081106110a0576110a061142e565b1a60f81b8282815181106110b6576110b661142e565b60200101906001600160f81b031916908160001a90535060049490941c936110dd81611444565b905061106f565b5083156111335760405162461bcd60e51b815260206004820181905260248201527f537472696e67733a20686578206c656e67746820696e73756666696369656e7460448201526064016104b3565b9392505050565b61114261145b565b565b60006020828403121561115657600080fd5b81356001600160e01b03198116811461113357600080fd5b80356001600160a01b038116811461118557600080fd5b919050565b60006020828403121561119c57600080fd5b6111338261116e565b6000602082840312156111b757600080fd5b5035919050565b600080604083850312156111d157600080fd5b50508035926020909101359150565b600080604083850312156111f357600080fd5b823591506112036020840161116e565b90509250929050565b6000806040838503121561121f57600080fd5b6112288361116e565b91506020830135801515811461123d57600080fd5b809150509250929050565b6020808252601f908201527f43616c6c6572206973206e6f7420616e2061646d696e206f72206f776e657200604082015260600190565b634e487b7160e01b600052601160045260246000fd5b80820281158282048414176104475761044761127f565b6000826112c957634e487b7160e01b600052601260045260246000fd5b500490565b818103818111156104475761044761127f565b60005b838110156112fc5781810151838201526020016112e4565b50506000910152565b6000815180845261131d8160208601602086016112e1565b601f01601f19169290920160200192915050565b6040815260006113446040830185611305565b905060018060a01b03831660208301529392505050565b60408152600061136e6040830185611305565b90508260208301529392505050565b7f416363657373436f6e74726f6c3a206163636f756e74200000000000000000008152600083516113b58160178501602088016112e1565b7001034b99036b4b9b9b4b733903937b6329607d1b60179184019182015283516113e68160288401602088016112e1565b01602801949350505050565b6020815260006111336020830184611305565b808201808211156104475761044761127f565b634e487b7160e01b600052604160045260246000fd5b634e487b7160e01b600052603260045260246000fd5b6000816114535761145361127f565b506000190190565b634e487b7160e01b600052605160045260246000fdfea49807205ce4d355092ef5a8a18f56e8913cf4a201fbe287825b095693c21775a2646970667358221220cf5d95f70d42428879808e96442505281f321fb34e37f77e66a9da433357a9e064736f6c63430008110033a49807205ce4d355092ef5a8a18f56e8913cf4a201fbe287825b095693c21775",
  "devdoc": {
    "kind": "dev",
    "methods": {
      "getRoleAdmin(bytes32)": {
        "details": "Returns the admin role that controls `role`. See {grantRole} and {revokeRole}. To change a role's admin, use {_setRoleAdmin}."
      },
      "grantRole(bytes32,address)": {
        "details": "Grants `role` to `account`. If `account` had not been already granted `role`, emits a {RoleGranted} event. Requirements: - the caller must have ``role``'s admin role. May emit a {RoleGranted} event."
      },
      "hasRole(bytes32,address)": {
        "details": "Returns `true` if `account` has been granted `role`."
      },
      "renounceRole(bytes32,address)": {
        "details": "Revokes `role` from the calling account. Roles are often managed via {grantRole} and {revokeRole}: this function's purpose is to provide a mechanism for accounts to lose their privileges if they are compromised (such as when a trusted device is misplaced). If the calling account had been revoked `role`, emits a {RoleRevoked} event. Requirements: - the caller must be `account`. May emit a {RoleRevoked} event."
      },
      "revokeRole(bytes32,address)": {
        "details": "Revokes `role` from `account`. If `account` had been granted `role`, emits a {RoleRevoked} event. Requirements: - the caller must have ``role``'s admin role. May emit a {RoleRevoked} event."
      },
      "supportsInterface(bytes4)": {
        "details": "See {IERC165-supportsInterface}."
      }
    },
    "version": 1
  },
  "userdoc": {
    "kind": "user",
    "methods": {
      "computeEtherToTokenExchange(uint256)": {
        "notice": "expose compute functions"
      },
      "setAdminRole(address,bool)": {
        "notice": "Admin Setter Section"
      }
    },
    "notice": "Itim Lottery Exchange Author: chan1sook Revision: 4 Last Updated: 2024-05-30 9:00",
    "version": 1
  },
  "storageLayout": {
    "storage": [
      {
        "astId": 24,
        "contract": "contracts/ItimLotteryExchange.sol:ItimLotteryExchange",
        "label": "_roles",
        "offset": 0,
        "slot": "0",
        "type": "t_mapping(t_bytes32,t_struct(RoleData)19_storage)"
      },
      {
        "astId": 4398,
        "contract": "contracts/ItimLotteryExchange.sol:ItimLotteryExchange",
        "label": "tokenContractAccount",
        "offset": 0,
        "slot": "1",
        "type": "t_address"
      },
      {
        "astId": 4401,
        "contract": "contracts/ItimLotteryExchange.sol:ItimLotteryExchange",
        "label": "exchangeToRatePerEther",
        "offset": 0,
        "slot": "2",
        "type": "t_uint256"
      },
      {
        "astId": 4404,
        "contract": "contracts/ItimLotteryExchange.sol:ItimLotteryExchange",
        "label": "exchangeToFeeRatePerEther",
        "offset": 0,
        "slot": "3",
        "type": "t_uint256"
      },
      {
        "astId": 4407,
        "contract": "contracts/ItimLotteryExchange.sol:ItimLotteryExchange",
        "label": "exchangeBackFeePerEther",
        "offset": 0,
        "slot": "4",
        "type": "t_uint256"
      }
    ],
    "types": {
      "t_address": {
        "encoding": "inplace",
        "label": "address",
        "numberOfBytes": "20"
      },
      "t_bool": {
        "encoding": "inplace",
        "label": "bool",
        "numberOfBytes": "1"
      },
      "t_bytes32": {
        "encoding": "inplace",
        "label": "bytes32",
        "numberOfBytes": "32"
      },
      "t_mapping(t_address,t_bool)": {
        "encoding": "mapping",
        "key": "t_address",
        "label": "mapping(address => bool)",
        "numberOfBytes": "32",
        "value": "t_bool"
      },
      "t_mapping(t_bytes32,t_struct(RoleData)19_storage)": {
        "encoding": "mapping",
        "key": "t_bytes32",
        "label": "mapping(bytes32 => struct AccessControl.RoleData)",
        "numberOfBytes": "32",
        "value": "t_struct(RoleData)19_storage"
      },
      "t_struct(RoleData)19_storage": {
        "encoding": "inplace",
        "label": "struct AccessControl.RoleData",
        "members": [
          {
            "astId": 16,
            "contract": "contracts/ItimLotteryExchange.sol:ItimLotteryExchange",
            "label": "members",
            "offset": 0,
            "slot": "0",
            "type": "t_mapping(t_address,t_bool)"
          },
          {
            "astId": 18,
            "contract": "contracts/ItimLotteryExchange.sol:ItimLotteryExchange",
            "label": "adminRole",
            "offset": 0,
            "slot": "1",
            "type": "t_bytes32"
          }
        ],
        "numberOfBytes": "64"
      },
      "t_uint256": {
        "encoding": "inplace",
        "label": "uint256",
        "numberOfBytes": "32"
      }
    }
  }
}