{
  "address": "0x8eb7140668E427190c4d03261DE0f64659100fDB",
  "abi": [
    {
      "inputs": [
        {
          "internalType": "address",
          "name": "_owner",
          "type": "address"
        },
        {
          "internalType": "address[]",
          "name": "_admins",
          "type": "address[]"
        },
        {
          "internalType": "address",
          "name": "_tokenContractAccount",
          "type": "address"
        },
        {
          "internalType": "uint256",
          "name": "_randomSeed",
          "type": "uint256"
        }
      ],
      "stateMutability": "nonpayable",
      "type": "constructor"
    },
    {
      "anonymous": false,
      "inputs": [
        {
          "indexed": true,
          "internalType": "uint256",
          "name": "id",
          "type": "uint256"
        },
        {
          "indexed": true,
          "internalType": "address",
          "name": "buyer",
          "type": "address"
        },
        {
          "indexed": false,
          "internalType": "uint256",
          "name": "number",
          "type": "uint256"
        }
      ],
      "name": "LotteryBuy",
      "type": "event"
    },
    {
      "anonymous": false,
      "inputs": [
        {
          "indexed": true,
          "internalType": "uint256",
          "name": "id",
          "type": "uint256"
        },
        {
          "indexed": true,
          "internalType": "address",
          "name": "claimer",
          "type": "address"
        },
        {
          "indexed": false,
          "internalType": "uint256",
          "name": "number",
          "type": "uint256"
        },
        {
          "indexed": false,
          "internalType": "uint256",
          "name": "amount",
          "type": "uint256"
        }
      ],
      "name": "LotteryClaim",
      "type": "event"
    },
    {
      "anonymous": false,
      "inputs": [
        {
          "indexed": true,
          "internalType": "uint256",
          "name": "id",
          "type": "uint256"
        },
        {
          "indexed": false,
          "internalType": "uint256",
          "name": "number",
          "type": "uint256"
        }
      ],
      "name": "LotteryRoll",
      "type": "event"
    },
    {
      "anonymous": false,
      "inputs": [
        {
          "indexed": true,
          "internalType": "uint256",
          "name": "id",
          "type": "uint256"
        },
        {
          "indexed": true,
          "internalType": "enum ItimLotteryBase.ItimLotteryState",
          "name": "state",
          "type": "uint8"
        }
      ],
      "name": "LotteryStateChange",
      "type": "event"
    },
    {
      "anonymous": false,
      "inputs": [
        {
          "indexed": true,
          "internalType": "bytes32",
          "name": "role",
          "type": "bytes32"
        },
        {
          "indexed": true,
          "internalType": "bytes32",
          "name": "previousAdminRole",
          "type": "bytes32"
        },
        {
          "indexed": true,
          "internalType": "bytes32",
          "name": "newAdminRole",
          "type": "bytes32"
        }
      ],
      "name": "RoleAdminChanged",
      "type": "event"
    },
    {
      "anonymous": false,
      "inputs": [
        {
          "indexed": true,
          "internalType": "bytes32",
          "name": "role",
          "type": "bytes32"
        },
        {
          "indexed": true,
          "internalType": "address",
          "name": "account",
          "type": "address"
        },
        {
          "indexed": true,
          "internalType": "address",
          "name": "sender",
          "type": "address"
        }
      ],
      "name": "RoleGranted",
      "type": "event"
    },
    {
      "anonymous": false,
      "inputs": [
        {
          "indexed": true,
          "internalType": "bytes32",
          "name": "role",
          "type": "bytes32"
        },
        {
          "indexed": true,
          "internalType": "address",
          "name": "account",
          "type": "address"
        },
        {
          "indexed": true,
          "internalType": "address",
          "name": "sender",
          "type": "address"
        }
      ],
      "name": "RoleRevoked",
      "type": "event"
    },
    {
      "inputs": [],
      "name": "ADMIN_ROLE",
      "outputs": [
        {
          "internalType": "bytes32",
          "name": "",
          "type": "bytes32"
        }
      ],
      "stateMutability": "view",
      "type": "function"
    },
    {
      "inputs": [],
      "name": "DEFAULT_ADMIN_ROLE",
      "outputs": [
        {
          "internalType": "bytes32",
          "name": "",
          "type": "bytes32"
        }
      ],
      "stateMutability": "view",
      "type": "function"
    },
    {
      "inputs": [
        {
          "internalType": "uint256",
          "name": "_id",
          "type": "uint256"
        },
        {
          "internalType": "uint256",
          "name": "_number",
          "type": "uint256"
        }
      ],
      "name": "_calculateRewardOfLotteryNumber",
      "outputs": [
        {
          "internalType": "uint256",
          "name": "",
          "type": "uint256"
        }
      ],
      "stateMutability": "view",
      "type": "function"
    },
    {
      "inputs": [
        {
          "internalType": "uint256",
          "name": "_id",
          "type": "uint256"
        },
        {
          "internalType": "uint256",
          "name": "_number",
          "type": "uint256"
        }
      ],
      "name": "buyLottery",
      "outputs": [],
      "stateMutability": "nonpayable",
      "type": "function"
    },
    {
      "inputs": [
        {
          "internalType": "uint256",
          "name": "_id",
          "type": "uint256"
        },
        {
          "internalType": "uint256",
          "name": "_number",
          "type": "uint256"
        }
      ],
      "name": "claimLottery",
      "outputs": [],
      "stateMutability": "nonpayable",
      "type": "function"
    },
    {
      "inputs": [
        {
          "internalType": "uint256",
          "name": "_id",
          "type": "uint256"
        }
      ],
      "name": "declareLottery",
      "outputs": [],
      "stateMutability": "nonpayable",
      "type": "function"
    },
    {
      "inputs": [
        {
          "internalType": "uint256",
          "name": "_id",
          "type": "uint256"
        }
      ],
      "name": "drawRandomNumber",
      "outputs": [],
      "stateMutability": "nonpayable",
      "type": "function"
    },
    {
      "inputs": [
        {
          "internalType": "uint256",
          "name": "_id",
          "type": "uint256"
        },
        {
          "internalType": "uint256",
          "name": "number",
          "type": "uint256"
        }
      ],
      "name": "drawRandomNumberWithResult",
      "outputs": [],
      "stateMutability": "nonpayable",
      "type": "function"
    },
    {
      "inputs": [
        {
          "internalType": "uint256",
          "name": "_id",
          "type": "uint256"
        },
        {
          "internalType": "uint256",
          "name": "_expiredTime",
          "type": "uint256"
        }
      ],
      "name": "fastStartLottery",
      "outputs": [],
      "stateMutability": "nonpayable",
      "type": "function"
    },
    {
      "inputs": [
        {
          "internalType": "uint256",
          "name": "_id",
          "type": "uint256"
        }
      ],
      "name": "fastStopLottery",
      "outputs": [],
      "stateMutability": "nonpayable",
      "type": "function"
    },
    {
      "inputs": [
        {
          "internalType": "uint256",
          "name": "_id",
          "type": "uint256"
        },
        {
          "internalType": "uint256",
          "name": "_expiredTime",
          "type": "uint256"
        }
      ],
      "name": "fastStopLotteryAndRestart",
      "outputs": [],
      "stateMutability": "nonpayable",
      "type": "function"
    },
    {
      "inputs": [
        {
          "internalType": "uint256",
          "name": "_id",
          "type": "uint256"
        },
        {
          "internalType": "uint256",
          "name": "number",
          "type": "uint256"
        }
      ],
      "name": "fastStopLotteryWithResult",
      "outputs": [],
      "stateMutability": "nonpayable",
      "type": "function"
    },
    {
      "inputs": [
        {
          "internalType": "uint256",
          "name": "_id",
          "type": "uint256"
        },
        {
          "internalType": "uint256",
          "name": "number",
          "type": "uint256"
        },
        {
          "internalType": "uint256",
          "name": "_expiredTime",
          "type": "uint256"
        }
      ],
      "name": "fastStopLotteryWithResultAndRestart",
      "outputs": [],
      "stateMutability": "nonpayable",
      "type": "function"
    },
    {
      "inputs": [
        {
          "internalType": "uint256",
          "name": "_id",
          "type": "uint256"
        },
        {
          "internalType": "uint256",
          "name": "_number",
          "type": "uint256"
        }
      ],
      "name": "getRewardOfLottery",
      "outputs": [
        {
          "internalType": "uint256",
          "name": "",
          "type": "uint256"
        }
      ],
      "stateMutability": "view",
      "type": "function"
    },
    {
      "inputs": [
        {
          "internalType": "bytes32",
          "name": "role",
          "type": "bytes32"
        }
      ],
      "name": "getRoleAdmin",
      "outputs": [
        {
          "internalType": "bytes32",
          "name": "",
          "type": "bytes32"
        }
      ],
      "stateMutability": "view",
      "type": "function"
    },
    {
      "inputs": [
        {
          "internalType": "bytes32",
          "name": "role",
          "type": "bytes32"
        },
        {
          "internalType": "address",
          "name": "account",
          "type": "address"
        }
      ],
      "name": "grantRole",
      "outputs": [],
      "stateMutability": "nonpayable",
      "type": "function"
    },
    {
      "inputs": [
        {
          "internalType": "bytes32",
          "name": "role",
          "type": "bytes32"
        },
        {
          "internalType": "address",
          "name": "account",
          "type": "address"
        }
      ],
      "name": "hasRole",
      "outputs": [
        {
          "internalType": "bool",
          "name": "",
          "type": "bool"
        }
      ],
      "stateMutability": "view",
      "type": "function"
    },
    {
      "inputs": [
        {
          "internalType": "uint256",
          "name": "_id",
          "type": "uint256"
        }
      ],
      "name": "isLotteryRoomFull",
      "outputs": [
        {
          "internalType": "bool",
          "name": "",
          "type": "bool"
        }
      ],
      "stateMutability": "view",
      "type": "function"
    },
    {
      "inputs": [
        {
          "internalType": "uint256",
          "name": "_number",
          "type": "uint256"
        }
      ],
      "name": "isValidNumber",
      "outputs": [
        {
          "internalType": "bool",
          "name": "",
          "type": "bool"
        }
      ],
      "stateMutability": "view",
      "type": "function"
    },
    {
      "inputs": [],
      "name": "lastestLotteryId",
      "outputs": [
        {
          "internalType": "uint256",
          "name": "",
          "type": "uint256"
        }
      ],
      "stateMutability": "view",
      "type": "function"
    },
    {
      "inputs": [
        {
          "internalType": "uint256",
          "name": "_id",
          "type": "uint256"
        }
      ],
      "name": "lotteryBuyCount",
      "outputs": [
        {
          "internalType": "uint256",
          "name": "",
          "type": "uint256"
        }
      ],
      "stateMutability": "view",
      "type": "function"
    },
    {
      "inputs": [
        {
          "internalType": "uint256",
          "name": "",
          "type": "uint256"
        },
        {
          "internalType": "uint256",
          "name": "",
          "type": "uint256"
        }
      ],
      "name": "lotteryBuyData",
      "outputs": [
        {
          "internalType": "bool",
          "name": "owned",
          "type": "bool"
        },
        {
          "internalType": "address",
          "name": "buyer",
          "type": "address"
        },
        {
          "internalType": "uint256",
          "name": "buyTime",
          "type": "uint256"
        },
        {
          "internalType": "bool",
          "name": "claimed",
          "type": "bool"
        }
      ],
      "stateMutability": "view",
      "type": "function"
    },
    {
      "inputs": [
        {
          "internalType": "uint256",
          "name": "",
          "type": "uint256"
        },
        {
          "internalType": "address",
          "name": "",
          "type": "address"
        },
        {
          "internalType": "uint256",
          "name": "",
          "type": "uint256"
        }
      ],
      "name": "lotteryBuyerData",
      "outputs": [
        {
          "internalType": "uint256",
          "name": "",
          "type": "uint256"
        }
      ],
      "stateMutability": "view",
      "type": "function"
    },
    {
      "inputs": [],
      "name": "lotteryCost",
      "outputs": [
        {
          "internalType": "uint256",
          "name": "",
          "type": "uint256"
        }
      ],
      "stateMutability": "view",
      "type": "function"
    },
    {
      "inputs": [
        {
          "internalType": "uint256",
          "name": "",
          "type": "uint256"
        }
      ],
      "name": "lotteryData",
      "outputs": [
        {
          "internalType": "enum ItimLotteryBase.ItimLotteryState",
          "name": "state",
          "type": "uint8"
        },
        {
          "internalType": "uint256",
          "name": "expiredTime",
          "type": "uint256"
        },
        {
          "internalType": "uint256",
          "name": "drawTime",
          "type": "uint256"
        },
        {
          "internalType": "uint256",
          "name": "drawNumber",
          "type": "uint256"
        },
        {
          "internalType": "uint256",
          "name": "buyCount",
          "type": "uint256"
        }
      ],
      "stateMutability": "view",
      "type": "function"
    },
    {
      "inputs": [],
      "name": "lotteryMaxNumber",
      "outputs": [
        {
          "internalType": "uint256",
          "name": "",
          "type": "uint256"
        }
      ],
      "stateMutability": "view",
      "type": "function"
    },
    {
      "inputs": [],
      "name": "lotteryMinNumber",
      "outputs": [
        {
          "internalType": "uint256",
          "name": "",
          "type": "uint256"
        }
      ],
      "stateMutability": "view",
      "type": "function"
    },
    {
      "inputs": [],
      "name": "lotteryReward",
      "outputs": [
        {
          "internalType": "uint256",
          "name": "",
          "type": "uint256"
        }
      ],
      "stateMutability": "view",
      "type": "function"
    },
    {
      "inputs": [
        {
          "internalType": "uint256",
          "name": "",
          "type": "uint256"
        }
      ],
      "name": "lotteryRoomActives",
      "outputs": [
        {
          "internalType": "uint256",
          "name": "",
          "type": "uint256"
        }
      ],
      "stateMutability": "view",
      "type": "function"
    },
    {
      "inputs": [],
      "name": "lotteryRoomActivesLength",
      "outputs": [
        {
          "internalType": "uint256",
          "name": "",
          "type": "uint256"
        }
      ],
      "stateMutability": "view",
      "type": "function"
    },
    {
      "inputs": [],
      "name": "lotteryRoomCapacity",
      "outputs": [
        {
          "internalType": "uint256",
          "name": "",
          "type": "uint256"
        }
      ],
      "stateMutability": "view",
      "type": "function"
    },
    {
      "inputs": [],
      "name": "owner",
      "outputs": [
        {
          "internalType": "address",
          "name": "",
          "type": "address"
        }
      ],
      "stateMutability": "view",
      "type": "function"
    },
    {
      "inputs": [
        {
          "internalType": "bytes32",
          "name": "role",
          "type": "bytes32"
        },
        {
          "internalType": "address",
          "name": "account",
          "type": "address"
        }
      ],
      "name": "renounceRole",
      "outputs": [],
      "stateMutability": "nonpayable",
      "type": "function"
    },
    {
      "inputs": [
        {
          "internalType": "bytes32",
          "name": "role",
          "type": "bytes32"
        },
        {
          "internalType": "address",
          "name": "account",
          "type": "address"
        }
      ],
      "name": "revokeRole",
      "outputs": [],
      "stateMutability": "nonpayable",
      "type": "function"
    },
    {
      "inputs": [
        {
          "internalType": "address",
          "name": "_address",
          "type": "address"
        },
        {
          "internalType": "bool",
          "name": "_isAdmin",
          "type": "bool"
        }
      ],
      "name": "setAdminRole",
      "outputs": [],
      "stateMutability": "nonpayable",
      "type": "function"
    },
    {
      "inputs": [
        {
          "internalType": "uint256",
          "name": "_cost",
          "type": "uint256"
        }
      ],
      "name": "setLotteryCost",
      "outputs": [],
      "stateMutability": "nonpayable",
      "type": "function"
    },
    {
      "inputs": [
        {
          "internalType": "uint256",
          "name": "_min",
          "type": "uint256"
        },
        {
          "internalType": "uint256",
          "name": "_max",
          "type": "uint256"
        }
      ],
      "name": "setLotteryNumberRange",
      "outputs": [],
      "stateMutability": "nonpayable",
      "type": "function"
    },
    {
      "inputs": [
        {
          "internalType": "uint256",
          "name": "_reward",
          "type": "uint256"
        }
      ],
      "name": "setLotteryReward",
      "outputs": [],
      "stateMutability": "nonpayable",
      "type": "function"
    },
    {
      "inputs": [
        {
          "internalType": "uint256",
          "name": "_capacity",
          "type": "uint256"
        }
      ],
      "name": "setLotteryRoomCap",
      "outputs": [],
      "stateMutability": "nonpayable",
      "type": "function"
    },
    {
      "inputs": [
        {
          "internalType": "address",
          "name": "_tokenContract",
          "type": "address"
        }
      ],
      "name": "setTokenContractAccount",
      "outputs": [],
      "stateMutability": "nonpayable",
      "type": "function"
    },
    {
      "inputs": [
        {
          "internalType": "uint256",
          "name": "_id",
          "type": "uint256"
        },
        {
          "internalType": "uint256",
          "name": "_expiredTime",
          "type": "uint256"
        }
      ],
      "name": "startBuyingLottery",
      "outputs": [],
      "stateMutability": "nonpayable",
      "type": "function"
    },
    {
      "inputs": [
        {
          "internalType": "uint256",
          "name": "_id",
          "type": "uint256"
        }
      ],
      "name": "stopBuyingLottery",
      "outputs": [],
      "stateMutability": "nonpayable",
      "type": "function"
    },
    {
      "inputs": [
        {
          "internalType": "bytes4",
          "name": "interfaceId",
          "type": "bytes4"
        }
      ],
      "name": "supportsInterface",
      "outputs": [
        {
          "internalType": "bool",
          "name": "",
          "type": "bool"
        }
      ],
      "stateMutability": "view",
      "type": "function"
    },
    {
      "inputs": [],
      "name": "tokenContractAccount",
      "outputs": [
        {
          "internalType": "address",
          "name": "",
          "type": "address"
        }
      ],
      "stateMutability": "view",
      "type": "function"
    }
  ],
  "transactionHash": "0x8c6f613a23c71ee019e15eb1fa87df0116a81afb9bc8d96fed551af3ef1055da",
  "args": [
    "0xC70Edf3aB36E0D57eFD8f412A3460D225931A110",
    [
      "0xdfD8aD94C4AB86e21a2b8695e3791D28B83984Ef",
      "0xC70Edf3aB36E0D57eFD8f412A3460D225931A110",
      "0x5572eAA48D9CF8Ae04C7813B5638349d641a7B91"
    ],
    "0x5C044157Ef3230F27cB7ed236dDcAc1e683D2afC",
    "83354599119830683901792295110713766783933464038797360426474841556161664109671"
  ],
  "numDeployments": 10,
  "solcInputHash": "0a9557d3b6a29e72d611642c416dc1d3",
  "bytecode": "0x60a0604052670de0b6b3a76400006002819055600060035561270f6004556200002a90600a6200054f565b6006556001600b553480156200003f57600080fd5b5060405162002cfa38038062002cfa83398101604081905262000062916200059c565b6001600160a01b038416608052600581905583838383620000838262000151565b6200009e60008051602062002cba8339815191528562000239565b825160005b81811015620000fe57620000e960008051602062002cba833981519152868381518110620000d557620000d56200069f565b60200260200101516200023960201b60201c565b80620000f581620006b5565b915050620000a3565b5050505050506200011860006063620002c260201b60201c565b6200012c683635c9adc5dea0000062000394565b62000147600254603c6200014191906200054f565b6200040f565b5050505062000733565b6080516001600160a01b0316336001600160a01b031614806200018a57506200018a60008051602062002cba833981519152336200048a565b620001cb5760405162461bcd60e51b815260206004820152601f602482015260008051602062002cda83398151915260448201526064015b60405180910390fd5b600180546001600160a01b0319166001600160a01b03831690811790915560408051808201909152601681527f546f6b656e20436f6e7472616374204163636f756e7400000000000000000000602080830191909152620002369290620004b5811b6200194e17901c565b50565b6200024582826200048a565b620002be576000828152602081815260408083206001600160a01b03851684529091529020805460ff191660011790556200027d3390565b6001600160a01b0316816001600160a01b0316837f2f8788117e7eff1d82e926ec794901d17c78024a50270940304540a733656f0d60405160405180910390a45b5050565b6080516001600160a01b0316336001600160a01b03161480620002fb5750620002fb60008051602062002cba833981519152336200048a565b620003385760405162461bcd60e51b815260206004820152601f602482015260008051602062002cda8339815191526044820152606401620001c2565b808210620003895760405162461bcd60e51b815260206004820152601460248201527f496e76616c6964204e756d6265722052616e67650000000000000000000000006044820152606401620001c2565b600391909155600455565b6080516001600160a01b0316336001600160a01b03161480620003cd5750620003cd60008051602062002cba833981519152336200048a565b6200040a5760405162461bcd60e51b815260206004820152601f602482015260008051602062002cda8339815191526044820152606401620001c2565b600255565b6080516001600160a01b0316336001600160a01b031614806200044857506200044860008051602062002cba833981519152336200048a565b620004855760405162461bcd60e51b815260206004820152601f602482015260008051602062002cda8339815191526044820152606401620001c2565b600655565b6000828152602081815260408083206001600160a01b038516845290915290205460ff165b92915050565b620002be8282604051602401620004ce929190620006d1565b60408051601f198184030181529190526020810180516001600160e01b0390811663319af33360e01b179091526200050216565b62000236816200051860201b620019931760201c565b60006a636f6e736f6c652e6c6f679050600080835160208501845afa505050565b634e487b7160e01b600052601160045260246000fd5b8082028115828204841417620004af57620004af62000539565b80516001600160a01b03811681146200058157600080fd5b919050565b634e487b7160e01b600052604160045260246000fd5b60008060008060808587031215620005b357600080fd5b620005be8562000569565b602086810151919550906001600160401b0380821115620005de57600080fd5b818801915088601f830112620005f357600080fd5b81518181111562000608576200060862000586565b8060051b604051601f19603f8301168101818110858211171562000630576200063062000586565b60405291825284820192508381018501918b8311156200064f57600080fd5b938501935b828510156200067857620006688562000569565b8452938501939285019262000654565b8098505050505050506200068f6040860162000569565b6060959095015193969295505050565b634e487b7160e01b600052603260045260246000fd5b600060018201620006ca57620006ca62000539565b5060010190565b604081526000835180604084015260005b81811015620007015760208187018101516060868401015201620006e2565b50600060608285018101919091526001600160a01b03949094166020840152601f01601f191690910190910192915050565b6080516124f4620007c66000396000818161055e015281816106cf01528181610795015281816108510152818161093b015281816109f201528181610b4901528181610c1b01528181610f6201528181610fcd015281816110db015281816113eb015281816114ab0152818161155d015281816116270152818161170f015281816117af015261186401526124f46000f3fe608060405234801561001057600080fd5b50600436106102745760003560e01c80637e33f57711610151578063b1c45b16116100c3578063e75ff74f11610087578063e75ff74f14610625578063e8228d0a14610638578063efca23361461064b578063f37dd6ce1461065e578063fccb8eb914610671578063ff19cf1d1461068457600080fd5b8063b1c45b16146105c6578063c7d5c0a7146105d9578063cc7a559e146105ec578063d547741f146105ff578063e720df151461061257600080fd5b806388578d441161011557806388578d441461053d57806389342809146105505780638da5cb5b1461055957806391d1485414610598578063a217fddf146105ab578063af36dafb146105b357600080fd5b80637e33f577146104e85780637fdd98f2146104fb578063801700871461050e57806382e7a9761461051757806384f518691461052a57600080fd5b806336568abe116101ea5780634867b991116101ae5780634867b991146104165780634e4623be1461042957806352ba5a541461043c578063641668141461044f5780636581f7291461045857806375b238fc146104d357600080fd5b806336568abe14610383578063365c99a01461039657806338129153146103a95780633981d667146103fb5780633d725d681461040e57600080fd5b806323b62aa31161023c57806323b62aa31461030b578063248a9ca31461031e5780632f2ff15d1461034157806330d0bd5514610354578063313c58821461035d578063339a64031461037057600080fd5b806301ffc9a7146102795780630c3f4268146102a15780630d660ead146102b657806319f4a421146102ef5780631f7a3508146102f8575b600080fd5b61028c610287366004612036565b61068d565b60405190151581526020015b60405180910390f35b6102b46102af366004612077565b6106c4565b005b6102e16102c4366004612092565b6000908152600a6020908152604080832033845290915290205490565b604051908152602001610298565b6102e160075481565b6102b4610306366004612092565b61078a565b6102b4610319366004612092565b610846565b6102e161032c366004612092565b60009081526020819052604090206001015490565b6102b461034f3660046120ab565b610906565b6102e160025481565b6102b461036b3660046120d7565b610930565b6102b461037e366004612092565b6109e7565b6102b46103913660046120ab565b610ac0565b6102b46103a43660046120d7565b610b3e565b6103ea6103b7366004612092565b6008602052600090815260409020805460018201546002830154600384015460049094015460ff90931693919290919085565b60405161029895949392919061210f565b6102b46104093660046120d7565b610c10565b600c546102e1565b6102b46104243660046120d7565b610ceb565b6102b4610437366004612092565b610f57565b6102b461044a366004612092565b610fc2565b6102e1600b5481565b6104a76104663660046120d7565b600960209081526000928352604080842090915290825290208054600182015460029092015460ff808316936101009093046001600160a01b031692911684565b6040805194151585526001600160a01b0390931660208501529183015215156060820152608001610298565b6102e160008051602061249f83398151915281565b61028c6104f6366004612092565b611096565b6102b4610509366004612092565b6110d0565b6102e160065481565b61028c610525366004612092565b61113b565b6102b46105383660046120d7565b611153565b6102e161054b3660046120d7565b61133d565b6102e160035481565b6105807f000000000000000000000000000000000000000000000000000000000000000081565b6040516001600160a01b039091168152602001610298565b61028c6105a63660046120ab565b6113b7565b6102e1600081565b6102b46105c13660046120d7565b6113e0565b6102b46105d43660046120d7565b6114a0565b6102b46105e7366004612152565b611552565b6102b46105fa3660046120d7565b61161c565b6102b461060d3660046120ab565b6116df565b6102b461062036600461217e565b611704565b6102b4610633366004612092565b611859565b6102e16106463660046120d7565b6118c4565b600154610580906001600160a01b031681565b6102e161066c366004612092565b6118ef565b6102e161067f3660046121ba565b611910565b6102e160045481565b60006001600160e01b03198216637965db0b60e01b14806106be57506301ffc9a760e01b6001600160e01b03198316145b92915050565b336001600160a01b037f000000000000000000000000000000000000000000000000000000000000000016148061070e575061070e60008051602061249f833981519152336113b7565b6107335760405162461bcd60e51b815260040161072a906121ef565b60405180910390fd5b600180546001600160a01b0319166001600160a01b038316908117909155604080518082019091526016815275151bdad95b8810dbdb9d1c9858dd081058d8dbdd5b9d60521b60208201526107879161194e565b50565b336001600160a01b037f00000000000000000000000000000000000000000000000000000000000000001614806107d457506107d460008051602061249f833981519152336113b7565b6107f05760405162461bcd60e51b815260040161072a906121ef565b600260008281526008602052604090205460ff166004811115610815576108156120f9565b146108325760405162461bcd60e51b815260040161072a90612226565b61083d8160036119b4565b61078781611a25565b336001600160a01b037f0000000000000000000000000000000000000000000000000000000000000000161480610890575061089060008051602061249f833981519152336113b7565b6108ac5760405162461bcd60e51b815260040161072a906121ef565b60008181526008602052604081205460ff1660048111156108cf576108cf6120f9565b146108ec5760405162461bcd60e51b815260040161072a90612226565b6108f78160016119b4565b60075481111561078757600755565b60008281526020819052604090206001015461092181611aff565b61092b8383611b09565b505050565b336001600160a01b037f000000000000000000000000000000000000000000000000000000000000000016148061097a575061097a60008051602061249f833981519152336113b7565b6109965760405162461bcd60e51b815260040161072a906121ef565b8082106109dc5760405162461bcd60e51b8152602060048201526014602482015273496e76616c6964204e756d6265722052616e676560601b604482015260640161072a565b600391909155600455565b336001600160a01b037f0000000000000000000000000000000000000000000000000000000000000000161480610a315750610a3160008051602061249f833981519152336113b7565b610a4d5760405162461bcd60e51b815260040161072a906121ef565b600360008281526008602052604090205460ff166004811115610a7257610a726120f9565b14610a8f5760405162461bcd60e51b815260040161072a90612226565b610a9a8160046119b4565b60008181526008602052604090204260029091015561078781610abb611b8d565b611c2b565b6001600160a01b0381163314610b305760405162461bcd60e51b815260206004820152602f60248201527f416363657373436f6e74726f6c3a2063616e206f6e6c792072656e6f756e636560448201526e103937b632b9903337b91039b2b63360891b606482015260840161072a565b610b3a8282611cca565b5050565b336001600160a01b037f0000000000000000000000000000000000000000000000000000000000000000161480610b885750610b8860008051602061249f833981519152336113b7565b610ba45760405162461bcd60e51b815260040161072a906121ef565b600360008381526008602052604090205460ff166004811115610bc957610bc96120f9565b14610be65760405162461bcd60e51b815260040161072a90612226565b610bf18260046119b4565b600082815260086020526040902042600290910155610b3a8282611c2b565b336001600160a01b037f0000000000000000000000000000000000000000000000000000000000000000161480610c5a5750610c5a60008051602061249f833981519152336113b7565b610c765760405162461bcd60e51b815260040161072a906121ef565b600260008381526008602052604090205460ff166004811115610c9b57610c9b6120f9565b14610cb85760405162461bcd60e51b815260040161072a90612226565b610cc38260046119b4565b600082815260086020526040902042600290910155610ce28282611c2b565b610b3a82611a25565b600460008381526008602052604090205460ff166004811115610d1057610d106120f9565b14610d2d5760405162461bcd60e51b815260040161072a90612226565b610d368161113b565b610d525760405162461bcd60e51b815260040161072a90612255565b600082815260096020908152604080832084845290915290205460ff16610daf5760405162461bcd60e51b8152602060048201526011602482015270131bdd1d195c9e481b9bdd081bdddb9959607a1b604482015260640161072a565b600082815260096020908152604080832084845290915290205461010090046001600160a01b03163314610e185760405162461bcd60e51b815260206004820152601060248201526f4e6f7420796f7572206c6f747465727960801b604482015260640161072a565b600082815260096020908152604080832084845290915290206002015460ff1615610e775760405162461bcd60e51b815260206004820152600f60248201526e105b1c9958591e4818db185a5b5959608a1b604482015260640161072a565b60008281526009602090815260408083208484529091528120600201805460ff19166001179055610ea8838361133d565b90508015610f15576001546040516308934a5f60e31b8152336004820152602481018390526001600160a01b039091169063449a52f890604401600060405180830381600087803b158015610efc57600080fd5b505af1158015610f10573d6000803e3d6000fd5b505050505b6040805183815260208101839052339185917f4356bf31c64f1ac8b08df10b8b5af582f0601a174a3c2c26b5af83754d0faaab910160405180910390a3505050565b336001600160a01b037f0000000000000000000000000000000000000000000000000000000000000000161480610fa15750610fa160008051602061249f833981519152336113b7565b610fbd5760405162461bcd60e51b815260040161072a906121ef565b600b55565b336001600160a01b037f000000000000000000000000000000000000000000000000000000000000000016148061100c575061100c60008051602061249f833981519152336113b7565b6110285760405162461bcd60e51b815260040161072a906121ef565b600260008281526008602052604090205460ff16600481111561104d5761104d6120f9565b1461106a5760405162461bcd60e51b815260040161072a90612226565b6110758160046119b4565b60008181526008602052604090204260029091015561083d81610abb611b8d565b60006003546004546110a89190612293565b6110b39060016122a6565b600092835260086020526040909220600401549190911015919050565b336001600160a01b037f000000000000000000000000000000000000000000000000000000000000000016148061111a575061111a60008051602061249f833981519152336113b7565b6111365760405162461bcd60e51b815260040161072a906121ef565b600655565b600060035482101580156106be575050600454101590565b600260008381526008602052604090205460ff166004811115611178576111786120f9565b146111955760405162461bcd60e51b815260040161072a90612226565b61119e8161113b565b6111ba5760405162461bcd60e51b815260040161072a90612255565b600082815260096020908152604080832084845290915290205460ff16156112145760405162461bcd60e51b815260206004820152600d60248201526c131bdd1d195c9e481bdddb9959609a1b604482015260640161072a565b6000828152600860205260408120600401805491611231836122b9565b90915550506000828152600960209081526040808320848452825280832080543361010081026001600160a81b031990921691909117600190811783554292810192909255868552600a8452828520818652845282852080548084018255908652939094209092018490559054600254915163753c2d2f60e11b8152600481019390935260248301919091526001600160a01b03169063ea785a5e90604401600060405180830381600087803b1580156112ea57600080fd5b505af11580156112fe573d6000803e3d6000fd5b50506040518381523392508491507f4332a5ad616ed3e7a80ed5b024f48fa29b0a2e421a97a5468682c189490a42e39060200160405180910390a35050565b6000600460008481526008602052604090205460ff166004811115611364576113646120f9565b146113815760405162461bcd60e51b815260040161072a90612226565b61138a8261113b565b6113a65760405162461bcd60e51b815260040161072a90612255565b6113b083836118c4565b9392505050565b6000918252602082815260408084206001600160a01b0393909316845291905290205460ff1690565b336001600160a01b037f000000000000000000000000000000000000000000000000000000000000000016148061142a575061142a60008051602061249f833981519152336113b7565b6114465760405162461bcd60e51b815260040161072a906121ef565b60008281526008602052604081205460ff166004811115611469576114696120f9565b146114865760405162461bcd60e51b815260040161072a90612226565b6114908282611d2f565b600754821115610b3a5750600755565b336001600160a01b037f00000000000000000000000000000000000000000000000000000000000000001614806114ea57506114ea60008051602061249f833981519152336113b7565b6115065760405162461bcd60e51b815260040161072a906121ef565b600160008381526008602052604090205460ff16600481111561152b5761152b6120f9565b146115485760405162461bcd60e51b815260040161072a90612226565b610b3a8282611d2f565b336001600160a01b037f000000000000000000000000000000000000000000000000000000000000000016148061159c575061159c60008051602061249f833981519152336113b7565b6115b85760405162461bcd60e51b815260040161072a906121ef565b600260008481526008602052604090205460ff1660048111156115dd576115dd6120f9565b146115fa5760405162461bcd60e51b815260040161072a90612226565b6116048383610c10565b61092b600754600161161691906122a6565b826113e0565b336001600160a01b037f0000000000000000000000000000000000000000000000000000000000000000161480611666575061166660008051602061249f833981519152336113b7565b6116825760405162461bcd60e51b815260040161072a906121ef565b600260008381526008602052604090205460ff1660048111156116a7576116a76120f9565b146116c45760405162461bcd60e51b815260040161072a90612226565b6116cd82610fc2565b610b3a600754600161161691906122a6565b6000828152602081905260409020600101546116fa81611aff565b61092b8383611cca565b336001600160a01b037f000000000000000000000000000000000000000000000000000000000000000016148061174e575061174e60008051602061249f833981519152336113b7565b61176a5760405162461bcd60e51b815260040161072a906121ef565b6001600160a01b03821633036117ad5760405162461bcd60e51b81526020600482015260086024820152672737ba1039b2b63360c11b604482015260640161072a565b7f00000000000000000000000000000000000000000000000000000000000000006001600160a01b0316826001600160a01b0316036118235760405162461bcd60e51b815260206004820152601260248201527127bbb732b91030b63bb0bcb99030b236b4b760711b604482015260640161072a565b801561184157610b3a60008051602061249f83398151915283611b09565b610b3a60008051602061249f83398151915283611cca565b336001600160a01b037f00000000000000000000000000000000000000000000000000000000000000001614806118a357506118a360008051602061249f833981519152336113b7565b6118bf5760405162461bcd60e51b815260040161072a906121ef565b600255565b6000828152600860205260408120600301548290036118e657506006546106be565b50600092915050565b600c81815481106118ff57600080fd5b600091825260209091200154905081565b600a602052826000526040600020602052816000526040600020818154811061193857600080fd5b9060005260206000200160009250925050505481565b610b3a8282604051602401611964929190612322565b60408051601f198184030181529190526020810180516001600160e01b031663319af33360e01b179052611dd7565b60006a636f6e736f6c652e6c6f679050600080835160208501845afa505050565b6000828152600860205260409020805482919060ff191660018360048111156119df576119df6120f9565b02179055508060048111156119f6576119f66120f9565b60405183907f93c7a5a855fb1ada16d20fdbd62042d74afd1f997daa2e99b19a6dc0db99c15790600090a35050565b600c546000805b611a37600184612293565b811015611ad25781158015611a68575083600c8281548110611a5b57611a5b61234c565b9060005260206000200154145b15611a7257600191505b8115611ac057600c611a858260016122a6565b81548110611a9557611a9561234c565b9060005260206000200154600c8281548110611ab357611ab361234c565b6000918252602090912001555b80611aca816122b9565b915050611a2c565b50600c805480611ae457611ae4612362565b60019003818190600052602060002001600090559055505050565b6107878133611de0565b611b1382826113b7565b610b3a576000828152602081815260408083206001600160a01b03851684529091529020805460ff19166001179055611b493390565b6001600160a01b0316816001600160a01b0316837f2f8788117e7eff1d82e926ec794901d17c78024a50270940304540a733656f0d60405160405180910390a45050565b600042600554604051602001611bad929190918252602082015260400190565b60408051601f198184030181529190528051602090910120600555600354600454600091611bda91612293565b600554611be79190612378565b600354611bf491906122a6565b9050611c266040518060400160405280600e81526020016d20b1ba3ab0b610273ab6b132b91d60911b81525082611e39565b919050565b611c348161113b565b611c765760405162461bcd60e51b815260206004820152601360248201527224b73b30b634b2103937b63610373ab6b132b960691b604482015260640161072a565b600082815260086020526040908190206003018290555182907f1f335420d08cd5804209879602adf0418a841b071cf4afcdda2806574eaff9a190611cbe9084815260200190565b60405180910390a25050565b611cd482826113b7565b15610b3a576000828152602081815260408083206001600160a01b0385168085529252808320805460ff1916905551339285917ff6391f5c32d9c69d2a47ea670b442974b53935d1edc7fd64eb21e047a839171b9190a45050565b611d3a8260026119b4565b6000828152600860205260409020600101819055600b54600c5410611da15760405162461bcd60e51b815260206004820152601b60248201527f5265616368206d6178696d756d20726f6f6d2063617061636974790000000000604482015260640161072a565b50600c80546001810182556000919091527fdf6966c971051c3d54ec59162606531493a51404a002842f56009d7e5cf4a8c70155565b61078781611993565b611dea82826113b7565b610b3a57611df781611e7e565b611e02836020611e90565b604051602001611e1392919061239a565b60408051601f198184030181529082905262461bcd60e51b825261072a9160040161240f565b610b3a8282604051602401611e4f929190612422565b60408051601f198184030181529190526020810180516001600160e01b0316632d839cb360e21b179052611dd7565b60606106be6001600160a01b03831660145b60606000611e9f836002612444565b611eaa9060026122a6565b67ffffffffffffffff811115611ec257611ec261245b565b6040519080825280601f01601f191660200182016040528015611eec576020820181803683370190505b509050600360fc1b81600081518110611f0757611f0761234c565b60200101906001600160f81b031916908160001a905350600f60fb1b81600181518110611f3657611f3661234c565b60200101906001600160f81b031916908160001a9053506000611f5a846002612444565b611f659060016122a6565b90505b6001811115611fdd576f181899199a1a9b1b9c1cb0b131b232b360811b85600f1660108110611f9957611f9961234c565b1a60f81b828281518110611faf57611faf61234c565b60200101906001600160f81b031916908160001a90535060049490941c93611fd681612471565b9050611f68565b5083156113b05760405162461bcd60e51b815260206004820181905260248201527f537472696e67733a20686578206c656e67746820696e73756666696369656e74604482015260640161072a565b612034612488565b565b60006020828403121561204857600080fd5b81356001600160e01b0319811681146113b057600080fd5b80356001600160a01b0381168114611c2657600080fd5b60006020828403121561208957600080fd5b6113b082612060565b6000602082840312156120a457600080fd5b5035919050565b600080604083850312156120be57600080fd5b823591506120ce60208401612060565b90509250929050565b600080604083850312156120ea57600080fd5b50508035926020909101359150565b634e487b7160e01b600052602160045260246000fd5b60a081016005871061213157634e487b7160e01b600052602160045260246000fd5b95815260208101949094526040840192909252606083015260809091015290565b60008060006060848603121561216757600080fd5b505081359360208301359350604090920135919050565b6000806040838503121561219157600080fd5b61219a83612060565b9150602083013580151581146121af57600080fd5b809150509250929050565b6000806000606084860312156121cf57600080fd5b833592506121df60208501612060565b9150604084013590509250925092565b6020808252601f908201527f43616c6c6572206973206e6f7420616e2061646d696e206f72206f776e657200604082015260600190565b602080825260159082015274496e76616c6964206c6f747465727920737461746560581b604082015260600190565b6020808252600e908201526d24b73b30b634b210373ab6b132b960911b604082015260600190565b634e487b7160e01b600052601160045260246000fd5b818103818111156106be576106be61227d565b808201808211156106be576106be61227d565b6000600182016122cb576122cb61227d565b5060010190565b60005b838110156122ed5781810151838201526020016122d5565b50506000910152565b6000815180845261230e8160208601602086016122d2565b601f01601f19169290920160200192915050565b60408152600061233560408301856122f6565b905060018060a01b03831660208301529392505050565b634e487b7160e01b600052603260045260246000fd5b634e487b7160e01b600052603160045260246000fd5b60008261239557634e487b7160e01b600052601260045260246000fd5b500690565b7f416363657373436f6e74726f6c3a206163636f756e74200000000000000000008152600083516123d28160178501602088016122d2565b7001034b99036b4b9b9b4b733903937b6329607d1b60179184019182015283516124038160288401602088016122d2565b01602801949350505050565b6020815260006113b060208301846122f6565b60408152600061243560408301856122f6565b90508260208301529392505050565b80820281158282048414176106be576106be61227d565b634e487b7160e01b600052604160045260246000fd5b6000816124805761248061227d565b506000190190565b634e487b7160e01b600052605160045260246000fdfea49807205ce4d355092ef5a8a18f56e8913cf4a201fbe287825b095693c21775a2646970667358221220c24caf9619def6a9b24559d6f1e088ac20ed7db37d1c636bd23952e56f86bdf164736f6c63430008110033a49807205ce4d355092ef5a8a18f56e8913cf4a201fbe287825b095693c2177543616c6c6572206973206e6f7420616e2061646d696e206f72206f776e657200",
  "devdoc": {
    "kind": "dev",
    "methods": {
      "getRoleAdmin(bytes32)": {
        "details": "Returns the admin role that controls `role`. See {grantRole} and {revokeRole}. To change a role's admin, use {_setRoleAdmin}."
      },
      "grantRole(bytes32,address)": {
        "details": "Grants `role` to `account`. If `account` had not been already granted `role`, emits a {RoleGranted} event. Requirements: - the caller must have ``role``'s admin role. May emit a {RoleGranted} event."
      },
      "hasRole(bytes32,address)": {
        "details": "Returns `true` if `account` has been granted `role`."
      },
      "renounceRole(bytes32,address)": {
        "details": "Revokes `role` from the calling account. Roles are often managed via {grantRole} and {revokeRole}: this function's purpose is to provide a mechanism for accounts to lose their privileges if they are compromised (such as when a trusted device is misplaced). If the calling account had been revoked `role`, emits a {RoleRevoked} event. Requirements: - the caller must be `account`. May emit a {RoleRevoked} event."
      },
      "revokeRole(bytes32,address)": {
        "details": "Revokes `role` from `account`. If `account` had been granted `role`, emits a {RoleRevoked} event. Requirements: - the caller must have ``role``'s admin role. May emit a {RoleRevoked} event."
      },
      "supportsInterface(bytes4)": {
        "details": "See {IERC165-supportsInterface}."
      }
    },
    "version": 1
  },
  "userdoc": {
    "kind": "user",
    "methods": {
      "declareLottery(uint256)": {
        "notice": "Change Lottery Section"
      },
      "fastStartLottery(uint256,uint256)": {
        "notice": "Fast Method"
      },
      "isLotteryRoomFull(uint256)": {
        "notice": "Misc"
      },
      "lotteryBuyCount(uint256)": {
        "notice": "Buyer Section"
      },
      "setAdminRole(address,bool)": {
        "notice": "Admin Setter Section"
      },
      "setLotteryNumberRange(uint256,uint256)": {
        "notice": "Lottery Number Section"
      }
    },
    "notice": "Itim Lottery 2 Digits Author: chan1sook Revision: 4 Last Updated: 2024-05-30 9:00",
    "version": 1
  },
  "storageLayout": {
    "storage": [
      {
        "astId": 24,
        "contract": "contracts/ItimLottery2Digits.sol:ItimLottery2Digits",
        "label": "_roles",
        "offset": 0,
        "slot": "0",
        "type": "t_mapping(t_bytes32,t_struct(RoleData)19_storage)"
      },
      {
        "astId": 3227,
        "contract": "contracts/ItimLottery2Digits.sol:ItimLottery2Digits",
        "label": "tokenContractAccount",
        "offset": 0,
        "slot": "1",
        "type": "t_address"
      },
      {
        "astId": 3230,
        "contract": "contracts/ItimLottery2Digits.sol:ItimLottery2Digits",
        "label": "lotteryCost",
        "offset": 0,
        "slot": "2",
        "type": "t_uint256"
      },
      {
        "astId": 3233,
        "contract": "contracts/ItimLottery2Digits.sol:ItimLottery2Digits",
        "label": "lotteryMinNumber",
        "offset": 0,
        "slot": "3",
        "type": "t_uint256"
      },
      {
        "astId": 3236,
        "contract": "contracts/ItimLottery2Digits.sol:ItimLottery2Digits",
        "label": "lotteryMaxNumber",
        "offset": 0,
        "slot": "4",
        "type": "t_uint256"
      },
      {
        "astId": 3238,
        "contract": "contracts/ItimLottery2Digits.sol:ItimLottery2Digits",
        "label": "randomSeed",
        "offset": 0,
        "slot": "5",
        "type": "t_uint256"
      },
      {
        "astId": 3243,
        "contract": "contracts/ItimLottery2Digits.sol:ItimLottery2Digits",
        "label": "lotteryReward",
        "offset": 0,
        "slot": "6",
        "type": "t_uint256"
      },
      {
        "astId": 3263,
        "contract": "contracts/ItimLottery2Digits.sol:ItimLottery2Digits",
        "label": "lastestLotteryId",
        "offset": 0,
        "slot": "7",
        "type": "t_uint256"
      },
      {
        "astId": 3268,
        "contract": "contracts/ItimLottery2Digits.sol:ItimLottery2Digits",
        "label": "lotteryData",
        "offset": 0,
        "slot": "8",
        "type": "t_mapping(t_uint256,t_struct(ItimLotteryData)3261_storage)"
      },
      {
        "astId": 3284,
        "contract": "contracts/ItimLottery2Digits.sol:ItimLottery2Digits",
        "label": "lotteryBuyData",
        "offset": 0,
        "slot": "9",
        "type": "t_mapping(t_uint256,t_mapping(t_uint256,t_struct(ItimLotteryBuyData)3277_storage))"
      },
      {
        "astId": 3291,
        "contract": "contracts/ItimLottery2Digits.sol:ItimLottery2Digits",
        "label": "lotteryBuyerData",
        "offset": 0,
        "slot": "10",
        "type": "t_mapping(t_uint256,t_mapping(t_address,t_array(t_uint256)dyn_storage))"
      },
      {
        "astId": 3294,
        "contract": "contracts/ItimLottery2Digits.sol:ItimLottery2Digits",
        "label": "lotteryRoomCapacity",
        "offset": 0,
        "slot": "11",
        "type": "t_uint256"
      },
      {
        "astId": 3297,
        "contract": "contracts/ItimLottery2Digits.sol:ItimLottery2Digits",
        "label": "lotteryRoomActives",
        "offset": 0,
        "slot": "12",
        "type": "t_array(t_uint256)dyn_storage"
      }
    ],
    "types": {
      "t_address": {
        "encoding": "inplace",
        "label": "address",
        "numberOfBytes": "20"
      },
      "t_array(t_uint256)dyn_storage": {
        "base": "t_uint256",
        "encoding": "dynamic_array",
        "label": "uint256[]",
        "numberOfBytes": "32"
      },
      "t_bool": {
        "encoding": "inplace",
        "label": "bool",
        "numberOfBytes": "1"
      },
      "t_bytes32": {
        "encoding": "inplace",
        "label": "bytes32",
        "numberOfBytes": "32"
      },
      "t_enum(ItimLotteryState)3249": {
        "encoding": "inplace",
        "label": "enum ItimLotteryBase.ItimLotteryState",
        "numberOfBytes": "1"
      },
      "t_mapping(t_address,t_array(t_uint256)dyn_storage)": {
        "encoding": "mapping",
        "key": "t_address",
        "label": "mapping(address => uint256[])",
        "numberOfBytes": "32",
        "value": "t_array(t_uint256)dyn_storage"
      },
      "t_mapping(t_address,t_bool)": {
        "encoding": "mapping",
        "key": "t_address",
        "label": "mapping(address => bool)",
        "numberOfBytes": "32",
        "value": "t_bool"
      },
      "t_mapping(t_bytes32,t_struct(RoleData)19_storage)": {
        "encoding": "mapping",
        "key": "t_bytes32",
        "label": "mapping(bytes32 => struct AccessControl.RoleData)",
        "numberOfBytes": "32",
        "value": "t_struct(RoleData)19_storage"
      },
      "t_mapping(t_uint256,t_mapping(t_address,t_array(t_uint256)dyn_storage))": {
        "encoding": "mapping",
        "key": "t_uint256",
        "label": "mapping(uint256 => mapping(address => uint256[]))",
        "numberOfBytes": "32",
        "value": "t_mapping(t_address,t_array(t_uint256)dyn_storage)"
      },
      "t_mapping(t_uint256,t_mapping(t_uint256,t_struct(ItimLotteryBuyData)3277_storage))": {
        "encoding": "mapping",
        "key": "t_uint256",
        "label": "mapping(uint256 => mapping(uint256 => struct ItimLotteryBase.ItimLotteryBuyData))",
        "numberOfBytes": "32",
        "value": "t_mapping(t_uint256,t_struct(ItimLotteryBuyData)3277_storage)"
      },
      "t_mapping(t_uint256,t_struct(ItimLotteryBuyData)3277_storage)": {
        "encoding": "mapping",
        "key": "t_uint256",
        "label": "mapping(uint256 => struct ItimLotteryBase.ItimLotteryBuyData)",
        "numberOfBytes": "32",
        "value": "t_struct(ItimLotteryBuyData)3277_storage"
      },
      "t_mapping(t_uint256,t_struct(ItimLotteryData)3261_storage)": {
        "encoding": "mapping",
        "key": "t_uint256",
        "label": "mapping(uint256 => struct ItimLotteryBase.ItimLotteryData)",
        "numberOfBytes": "32",
        "value": "t_struct(ItimLotteryData)3261_storage"
      },
      "t_struct(ItimLotteryBuyData)3277_storage": {
        "encoding": "inplace",
        "label": "struct ItimLotteryBase.ItimLotteryBuyData",
        "members": [
          {
            "astId": 3270,
            "contract": "contracts/ItimLottery2Digits.sol:ItimLottery2Digits",
            "label": "owned",
            "offset": 0,
            "slot": "0",
            "type": "t_bool"
          },
          {
            "astId": 3272,
            "contract": "contracts/ItimLottery2Digits.sol:ItimLottery2Digits",
            "label": "buyer",
            "offset": 1,
            "slot": "0",
            "type": "t_address"
          },
          {
            "astId": 3274,
            "contract": "contracts/ItimLottery2Digits.sol:ItimLottery2Digits",
            "label": "buyTime",
            "offset": 0,
            "slot": "1",
            "type": "t_uint256"
          },
          {
            "astId": 3276,
            "contract": "contracts/ItimLottery2Digits.sol:ItimLottery2Digits",
            "label": "claimed",
            "offset": 0,
            "slot": "2",
            "type": "t_bool"
          }
        ],
        "numberOfBytes": "96"
      },
      "t_struct(ItimLotteryData)3261_storage": {
        "encoding": "inplace",
        "label": "struct ItimLotteryBase.ItimLotteryData",
        "members": [
          {
            "astId": 3252,
            "contract": "contracts/ItimLottery2Digits.sol:ItimLottery2Digits",
            "label": "state",
            "offset": 0,
            "slot": "0",
            "type": "t_enum(ItimLotteryState)3249"
          },
          {
            "astId": 3254,
            "contract": "contracts/ItimLottery2Digits.sol:ItimLottery2Digits",
            "label": "expiredTime",
            "offset": 0,
            "slot": "1",
            "type": "t_uint256"
          },
          {
            "astId": 3256,
            "contract": "contracts/ItimLottery2Digits.sol:ItimLottery2Digits",
            "label": "drawTime",
            "offset": 0,
            "slot": "2",
            "type": "t_uint256"
          },
          {
            "astId": 3258,
            "contract": "contracts/ItimLottery2Digits.sol:ItimLottery2Digits",
            "label": "drawNumber",
            "offset": 0,
            "slot": "3",
            "type": "t_uint256"
          },
          {
            "astId": 3260,
            "contract": "contracts/ItimLottery2Digits.sol:ItimLottery2Digits",
            "label": "buyCount",
            "offset": 0,
            "slot": "4",
            "type": "t_uint256"
          }
        ],
        "numberOfBytes": "160"
      },
      "t_struct(RoleData)19_storage": {
        "encoding": "inplace",
        "label": "struct AccessControl.RoleData",
        "members": [
          {
            "astId": 16,
            "contract": "contracts/ItimLottery2Digits.sol:ItimLottery2Digits",
            "label": "members",
            "offset": 0,
            "slot": "0",
            "type": "t_mapping(t_address,t_bool)"
          },
          {
            "astId": 18,
            "contract": "contracts/ItimLottery2Digits.sol:ItimLottery2Digits",
            "label": "adminRole",
            "offset": 0,
            "slot": "1",
            "type": "t_bytes32"
          }
        ],
        "numberOfBytes": "64"
      },
      "t_uint256": {
        "encoding": "inplace",
        "label": "uint256",
        "numberOfBytes": "32"
      }
    }
  }
}